:100000000C9477030C94032D0C94AF030C94AF0362
:100010000C94AF030C94AF030C94AF030C94AF0398
:100020000C94AF030C94AF030C94F8250C94B425F6
:100030000C944B270C94AF030C94AF030C94AF03B8
:100040000C94AF030C94AF030C94AF030C94AF0368
:100050000C94AF030C9427270C94AF030C94AF03BC
:100060000C94AF030C94AF030C94AF030C94AF0348
:100070000C94AF030C94AF030C94AF030C94AF0338
:100080000C94AF030C94AF030C94AF030C94AF0328
:100090000C94AF030C94AF030C94AF030C94AF0318
:1000A0000C94AF030C94AF030C94AF030631FF091B
:1000B00074A1010975150026FF00952075088102BD
:1000C0000976150026FF00952075089102C00501EC
:1000D0000980A101850319012AB700150126B7007F
:1000E000950175108100C0050C0901A10185041955
:1000F000012AA002150126A002950175108100C0F9
:1001000005010906A101050719E029E715002501E8
:10011000950875018102950175088101050719008F
:1001200029FF150026FF00950675088100050819AE
:10013000012905950575019102950175039101C08D
:10014000726762206D617472697820746F67676C82
:1001500065205B25735D3A207267625F6D61747222
:1001600069785F636F6E6669672E656E61626C6544
:10017000203D2025750A0044454255473A206469D0
:100180007361626C65642E0A0044454255473A200B
:10019000656E61626C65642E0A004F6E6573686FF0
:1001A000743A206163746976653A2025640A000A0E
:1001B000002530325820006B6579626F6172645F90
:1001C0007265706F72743A200029001E001F0020B3
:1001D00000210022002B0014001A0008001500174F
:1001E00000E00004001600070009000A00E1001DFD
:1001F000001B0006001900050000000000E30021BC
:10020000522C002C002D002700260025002400235E
:10021000002F00130012000C0018001C00340033E3
:10022000000F000E000D000B00E50038003700360F
:10023000001000110000000000E6002A002800283D
:100240000035003A003B003C003D003E00007C1EB3
:10025000021F022002210222024C001E001F002069
:100260000021002200E100230024002500260027B1
:10027000000000000001000100000000002E00430B
:10028000004200410040003F0030002702260225C6
:10029000022402230231002E024F0052005100506E
:1002A00000E50000002D022D002E022E00000000AF
:1002B0000022524C002A002A0054617267657420A3
:1002C000636F6E6E65637465640D0A0054617267D6
:1002D000657420646973636F6E6E65637465642C06
:1002E000207468726F74746C696E6720636F6E6ED1
:1002F000656374696F6E20617474656D7074730DDD
:100300000A004661696C656420746F2065786563D6
:100310007574652025730A007267625F6D6174727F
:1003200069785F636F6E6669672E666C61677320BC
:100330003D2025640A007267625F6D61747269789E
:100340005F636F6E6669672E7370656564203D201C
:1003500025640A007267625F6D61747269785F6319
:100360006F6E6669672E6873762E76203D20256451
:100370000A007267625F6D61747269785F636F6EA5
:100380006669672E6873762E73203D2025640A0007
:100390007267625F6D61747269785F636F6E6669C0
:1003A000672E6873762E68203D2025640A007267E8
:1003B000625F6D61747269785F636F6E6669672EE4
:1003C0006D6F6465203D2025640A007267625F6D71
:1003D00061747269785F636F6E6669672E656E61BE
:1003E000626C65203D2025640A007267625F6D6162
:1003F000747269785F636F6E666967204545505215
:100400004F4D0A007267625F6D61747269785F694F
:100410006E69745F64726976657273207267625F79
:100420006D61747269785F636F6E6669672E6D6F58
:100430006465203D20302E20577269746520646504
:100440006661756C742076616C75657320746F20BD
:10045000454550524F4D2E0A007267625F6D6174C0
:100460007269785F696E69745F64726976657273C8
:10047000206565636F6E666967206973206E6F74AF
:1004800020656E61626C65642E0A005B735D000A14
:100490000025303862003A200025303258000A72B8
:1004A0002F632030313233343536370A000A0025C5
:1004B000303258006C65645F7461736B3A200000E1
:1004C0000101010101010101010202020202020215
:1004D00002020303030303030303040404040404E8
:1004E00004050505050506060606060707070707AE
:1004F00008080808090909090A0A0A0B0B0B0C0C61
:100500000C0D0D0D0E0E0E0F0F0F101011111112FC
:100510001213131414151516161717181819191A7B
:100520001A1B1B1C1D1D1E1E1F20202122222324DE
:1005300024252626272829292A2B2C2D2D2E2F301D
:10054000313232333435363738393A3B3C3D3E3F31
:10055000404142434445464748494A4C4D4E4F501E
:10056000515354555658595A5B5D5E5F61626465DC
:100570006668696B6C6D6F7072737577787A7B7D66
:100580007E8082838587888A8C8E8F9193959698BA
:100590009A9C9EA0A2A3A5A7A9ABADAFB1B3B5B7D6
:1005A000BABCBEC0C2C4C6C9CBCDCFD1D4D6D8DBAD
:1005B000DDDFE2E4E7E9EBEEF0F3F5F8FAFDFF65E5
:1005C00065636F6E6669675F7570646174655F729D
:1005D00067625F6D61747269785F64656661756C8E
:1005E000740A005B435D005B445D005B535D005B30
:1005F000575D005B525D0009025B00030100A0FA39
:100600000904000001030101000921110100012278
:1006100040000705810308000109040100010300EF
:100620000000092111010001223200070582032088
:100630000001090402000203000000092111010069
:100640000122220007058303200001070503032080
:100650000001120100020000000810CB56720007D2
:1006600001020001180349007200690073002000B4
:100670005200650076002E002000370000000E03B7
:100680004B0065006500620069006F000000040314
:100690000904726762206D617472697820736574F1
:1006A000207370656564205B25735D3A2025750AAB
:1006B00000726762206D61747269782073657420BE
:1006C000687376205B25735D3A2025752C25752C83
:1006D00025750A00726762206D6174726978206DF9
:1006E0006F6465205B25735D3A2025750A0011242F
:1006F0001FBECFEFDAE0DEBFCDBF04B603FE18C0E9
:1007000080912E0590912F05A0913005B091310573
:100710008730904BA740B04B59F410922E051092A1
:100720002F051092300510923105E0E0F8E30995AD
:1007300012E0A0E0B1E0E0E6FFE502C005900D9216
:10074000A63FB107D9F725E0A6EFB2E001C01D92A0
:10075000AE32B207E1F70E9472270C94392F0C9445
:100760000000FF93EF93E091F602F091F7023097CB
:1007700009F00995EF91FF910895FC018591803072
:1007800011F0EFDFFBCF0895FF27E0E230E247FFF3
:100790000CC0419597FF09C0EDE26095709580957A
:1007A0009095611D711D811D911D27FF02C021952E
:1007B00030E350E2AA27660F771F881F991FAA1FF0
:1007C000A41710F0A41B63955A95A9F7AA3008F056
:1007D000A95FA05DAF93F395611571058105910542
:1007E00041F7ED3211F4EF93F395F21718F43F93BC
:1007F000F395FBCF8F91B5DFFA95E1F70895E99175
:10080000F9918591803021F0853219F0AADFF9CF76
:10081000089520E0E89455915532C1F3503311F416
:10082000689455915A3348F4505390F3220F022E96
:10083000220F220F200D250FF4CF0EF42195899160
:100840009991533619F3533729F1533559F1BC01B6
:1008500088279927E8945C3621F4899199916894C6
:100860005591543639F446EF7EF077FF0DC08FEF87
:100870009FEF0AC055374AE039F0583540E121F082
:10088000523642E009F00895FF93EF937DDFEF9138
:10089000FF91B7CFFF93EF93FC0181918030B9F3C3
:1008A00060DFFBCFFF93EF9368DFF1CFDF93CF9350
:1008B000CDB7DEB72596A3DFCF91DF910895E8EDA0
:1008C000F0E080818E7F80831092E2001092DA0047
:1008D0001092E100A0EEB0E08C9181608C93808159
:1008E0008F77808319BCA7EDB0E08C918E7F8C93BD
:1008F00080818F7E80831092DF0408952091E40030
:100900003091E50095E6A9012091EC00822F8170DD
:1009100020FF06C08091E80080FF06C080E00895B7
:100920002091E80022FD1AC08091EC04882389F010
:10093000853089F08091EB0085FD0FC02091E400A7
:100940003091E50042175307F9F29150E1F684E047
:10095000089582E0089583E0089581E008958091EC
:10096000EE0487FF13C08091E80082FF06C08091EB
:10097000E8008B778093E80004C08091EC0481113B
:10098000F2CF08958091EC048823D9F38091E80098
:1009900080FFF8CF8091E8008E77ECCF982F90936E
:1009A000E900242F762F50E0891731F07091EC0088
:1009B0002091ED005091F00021FD07C09F5F97301E
:1009C00071F78093E90081E008953091EB003E7F5C
:1009D0003093EB003091ED003D7F3093ED0030918E
:1009E000EB0031603093EB007093EC002093ED004E
:1009F0005093F0002091EE0027FDE0CF80E00895B5
:100A0000B0E0A0E0E6E0F5E00C94292EC8EDD0E0DF
:100A100088818F7E8883E7EDF0E08081816080832C
:100A200084E082BF81E08093DF0488818E7F8883A9
:100A300002EE10E0F80110821092DA0081EEC82E6A
:100A4000D12CF601108288818F7788838881806815
:100A5000888388818F7D888319BC1092EC04109262
:100A6000ED041092EB041092EA0490EEE92EF12CC2
:100A7000F70180818B7F808388818160888342E059
:100A800060E080E00E94CE04F60180818E7F80834A
:100A9000F801808181608083808188608083F70194
:100AA00080818E7F8083888180618883CDB7DEB727
:100AB000E8E00C94452EFC018091F4049091F5043B
:100AC00086179707A0F06115710529F49091E80049
:100AD0009E779093E80090E06115710551F49111B3
:100AE00008C08091E80082FF34C080E00895BC0116
:100AF000F2CF8091EC048823C1F18530C1F180915F
:100B0000E80083FD30C08091E80082FDEACF80914B
:100B1000E80080FFE1CF8091F3002091F200382FB0
:100B20006115710519F02830310558F091E0283031
:100B3000310509F090E02091E8002E772093E8003D
:100B4000CBCF81918093F100615071092F5F3F4FAE
:100B5000E7CF8091EC04882341F0853041F080910B
:100B6000E80083FFBECF81E0089582E0089583E02E
:100B7000089508958091E10408959C014FB7F89479
:100B80008091D8049091D904A091DA04B091DB044B
:100B90004FBF821B930B08952FB7F8946091D80430
:100BA0007091D9048091DA049091DB042FBF0895ED
:100BB0002FB7F8948091D8049091D904A091DA04C9
:100BC000B091DB042FBF08959C01FC0132969FEF8A
:100BD00080E04191461751F09F3F19F4411101C047
:100BE000982F8F5F8630A9F79F3F09F40895290F4A
:100BF000311D97FD3A95F90162830895A3E0B0E0B5
:100C0000E4E0F6E00C942F2E2091D5043091D60428
:100C100028173907A1F09093D6048093D504E0916A
:100C2000D304F091D404309751F024E029839B83BE
:100C30008A830680F781E02DCE01019609952396DF
:100C4000E2E00C944B2EA3E0B0E0E9E2F6E00C9475
:100C50002F2E2091D1043091D20428173907A1F00A
:100C60009093D2048093D104E091D304F091D40402
:100C7000309751F023E029839B838A830680F78194
:100C8000E02DCE01019609952396E2E00C944B2EBF
:100C9000FC01680F791F8FEF91E32191822728E0F3
:100CA00030E087FF09C0880F892721503109C9F733
:100CB000E617F70791F70895880FF7CFFA0181112A
:100CC00001C0FB0109950895809349018091280591
:100CD0008370809348010E94701483E080934E01DA
:100CE0000895EF92FF920F939701201B31092F3F38
:100CF000310519F010F02FEF30E0322F3095482FEA
:100D0000430F08F44FEF842F620F0F91FF90EF9085
:100D10000895EF92FF920F93972F093438F4B7019B
:100D2000601B71096F3F710519F010F06FEF70E0F3
:100D3000485F5F4F4131510540F0A901485F5F4F67
:100D40004131510510F06FEF70E06095482F460F6C
:100D500008F44FEF842F37FF02C02D5F3F4F3595CA
:100D600027953595279560912905620F792F0F9169
:100D7000FF90EF900895EF92FF920F931F930E0D47
:100D80001F2D111DF90137FF03C0F195E195F10900
:100D900024E0EE0FFF1F2A95E1F7EF3FF10519F070
:100DA00014F0EFEFF0E09A0157FF03C03195219561
:100DB000310994E0220F331F9A95E1F72E173F0770
:100DC0000CF4F901E00FF11FEF3FF10519F010F0FD
:100DD000EFEFF0E0E095282F3E2F230F08F42FEFE0
:100DE000822F1F910F91FF90EF900895EF92FF9245
:100DF0000F93970195E0099F200D311D11242F3F7E
:100E0000310519F010F02FEF30E02095382F320F18
:100E100008F43FEF832F0F91FF90EF90089522E8A1
:100E2000241B08F420E0620F08954095282F429F6C
:100E3000412D1124842F08950F931F9310E0F80182
:100E4000EE0FFF1FE75DFD4F9081905797FD919545
:100E5000000F111FF801E351FE4F05AD0052110BB9
:100E60002003F001219FF00D112408E310E0091B7D
:100E7000110997FD139540039001419F300D1124F6
:100E8000E20FF31F9F01220F331F2E0F3F1F37FF6B
:100E900002C021583F4F220F232F221F330B620F16
:100EA0001F910F9108950F931F93522F10E0F80197
:100EB000EE0FFF1FE351FE4FA5ADA052BB0B9D01EE
:100EC0005203F001539FF00D1124000F111FD801A0
:100ED000A75DBD4F0C910057110B40039001419F3E
:100EE000300D11242E0F3F1F37FF02C0215C3F4FF2
:100EF00096E0359527959A95E1F7620F1F910F912E
:100F000008950F931F93522F10E0F801EE0FFF1F6B
:100F1000E351FE4FA5ADA052BB0B9D015203F00162
:100F2000539FF00D1124000F111FD801A75DBD4F75
:100F30000C910057110B40039001419F300D11247B
:100F40002E0F3F1F37FF02C021583F4F220F232F84
:100F5000221F330B620F1F910F910895EF920F9391
:100F6000972F23E0029FB0011124759567956E0DB0
:100F7000792F0F91EF900895322F50E0FA01EE0F84
:100F8000FF1FE351FE4F95AD905297FD9195440F91
:100F9000551FFA01E75DFD4F2081231B330B290FFD
:100FA000311D97FD3A95620F0895E42FF0E0EE0FA2
:100FB000FF1FE351FE4F65AD621B0895E42FF0E083
:100FC000EE0FFF1FE75DFD4F6081621B0895622FEA
:100FD0000895E42FF0E0EE0FFF1FE75DFD4F408125
:100FE00034EE439F412D1124E82FF0E050E0445EA1
:100FF0005F4FDA01A21BB1099D01B7FF03C0319514
:101000002195310993E0220F331F9A95E1F7AF0143
:10101000421B530B9A0157FD20E0582F259F212D8D
:101020001124822F0895E42FF0E0EE0FFF1FE75DFB
:10103000FD4F408134EE439F412D1124E72FF0E016
:1010400050E0445E5F4FDA01A21BB1099D01B7FF7A
:1010500003C031952195310993E0220F331F9A95F2
:10106000E1F7AF01421B530B9A0157FD20E0279F88
:10107000212D1124722F08950E943E0A0895FF9297
:101080000F931F93CF93DF93182F062FF42ED0E0EA
:10109000C0E02F2D402F612FCE010E943C082196E9
:1010A000C434D105B1F7CDB7DEB7E5E00C94482ED6
:1010B000FC019B01009729F480E077FF2BC080E8BA
:1010C0000895AC0197FF04C044275527481B590BCE
:1010D000B901640F751F37FD10C0241B350BC90102
:1010E000A5E0880F991FAA95E1F70E94762E80E26D
:1010F000861BF7FF0FC081950895CB0165E0880F2F
:10110000991F6A95E1F7BA01621B730B0E94762E54
:1011100080E6EECF0895EF920F93CF93DF93D72F12
:10112000C82FC9010E19BA010E945808602F681B08
:101130007D2F8C2FDF91CF910F91EF9008950F931A
:10114000CF93DF93D72FC82FC901BA010E94580847
:10115000682F600F7D2F8C2FDF91CF910F91089515
:10116000EF920F931F93CF93DF93D62FC72F182F94
:10117000C9010E19010FBA010E945808081B202F3F
:10118000219F212D1124822F6D2F7C2FDF91CF9154
:101190001F910F91EF900895EF920F931F93CF93AC
:1011A000DF93D62F172FC82FC9010E19070FBA01C9
:1011B0000E945808702F781B719F712D11246D2F7C
:1011C0008C2FDF91CF911F910F91EF9008950F9386
:1011D0001F93CF93DF93D62FC72F182FC901212F2D
:1011E000201B022FBA010E945808982F990F990FBF
:1011F000891B800F282F219F212D1124822F6D2FD5
:101200007C2FDF91CF911F910F9108950F931F9322
:10121000CF93DF93D62F172FC82FC901272F201B5D
:10122000022FBA010E945808982F990F990F782F12
:10123000791B700F719F712D11246D2F8C2FDF91F1
:10124000CF911F910F910895E82F86FDE0952E2FE5
:101250002F7086FD2F5FE695E695E695E670F0E047
:10126000EA52FE4F9181929F902D212D112492954B
:101270009F702295207F922B2081920F87FD919560
:1012800080E8890F0895AC018230910508F4089533
:101290009FEF413E8EE1580740F49A0195E0369564
:1012A00027959A95E1F798E0920F61E0E62FE90F14
:1012B000FF27FF1F9F0135952795822F229FF00161
:1012C000239FF00DF00D11244E175F0738F49FEFA8
:1012D000920F961758F78FEF860F08952F3FE9F377
:1012E00061E0620FF6CF0F93CF93DF93D72FC82F14
:1012F00047FD419588E390E0841B910947FD939554
:10130000889FB001899F700D700D1124229FC0012C
:10131000239F900D900D1124860F971F0E94430963
:10132000982F990F890F682F600F7D2F8C2FDF91D9
:10133000CF910F91089530E020E0869F212D969F58
:10134000200D311D1124C9010895AF92BF92CF9293
:10135000DF92FF920F931F93CF93DF93362F472F88
:10136000E82FF0E0E154FB4F71110FC0E4918E2F94
:101370002E2F6E2F722FDF91CF911F910F91FF9023
:10138000DF90CF90BF90AF900895C72FD0E0249109
:10139000F22E022F10E056E0659FC0011124EFEFFE
:1013A000F0E0BF010E94622E832F90E0880F991F0A
:1013B00035E5369FD001379FB00D11248A1B9B0B5A
:1013C000982F990F980F6F01CC1ADD0AC09ED0019B
:1013D000C19EB00DD09EB00D11248B2F499FA0014E
:1013E0001124452F55276F01C41AD50AC09EA001AC
:1013F000C19E500DD09E500D11245F01A91AB10855
:10140000AC9E6001AD9ED00CBC9ED00C1124CD2CA6
:10141000DD24EC19FD09E09FE001E19FD00DF09F74
:10142000D00D1124ED2F62307105A1F050F461153B
:10143000710509F49ECF6130710581F0EB2F852F86
:1014400098CF6430710569F080F06630710509F459
:1014500090CFF4CFE22F2B2F8D2F8BCFE22F252F84
:1014600088CFEB2F822F2D2F84CF2B2F8F2DE52F81
:1014700080CF89B185FB882780F90895FF920F936B
:101480001F93CF93DF93EC01F62E042F122F0E94AF
:10149000390A81110FC0C232D1057CF0A297FE013A
:1014A000EE0FFF1FEC0FFD1FEB5FFB4FF182008380
:1014B000128303C0C232D10594F3CDB7DEB7E5E0A5
:1014C0000C94482ECF93C82F0E94390A882329F004
:1014D00081E0C23228F080E003C081E0C434D8F754
:1014E000CF910895A8E0B0E0E8E7FAE00C941F2E51
:1014F000282E7C836B8320914B018EE0289F802DCA
:1015000011248D83825F8983853410F034E439831C
:101510000E94390A882329F08981833210F092E2EF
:1015200099830E94390A811105C0ED81E23210F4DD
:10153000F2E2FD832091FA042A839D81892F90E0B5
:1015400098878F83880F991FFC01E351FE4F6F012D
:10155000822D90E09C012F5F3F4F3E832D83898138
:101560009F81981730F00E94620A2896E2E10C945D
:101570003B2EEF81F885EF54FD4F808190914C0117
:101580008923F9F03090290540902A058D819E81AC
:1015900086509B4F3C01522C10E0FA815F16D8F028
:1015A00020912B05129F112D1124632D742D812F55
:1015B0000E94A509462F282F672F8F8198850E94AA
:1015C0003C082F8138852F5F3F4F38872F8332E0CB
:1015D000C30ED11CC4CFF30181913F01F601A4AC2D
:1015E000A81ABB0885ACF3018781881A9908AA9CC0
:1015F0009001AB9C300D300D1124889CC001899C5A
:10160000900D900D1124820F931F0E944309082F03
:1016100060912C0521E0620F08F46FEFF301EE0FEB
:10162000FF1FEA5FF440858996890E949B097C012F
:101630009401A501632D742D812FEB81FC81099507
:10164000362E472E5394182FA8CFB0E0A0E0EBE23F
:10165000FBE00C94292E7C01C0914B018EE0C89FC9
:10166000C02D11241EE01C0F153408F014E40E9454
:10167000390A882319F0133208F012E20E94390A5D
:10168000811103C0C23208F4C2E220912C0531E07E
:10169000230F08F42FEF30E050E040E06FEF7FEFD2
:1016A00080E090E00E948A2E6901D0E001E02C2FBA
:1016B000C11740F0812F0E94620ACDB7DEB7E8E083
:1016C0000C94452EFE01EF54FD4F808190914C010A
:1016D000892309F14091FA044150042E000C550B66
:1016E00047FF1BC0C60160912C05600F08F46FEF27
:1016F0000E949B09AC016091290570912A05809197
:101700002B05F70109950E94A509462F282F672F61
:10171000CE010E943C082196CACFFA01E650FB4F49
:10172000818982130AC0FA01EE0FFF1FE650FB4FBA
:10173000818D928D8C159D05B0F241505109D0CF0D
:10174000B0E0A0E0E6EAFBE00C94272E6C01C0912B
:101750004B018EE0C89FC02D11241EE01C0F1534D4
:1017600008F014E40E94390A882319F0133208F0B3
:1017700012E20E94390A811103C0C23208F4C2E2A7
:1017800060912C05669566958091F6049091F7041A
:101790000E949B09F82E80E48F0D0E94240990E896
:1017A000B92EB80E8F2D0E94240920E8A22EA80E73
:1017B000D0E0C11740F0812F0E94620ACDB7DEB79A
:1017C000EAE00C94432EFE01EF54FD4F808190918E
:1017D0004C018923A1F06091290570912A0580911F
:1017E0002B05EF2C0C2F2A2D4B2DF60109950E946D
:1017F000A509462F282F672FCE010E943C0821966D
:10180000D8CFB0E0A0E0E7E0FCE00C94232E5C0130
:10181000C0914B018EE0C89FC02D11241EE01C0F0B
:10182000153408F014E40E94390A882319F01332A1
:1018300008F012E20E94390A811103C0C23208F492
:10184000C2E260912C0566958091F6049091F704B0
:101850000E949B09F82ED0E0CE01880F991F9C01B1
:1018600023513E4F6901C11740F0812F0E94620A47
:10187000CDB7DEB7EEE00C943F2EFE01EF54FD4FE6
:10188000808190914C01892379F1F60184AD282F54
:101890002057330B490185ADE82FE052FF0B3F0184
:1018A000889C9001899C300D300D1124EE9FC00161
:1018B000EF9F900D900D1124820F931F0E944309FA
:1018C000082F6091290570912A0580912B05EF2C36
:1018D0009301A401F50109950E94A509462F282F1F
:1018E000672FCE010E943C08F2E0CF0ED11C21965A
:1018F000BACFB0E0A0E0EFE7FCE00C94282E6C013A
:10190000C0914B018EE0C89FC02D11241EE01C0F1A
:10191000153408F014E40E94390A882319F01332B0
:1019200008F012E20E94390A811103C0C23208F4A1
:10193000C2E260912C0566958091F6049091F704BF
:101940000E949B09B82ED0E0CE01880F991F9C0100
:1019500023513E4F7901C11740F0812F0E94620A46
:10196000CDB7DEB7E9E00C94442EFE01EF54FD4FF5
:10197000808190914C018923C1F0F70125AD20525F
:10198000330B44AD4057550B6091290570912A05E2
:1019900080912B050B2DF60109950E94A509462F74
:1019A000282F672FCE010E943C08F2E0EF0EF11CB9
:1019B0002196D1CFEF92FF920F931F93CF93DF9396
:1019C0007C01C0914B018EE0C89FC02D11241EE008
:1019D0001C0F153408F014E40E94390A882319F00A
:1019E000133208F012E20E94390A811103C0C23298
:1019F00008F4C2E260912C056695669521E0620FBD
:101A000008F46FEF8091F6049091F7040E949B090F
:101A1000082FD0E0C11740F0812F0E94620ACDB795
:101A2000DEB7E6E00C94472EFE01EF54FD4F8081B7
:101A300090914C01892391F06091290570912A05BC
:101A400080912B05202F4C2FF70109950E94A509A5
:101A5000462F282F672FCE010E943C082196DACF0F
:101A6000B0E0A0E0E6E3FDE00C94272E182F809173
:101A70004901811323C0909128059370209148015A
:101A800030E081E09217130609F480E081708093C2
:101A90004D0180912D0590914C01981739F080935C
:101AA0004C0140E060E080E00E943F08113288F481
:101AB000E12FF0E0E55CF04D0C94A92E81E0E6CF3B
:101AC00080914D01882389F140E060E080E00E9430
:101AD0003F0880E02AC0C0914B018EE0C89FC02D16
:101AE00011240EE00C0F053408F004E40E94390ABA
:101AF000882319F0033208F002E20E94390A8111AA
:101B000003C0C23208F4C2E26091290570912A052F
:101B100080912B050E94A509F62EE72ED82ED0E045
:101B2000C017D8F0802F0E94620A90914B019F5FEE
:101B300090934B0181110CC082E080934E01809103
:101B40004D01811105C0111103C083E080934E0146
:101B5000CDB7DEB7EAE00C94432EFE01EF54FD4F03
:101B6000808190914C01892331F02D2D4F2D6E2DC8
:101B7000CE010E943C082196D3CFC0914B018EE04C
:101B8000C89FC02D11240EE00C0F053408F004E4AA
:101B90000E94390A882319F0033208F002E20E94F9
:101BA000390A811103C0C23208F4C2E2E0902A056A
:101BB000F0902B05D09129056D2F7E2D8F2D0E9441
:101BC000A509D62EC72EB82E60912C056D0F7E2D3F
:101BD0008F2D0E94A509F62EE72EA82ED0E0C01763
:101BE00008F0A0CFFE01EF54FD4F908180914C0191
:101BF000892359F02A2D4F2D6E2D90FD03C02B2DDA
:101C00004D2D6C2DCE010E943C082196E8CFC0914D
:101C10004B018EE0C89FC02D11240EE00C0F05343F
:101C200008F004E40E94390A882319F0033208F00E
:101C300002E20E94390A811103C0C23208F4C2E2F2
:101C4000E0902A05D0902B0520912C0550E4F52E2C
:101C50003F2D329F312D1124F32ED0E0C01708F014
:101C600061CFFE01EF54FD4F808190914C0189239B
:101C7000B9F0FE01EE0FFF1FE351FE4F85AD8295D7
:101C80008F70609129058F9D600D11247E2D8D2D03
:101C90000E94A509462F282F672FCE010E943C08DD
:101CA0002196DCCFC0914B018EE0C89FC02D11243E
:101CB0000EE00C0F053408F004E40E94390A882372
:101CC00019F0033208F002E20E94390A811103C0C0
:101CD000C23208F4C2E2E0902A05D0902B05209190
:101CE0002C0530E4F32E3F2D329F312D1124F32E9D
:101CF000D0E0C01708F016CFFE01EF54FD4F8081F1
:101D000090914C018923D9F0FE01EE0FFF1FE351A2
:101D1000FE4F64ADF69EB001112495E07595679570
:101D20009A95E1F780912905680F7E2D8D2D0E94EF
:101D3000A509462F282F672FCE010E943C08219627
:101D4000D8CFC0914B018EE0C89FC02D11240EE06A
:101D50000C0F053408F004E40E94390A882319F0B6
:101D6000033208F002E20E94390A811103C0C23234
:101D700008F4C2E2F0902905D0912A05E0902B05E5
:101D800060912C056695669566958091F604909114
:101D9000F7040E949B090E942409805887FD8195C1
:101DA000880F282F3E2D239F212D1124822F6F2D48
:101DB0007D2F0E94A509F62EE72ED82ED0E0C01761
:101DC00008F0B0CEFE01EF54FD4F808190914C01A0
:101DD000892331F02D2D4F2D6E2DCE010E943C0810
:101DE0002196EDCF83E198E00E94DA0C9ECE89EE39
:101DF00097E0FACF86E099E00E94790C96CE87EEC4
:101E000098E0FACF8CEC98E00E94010C8ECE80EB2B
:101E100098E0FACF87EE97E0E7CF8EED97E0E4CF3A
:101E200085ED97E0E1CF8CEB97E0DECF8EEA97E08F
:101E3000EBCF83E799E0E0CF8FE998E0DDCF8BE847
:101E400098E0E2CF81E897E00E94A00B6ECE83E598
:101E500097E0FACF8CE197E0F7CF85E197E00E9419
:101E6000250B63CE8FE097E0FACF8091FA0421E052
:101E7000382F321B08F430E0832F66EF76E00E94A3
:101E8000720A53CE66EF76E080E0F9CF8091FA04D3
:101E900021E0382F321B08F430E0832F6BEB76E023
:101EA000EECF6BEB76E0F0CF8091FA0421E0382F93
:101EB000321B08F430E0832F69E876E0E0CF69E870
:101EC00076E0E2CF8091FA0421E0382F321B08F44B
:101ED00030E0832F61E776E0D2CF61E776E0D4CFC0
:101EE000F894E82FE295EF70F0E031A1282F2F70E1
:101EF00081E090E001C0880F2A95EAF7982F90952D
:101F0000932391A392A1892B82A378940895909111
:101F1000B00392FF06C0282F28712830F9F4877F7C
:101F2000846093FF06C0282F28712831F1F4877E42
:101F300084612091B10320FF06C0382F38713830FA
:101F4000D9F4877F816021FF06C0282F28712831AE
:101F5000D1F4877E816194FD877E0895282F2471B6
:101F60002430F9F68B7F8860DCCF282F2471243150
:101F700001F78B7E8861DDCF382F3171313019F751
:101F80008E7F8860E0CF282F2171213121F78E7E4E
:101F90008861E1CF972F7A30B8F46630A8F48230A8
:101FA00098F470E026E0929F600D711D1124FB01F2
:101FB0009CE3899FE00DF11D1124EE0FFF1FE753F5
:101FC000FE4F85919491089580E090E00895CF931D
:101FD000DF93EC0182389105B9F108F041C08133FB
:101FE000910509F49FC050F58932910509F48FC01D
:101FF0008A9709F49EC0C11520E5D20708F0BDC03C
:10200000C11530E4D30708F00AC1C03ED10508F07D
:10201000A5C0CD3CD10508F000C1C83AD10508F0F3
:102020008FC0C53AD10508F0F0C0C130D10539F1F3
:10203000209729F1C430D10510F546C085339105AC
:1020400009F460C0C997B9F68091B003837009F0B4
:1020500044C18091B10383FF12C0C9E2D0E00FC038
:10206000833E9105A1F178F4803E910509F1823E0D
:10207000910509F0C0CF8091B00382FD21C0CE014F
:10208000DF91CF910895863E910561F1873E9105DC
:1020900071F1843E910509F0AECF8091B10381FFCB
:1020A000EECF8091B003C7EED0E084FD0DC0E7CF46
:1020B0008091B00380FD33C09091B10390FFDFCFDA
:1020C000C3EED0E084FFDBCFD0E0C0E0D8CF80917A
:1020D000B00382FDFFC09091B10390FDFEC084FF6C
:1020E000CECFF2CF8091B00383FDDDCFC8CF8091FA
:1020F000B00383FDF5C09091B10391FFF0CFC4EE22
:10210000D0E0BDCF8091B00385FFB9CFA6CF80913D
:10211000B00385FDE8C08091B10383FFB0CFC9E370
:10212000D0E0ADCF8091B00386FFA9CFCAE2D0E066
:10213000A6CF8091B00386FFA2CFC1E3D0E09FCFAE
:10214000C13CD10508F6C85AD0E0CC0FDD1FCE56F1
:10215000DE4F0990D881C02DD46491CFC11540E2E3
:10216000D40708F0AAC0C11581E0D80708F087CFCE
:10217000C83ED10508F483CFA7CFC03622E5D207E9
:1021800018F5C03432E5D30708F053C0C03242E539
:10219000D40708F047C0C11582E5D80708F47FC00E
:1021A0002C2F2695269540E2249F900111248C2FF8
:1021B0008370C1E0D0E002C0CC0FDD1F8A95E2F74A
:1021C000C22BD32BDD685BCFC03A22E5D20760F487
:1021D000C03832E5D30708F441C0CF71D0E0DC2F1E
:1021E000CC27C46FD06A4BCFC03C42E5D40708F47B
:1021F0004AC0C03E82E5D80708F066CFDC2FCC2766
:10220000CC27DF71C06FD06A3ACFC55AD0E0C15732
:10221000DE4FC881D0E0D06432CFD06530CFDF70E0
:10222000D06A2DCFCF71D0E0DC2FCC27C16FD06A20
:1022300026CF2C2F26952695277080E2289F900187
:1022400011248C2F8370C1E0D0E002C0CC0FDD1FC1
:102250008A95E2F7C22BD32BDC6811CF2C2F269561
:102260002695277040E2249F900111248C2F8370C3
:10227000C1E0D0E002C0CC0FDD1F8A95E2F7C22B8F
:10228000D32BDA68FCCE8C2F8F710E94870FC82F5A
:10229000D0E0DC2FCC27CC27DF71D062F0CE8C2FA2
:1022A0008F710E94870F35E0D695C7953A95E1F773
:1022B000CF709C2FEC01D069E2CE8D2F8F710E94E0
:1022C000870F90E0982F882788279F719C012C2BDF
:1022D000E901E3CFC2EED0E0D2CEC0EED0E0CFCE67
:1022E000C6EED0E0CCCEC5E3D0E0C9CE0E94CC058E
:1022F000089580916403811110926403089580957C
:1023000090916303982390936303089580915803F9
:1023100090912703981301C008958F5F8770FACFBB
:10232000B0E0A0E0E6E9F1E10C94282E7C010091F8
:10233000AE031091AF038091650390916603082B63
:10234000192BCFE0D0E0CC24C394D12CBC2EC601F5
:102350000C2E02C0880F991F0A94E2F78023912364
:10236000892B49F4219790F7B12C8B2DCDB7DEB78F
:10237000E9E00C94442EB7018C2F0E94CA0F0E94F2
:10238000E70F019779F3F1CFCF93DF93EC010E9430
:102390009011BE010E94CA0F0E94E70FDF91CF91FA
:1023A00008959A3078F5863068F5E82FF0E086E0F9
:1023B000989FE00DF11D11249E2F977083E0F695F4
:1023C000E7958A95E1F7EE0FFF1FEE0FFF1FEF5F16
:1023D000FC4F50E040E080E0219130E0092E02C047
:1023E000369527950A94E2F721703327042E01C011
:1023F000220F0A94EAF7822B4F5F5F4F443051055A
:1024000059F7089580E008959A3098F5863088F558
:10241000E82FF0E086E0989FE00DF11D11248E2F4B
:10242000877041E001C0440F8A95EAF783E0F69592
:10243000E7958A95E1F7EE0FFF1FEE0FFF1FEF5FA5
:10244000FC4F30E020E070E05191DF011197CB01AB
:10245000022E02C0969587950A94E2F781708195C5
:102460008527842385278C932F5F3F4F24303105A8
:1024700059F708959093AF038093AE03089521E038
:1024800030E002C0220F331F8A95E2F72095309585
:102490008091AE039091AF03822393230E943A125E
:1024A0000895909159038095892380935903282F8B
:1024B000277091F4282F082E000C330B9217130667
:1024C00059F09091B10392FF07C085958595859548
:1024D0000E943F1210925903089521E030E002C09B
:1024E000220F331F8A95E2F78091AE039091AF03DC
:1024F000822B932B0E943A12089590936603809347
:1025000065030895FC0183819481892B29F08081E2
:10251000918189238F3F51F480E00895843FE1F752
:1025200017C0883EA8F0813FB9F712C08081918121
:102530000E94C41192959F70963099F358F4925F5F
:102540009F70923048F7803F19F040F7883E20F79F
:1025500081E008959A5FF4CF829590E09C01220F6C
:10256000331F220F331F2C7C959587959595879562
:102570008373282B30E0C901880F991F8A7A35951B
:1025800027952575822B089590912805937031F138
:10259000811125C094609093280510924E0180917E
:1025A00026058160809326058091270580FF16C04F
:1025B00080912805869586951F928F938DE591E0F1
:1025C0009F938F9384ED96E09F938F930E94560480
:1025D0000F900F900F900F900F900F9008958132F1
:1025E00010F09068D8CF880F880F982BD4CF8091A7
:1025F000280586958695815009F480E20E94C412D0
:10260000089580912805869586958F5F813208F020
:1026100081E00E94C412089520912805237059F189
:102620008093290560932A05493708F048E74093CD
:102630002B05209126052160209326052091270552
:1026400020FF19C01F924F931F926F9399279F935A
:102650008F938DE591E09F938F9381EB96E09F930D
:102660008F930E9456048DB79EB70A960FB6F894C2
:102670009EBF0FBE8DBF0895E8E2F5E0438120E1E3
:10268000421B08F440E08181628190E00E940C13BB
:102690000895E8E2F5E0438120E1420F08F44FEFAE
:1026A0008181628190E00E940C130895E8E2F5E0D8
:1026B000628120E1621B08F460E08181438190E047
:1026C0000E940C130895E8E2F5E0628120E1620FB8
:1026D00008F46FEF8181438190E00E940C1308950C
:1026E000E8E2F5E08181438162818850990B0E9484
:1026F0000C130895E8E2F5E0818190E04381628166
:1027000008960E940C13089580932C05909126053D
:102710009160909326059091270590FF12C01F921B
:102720008F938DE591E09F938F9382E996E09F933D
:102730008F930E9456040F900F900F900F900F9060
:102740000F90089580912C0520E1382F321B08F45A
:1027500030E0832F0E948413089580912C0520E19E
:10276000382F320F08F43FEF832F0E94841308950F
:102770009FB7F8941092DD049FBF9091EC049430C1
:1027800009F048C02091E9002F703091EC00932FA0
:10279000917030FD90E8922B23E02093E900209186
:1027A000EB0020FF34C02091EE0027FF30C02091C5
:1027B000DC04222321F02091E80025FF28C010929C
:1027C000DC0426E03091E80035FF14C08093F1006E
:1027D0008091E80085FD27C08091E80080FFFCCF54
:1027E0008091E8008E778093E8009F709093E900D5
:1027F00080E008953091EC04343049F43091EB00DE
:1028000035FD05C0215041F481E08093DC049F70C8
:102810009093E9008FEF0895EFE9FFE03197F1F72A
:1028200000C00000CFCF8FB7F89421E02093DD04E3
:102830008FBFDBCF0F931F93CF93DF938B01EA0101
:102840009091EC04943061F58093E9008FEF9091C2
:10285000E800815095FD06C095ED9A95F1F70000CE
:102860008111F5CF8091E80085FF1AC00E947E0497
:10287000811111C08091E80085FD06C08091E800BB
:102880008E778093E800F2CFF80181918F018093D9
:10289000F100219779F78091E8008E778093E80026
:1028A000DF91CF911F910F91089543E050E0BC015B
:1028B00082E00E941A140895CF93DF93EC0148E060
:1028C00050E0BC0181E00E941A1488E0FE01A2EEF3
:1028D000B4E001900D928A95E1F7DF91CF910895D0
:1028E0006E9A3EB13F7B2EB120644FB7F89485E0DD
:1028F00094E0FC015191CF0168E02EB9000000C0C6
:1029000057FF3EB9550F000000C000C000C03EB9DF
:1029100000C06A9591F7F4E0813D9F0751F74FBFE2
:102920008FE594E00197F1F700C000000895B0E052
:10293000A0E0EDE9F4E10C94242E7C015B01842EEF
:10294000752E69018091720301E010E08A3010F465
:102950000AE010E0C1E0D0E0B501C701F601099539
:10296000982E811114C021960C171D07B4F4809184
:10297000270580FF0CC07F928F9282E093E09F93A7
:102980008F930E9456040F900F900F900F90892DF7
:10299000CDB7DEB7EDE00C94402ECC9F9001CD9FDB
:1029A000300D300D112490E080E045E34A95F1F7B9
:1029B0000000019628173907C1F7CECF8091710327
:1029C000811110C08091D80080618093D8008AE185
:1029D0008A95F1F700C08091D90080FF0AC081E09C
:1029E0008093710381E090917103913009F080E050
:1029F000089582E0809371030E945F041092EC04BA
:102A0000F1CF0E94DE14882359F0E091D304F091B5
:102A1000D404309729F00190F081E02D09950895B4
:102A200080E008950F931F930E94DE14882329F0FD
:102A30000E94CC051F910F9108950E94CC05009132
:102A40009C0310919D0320919E0330919F03600F82
:102A5000711F821F931FEECFCF92DF92EF92FF92F2
:102A60006B017C010E94DE148823A1F02FB7F8943B
:102A70006091D8047091D9048091DA049091DB04BC
:102A80002FBF6C197D098E099F09FF90EF90DF9091
:102A9000CF9008950E941215F4CF4F925F926F92DB
:102AA0007F928F929F92AF92BF92CF92DF92EF92DE
:102AB000FF92609100047091010480910204909152
:102AC00003040E942C156B017C010E9412154B011E
:102AD0005C018092000490920104A0920204B092E2
:102AE0000304A091D703E7EDF3E08A2F90E04FEFC6
:102AF0005FEF60E070E04C195D096E097F09A91372
:102B000028C08093D70380910404811135C090912F
:102B10002805892F837019F0892F869586959091C5
:102B20004E01913009F441C0992341F1923009F4EA
:102B30003FC0933009F43FC0FF90EF90DF90CF90FB
:102B4000BF90AF909F908F907F906F905F904F90CD
:102B50000895218D328D2901712C612C4415550564
:102B60006605770520F481509F5F3296C8CF2C0D03
:102B70003D1D328F218FF8CF80E0D1CF10924B01D5
:102B80008092F6049092F704A092F804B092F904AF
:102B900089E2E7EDF3E0AAEFB4E001900D928A95A7
:102BA000E1F781E080934E01C7CF0E94300DC4CF82
:102BB0000E946406C1CF80912605882351F046E02B
:102BC00050E06CE170E088E295E00E94EF2E1092F8
:102BD00026056091F6047091F7048091F8049091B5
:102BE000F9040E942C15603171058105910508F4E6
:102BF000A3CF10924E01A0CF8091270580FF08C07F
:102C00008FEB95E09F938F930E9456040F900F9047
:102C100085E38093280580914F0190915001A09108
:102C200051018093290590932A05A0932B058FE7E6
:102C300080932C058FEF80932D0546E050E06CE1EA
:102C400070E088E295E00E94EF2E1092260508952C
:102C5000AFE0B0E0EEE2F6E10C94242E8E010F5FBF
:102C60001F4F8AE0D8011D928A95E9F786E3C82EA6
:102C700081E0D82EF12CE12CAA24A394B12C26E3D8
:102C8000822E21E0922EF60181916F018F3F09F48F
:102C900042C0F894E82FE295EF70F0E021A18F7028
:102CA000A50102C0440F551F8A95E2F7CA01922F71
:102CB000982B91A392A18095892382A3789400C038
:102CC000E0E3F1E0712C31E021912F3F09F46BC07A
:102CD000A22FA295AF70B0E090968C9190E02F70EB
:102CE00002C0959587952A95E2F780FD5CC0832FF9
:102CF000782A330F8E169F0639F7F60131978081B7
:102D00008F3F11F00E94700F50EA5A95F1F7F801C9
:102D1000EE0DFF1D70828FEFE81AF80A95E0E916B4
:102D2000F10409F0B0CF4AE050E0B80182EA93E044
:102D30000E94232F009741F02AE0F801A2EAB3E0B5
:102D400001900D922A95E1F70091AD03892B69F16D
:102D500081E0809369030E94D80590936803809373
:102D6000670380916703909168030E94BD050597F2
:102D700000F110E00C541C4F45E050E062EA73E0B3
:102D8000C8010E94232FC12C892B51F085E0E2EA73
:102D9000F3E0D80101900D928A95E1F7CC24C39419
:102DA0001092690307C080E0A3CF8091690381116D
:102DB000D8CFC12C0E94DE14D82EE091AD03DE01E5
:102DC0001B967D01882309F499C085E01D928A95A0
:102DD000E9F70E2F10E00C541C4FB0907203B9E0CD
:102DE000BB1508F447C020E13EE144E651E0B701DD
:102DF000C8010E949714882309F45EC027EB3DE1C7
:102E000041E751E0B701C8010E949714882309F4F3
:102E100053C02CEB3CE149E751E0B701C8010E94E7
:102E20009714882309F448C02AE53CE144E851E0BE
:102E3000B701C8010E9497148823F1F1F9E0FB154E
:102E400008F453C0109272038091AC0390E045E007
:102E500050E0B7018C549C4F0E94232F21E0209317
:102E60007003892BE1F4D12C8D2D8C292F96EDE068
:102E70000C94402E80916A0390916B030E94BD05D3
:102E8000843F914008F0AFCF80917003882359F3BD
:102E900085E0D7011D928A95E9F710927003A09101
:102EA000AC03B0E0AC54BC4F85E0FE013B96019012
:102EB0000D928A95E1F7D8CF809172038F3F31F060
:102EC0008F5F809372038A3008F4BECF0E94D805CA
:102ED00090936B0380936A038091270580FFD4CF82
:102EE0008CEC92E00E94BD03CFCF8091270580FF3C
:102EF000A9CF89EB92E00E94BD03A4CFF0E0EC548F
:102F0000FC4F85E0A5E8B3E001900D928A95E1F7CA
:102F100065E070E085E893E00E94480680938403B2
:102F20004091D10350E06091D00370E068537C4F32
:102F3000C7010E94302F8B859C8590938C038093D2
:102F40008B0362E070E0C7010E94480680938A0309
:102F500080908D0390908E03A0908F03B09090038B
:102F600080916C0390916D03A0916E03B0916F03FB
:102F700088169906AA06BB06D1F080926C0390923F
:102F80006D03A0926E03B0926F030E94DE14811154
:102F90000EC00E94CC05861A970AA80AB90A809228
:102FA0009C0390929D03A0929E03B0929F0386E0A3
:102FB000E1E9F3E0A8E2B5E001900D928A95E1F72E
:102FC00010919703112349F080910404811105C0E9
:102FD0000E94300D80E00E9464061093040444CFE8
:102FE0000F931F93CF93DF938091630390916203BC
:102FF000892B8093F80290916403992391F0892B97
:103000008093F80220E08AEF92E0FC013191CF0139
:1030100031112F5FF3E080309F07B9F721110E9433
:10302000791148E050E06AE573E088EF92E00E9491
:10303000232F892B09F441C088E0E8EFF2E0AAE5EC
:10304000B3E001900D928A95E1F7E091D304F091FD
:10305000D404309791F10280F381E02D88EF92E063
:1030600009958091270582FF28C080FF04C087EB67
:1030700091E00E94BD03D0E0C0E001EB11E080913F
:10308000270580FF0EC0FE01E850FD4F80811F9292
:103090008F931F930F930E9456040F900F900F90E1
:1030A0000F902196C830D10551F78091270580FFF8
:1030B00004C08FEA91E00E94BD03DF91CF911F9180
:1030C0000F91089510926303EAEFF2E086E0DF01CA
:1030D0001D928A95E9F790E080E00E94230690E037
:1030E00080E00E94FE05109262030E94F01708958E
:1030F000AAE2B0E0EEE7F8E10C942E2E8EEE94E01A
:103100002091F100DC012D93CD01B4E0863F9B07B7
:10311000B9F78091EF04833009F470C0B8F48130BE
:1031200009F447C0823009F4B1C08091E80083FF00
:1031300084C28091EE049091EF049A3008F07DC231
:10314000E92FF0E0E45AF04D0C94A92E8A3009F4EE
:103150008CC08B3009F46FC0893039F78091EE0450
:10316000813219F78091F2049091F3040297E8F606
:103170008091E800877F8093E8008091E80082FFDB
:1031800038C09091F3008091F200029731F4809161
:10319000F100813011F0863021F48091F1008093AC
:1031A000E1048091E8008B778093E8000E94AF04EF
:1031B000BCCF8091EE04813A09F0B7CF8091E8004E
:1031C000877F8093E8008091F2049091F304892B2B
:1031D00061F468E082EE94E070E00E945B0580910B
:1031E000E8008B778093E800A0CF60E090E080E07B
:1031F000F3CF8091EC048111C0CF97CF8091EE0482
:10320000813A09F092CF8091F2049091F304892BD6
:1032100009F08BCF8091E800877F8093E800809150
:10322000E80080FFFCCF80914A018093F1008091FB
:10323000E8008E77B9CF8091EE04813209F075CF26
:103240008091F2049091F304892B09F06ECF809164
:10325000E800877F8093E8000E94AF048091F0042B
:1032600080934A010E94621860CF8091EE048132FF
:1032700009F05BCF8091E800877F8093E8000E948F
:10328000AF048091F1048093E0044FCF8091EE046D
:10329000813A09F04ACF8091E800877F8093E80067
:1032A0008091E80080FFFCCF8091E004BECF8038A1
:1032B00099F0823809F0C1C18091F2048F70873093
:1032C00008F0BBC18093E9008091EB0085FB882763
:1032D00080F91092E90006C08091EA049091EB0415
:1032E000911182609091E800977F9093E80080931D
:1032F000F1001092F1008091E8008E779AC1882346
:1033000009F488C1823009F098C18091F0048111DC
:103310008BC18091F2048F702FEF280F263008F0B8
:103320008CC18093E9002091EB0020FF7DC1933098
:1033300031F48091EB0080628093EB0075C1909135
:10334000EB0090619093EB0021E030E001C0220F90
:103350008A95EAF72093EA001092EA008091EB0048
:103360008860EACF811169C11091F0041F778091C4
:10337000E3008078812B8093E3008091E800877FD1
:103380008093E8000E94AF048091E80080FFFCCFAA
:103390008091E30080688093E30082E0111183E074
:1033A0008093EC044AC18058823008F046C12091D5
:1033B000F0043091F1042C3DE3E03E07A1F583E0F9
:1033C0008A838AE289834FB7F894DE01139620E05E
:1033D0003EE051E2E32FF0E050935700E49120FFEC
:1033E00003C0E295EF703F5FEF708E2F90E0EA3000
:1033F000C0F0C7968D939D932F5F243159F74FBF2F
:103400008091E800877F8093E8006AE270E0CE0157
:1034100001960E945B058091E8008B778093E8001D
:103420000CC1C096E7CF8091F2049091F304432F32
:1034300055274330510509F44AC078F5413051050C
:1034400009F47AC08BE590E0E7EFF5E042305105F2
:1034500009F0F3C02091E800277F2093E800209135
:10346000F4043091F5048217930708F49C0140E0BE
:103470002115310509F065C0411163C08091E80054
:1034800082FDC9CF8091EC04882329F2853019F29E
:103490008091E80083FFF2CFBECF4132510509F49D
:1034A0003CC04232510509F0C8C08330910508F094
:1034B000C4C0FC01EE0FFF1FEF51FE4F0190F081E1
:1034C000E02D82529E4FDC018C9190E01AC0332790
:1034D00021303105D1F02115310561F0223031055F
:1034E00009F0ABC0E4E6F6E0E4918E2F90E0E4E66C
:1034F000F6E007C0EEE8F6E0E4918E2F90E0EEE80B
:10350000F6E0009709F499C0A5CFEEE7F6E0E49164
:103510008E2F90E0EEE7F6E0F4CF8330910508F0CF
:103520008CC0880F991FFC01E951FE4F0190F0817A
:10353000E02D89E090E08ECF82E190E0E2E5F6E0D8
:1035400089CF8091EC04882309F465CF853009F494
:1035500062CF8091E80083FD5ECF8091E80082FD1C
:103560008DCF8091E80080FF83CF9091F300809110
:10357000F2002115310519F08830910550F041E035
:10358000089709F040E08091E8008E778093E8008A
:103590006FCF44914093F10031962150310901964B
:1035A000E8CF803809F049C08091E800877F809398
:1035B000E8008091ED048093F1009DCE81113DC023
:1035C0001091F0041230C8F58091E800877F809355
:1035D000E8001093ED040E94AF04112311F084E081
:1035E00005C08091E30087FDFACF81E08093EC0471
:1035F00042E061EC81E00E94CE0442E261EC82E0B4
:103600000E94CE0442E261EC83E00E94CE048091ED
:10361000EC0413C08091F004813079F481E09330A0
:1036200009F080E08093EB041092E9008091E800BB
:10363000877F8093E8000E94AF048091E80083FFB9
:103640000AC08091E800877F8093E8008091EB00BA
:1036500080628093EB00AA96E3E00C944A2E0E94CD
:1036600062182FEF84E39CE0215080409040E1F706
:1036700000C0000088E19CE00FB6F894A895809304
:1036800060000FBE90936000FFCF882321F00E945E
:103690007F110E94F0170895882339F090916303F9
:1036A000982B909363030E94F0170895882391F15B
:1036B0009CEF980F913A80F4EAEFF2E020E033E0DB
:1036C0009191891303C0DF0111971C922E173F07B8
:1036D000B9F70E94F017089590E2980F983050F4CF
:1036E000877091E001C0990F8A95EAF7892F0E94AF
:1036F0007F11EFCF9BE5980F933028F490E080E0A6
:103700000E9423060895885A893120F490E080E0D1
:103710000E94FE050895CF93C82F8823B1F08CEF47
:103720008C0F813A00F5EAEFF2E080E093E0DF01F0
:103730002D91C21761F08A179B07D1F76C2F88EF84
:1037400092E00E94E4050E94F017CF910895219124
:10375000C21303C0DF0111971C928E179F07B9F7A0
:103760000E94F017EBCF80E28C0F883068F4C770AE
:1037700021E030E001C0220FCA95EAF7809163038F
:10378000822B80936303DFCFEBE5EC0FE33040F453
:10379000F0E0E157FE4F808190E00E942306D5CFF4
:1037A000C85AC93190F6EC2FF0E0EE0FFF1FEE562D
:1037B000FE4F808191810E94FE05C7CFCF93C82F15
:1037C0000E948B1B8C2F0E94561BCF9108950F9344
:1037D0001F93CF93DF93C62FD42F022FFC0182813A
:1037E0008823A9F0609325050E94D80590932405AD
:1037F00080932305C77081E001C0880FCA95EAF75E
:103800000E944C1BDF91CF911F910F9108958091E1
:103810002505681332C080912305909124050E94EC
:10382000BD05883C910548F510E21D0FCD17B9F094
:1038300080E28C0F883040F4C77081E001C0880FAF
:10384000CA95EAF70E94451B183048F481E09D2F85
:10385000977001C0880F9A95EAF70E944C1B802F41
:103860000E94DE1B183070F6D77081E001C0880F0F
:10387000DA95EAF70E94451BC5CFC77081E001C009
:10388000880FCA95EAF7F6CF811108C089EA61115D
:1038900001C08AEA0E94DE1B80E00895813029F48D
:1038A0008EE46111F7CF8BE4F5CF823079F383306A
:1038B00099F7F6CFA7E0B0E0E0E6FCE10C942D2EFE
:1038C00086E0E8E2F5E0DE01119601900D928A951E
:1038D000E1F7809104048F8347E050E061E973E0F1
:1038E000CE0101960E94232F009198031091990315
:1038F00020919A0330919B03EFB7F8944091D8043C
:103900005091D9046091DA047091DB04EFBF401B41
:10391000510B620B730B443651056105710518F4A8
:1039200011E0892B21F18091290190912A018C5776
:103930009C4F4091280150E04830510510F047E07D
:1039400050E0BE016F5F7F4F0E94302F85E090E016
:103950000E94A92D182F882351F00E94CC05609356
:1039600098037093990380939A0390939B03812FFC
:103970002796E4E00C94492EA4E0B0E0E2ECFCE1F0
:103980000C942E2E4091800350918103609182030C
:10399000709183032FB7F8948091D8049091D90443
:1039A000A091DA04B091DB042FBF841B950BA60B0A
:1039B000B70B11E084369105A105B10570F10E94A5
:1039C00012156E5F7F4F8F4F9F4F69837A838B8372
:1039D0009C8380912101909122018C579C4F4091B2
:1039E000200150E04530510510F044E050E0BE01A8
:1039F0006F5F7F4F0E94302F84E090E00E94A92DDE
:103A0000182F882351F00E94CC0560938003709397
:103A100081038093820390938303812F2496E3E0B4
:103A20000C944A2E4F925F927F928F929F92AF9208
:103A3000BF92CF92DF92EF92FF920F931F93CF939B
:103A4000DF930F92CDB7DEB7C62E4A015901482E3B
:103A5000880F5508C2010E94A92D782E882309F4E9
:103A600080C0C20133E0880F991F3A95E1F7FC014D
:103A7000E050FF4F438150E04115510511F041E006
:103A800050E080509F4FFC01648175816C577C4FE2
:103A9000CE0101960E94302FF40140815181628154
:103AA00073812FB7F8948091D8049091D904A09194
:103AB000DA04B091DB042FBF841B950BA60BB70B68
:103AC00084369105A105B10540F4B701C8010E94F3
:103AD00048069981891709F444C00C2C000CDD08B4
:103AE000C6010E94A92D782E811113C0712C872D3B
:103AF0000F90DF91CF911F910F91FF90EF90DF908A
:103B0000CF90BF90AF909F908F907F905F904F909D
:103B10000895C60123E0880F991F2A95E1F7FC015B
:103B2000E050FF4F438150E0E416F50608F4A7018A
:103B300080509F4FFC01648175816C577C4FC5019B
:103B40000E94302FB701C8010E944806998189134D
:103B5000CDCF0E94CC05F40160837183828393836F
:103B6000C6CFA701B801C5010E94302FC0CFA2E087
:103B7000B0E0EDEBFDE10C94282E82E0E82EF12C74
:103B80000BE813E09E012F5F3F4F4CE753E063E0EB
:103B900082E00E94121DC82E882339F100E080E0E7
:103BA0001DC0D090A103D00E2D2D30E0A9014853A7
:103BB0005C4F7A01E1E0F0E0EC0FFD1FE00FF11D3A
:103BC0001081FA019081191BB12E1B149CF0912FCA
:103BD00017FD90E0191B111118C00F5F9091A00301
:103BE0000917F8F281110E9476118C2D2296E9E0D6
:103BF0000C94442EBA94F70180818F5F808360E03B
:103C00008D2D0E94441C8C2DE0CF1F5FF701808119
:103C10008150808361E08D2D0E94441C8C2DDBCF70
:103C2000A5E0B0E0E6E1FEE10C94292E6B0185E011
:103C3000E82EF12C05E813E09E012F5F3F4F48E787
:103C400053E061E080E00E94121D882349F095E076
:103C5000FE013196A3E7B3E001900D929A95E1F74A
:103C600095E0E3E7F3E0D60101900D929A95E1F734
:103C70002596E8E00C94452ECF93C82F8091B10390
:103C800082FB992790F99C17F9F0C0FB82F9809389
:103C9000B1036091B0037091B10384E090E00E94A1
:103CA0001D2F82E00E9451128091270580FF0CC0D9
:103CB0001F92CF938AE991E09F938F930E945604BD
:103CC0000F900F900F900F90CF91089567EE7EEFB9
:103CD00090E080E00E941D2F60E082E090E00E9472
:103CE000FF2E60E083E090E00E94FF2E10926603BA
:103CF0001092650360E074E184E090E00E941D2F63
:103D000060E086E090E00E94FF2E6FEF87E090E099
:103D10000E94FF2E40E050E0BA0188E090E00E944F
:103D2000112F60E08DE090E00E94FF2E40E050E017
:103D3000BA0188E190E00E94112F60E087E190E0F5
:103D40000E94FF2E40E050E0BA018CE190E00E941A
:103D5000112F70E060E080E290E00E941D2F40E0B3
:103D600050E0BA0188E190E00E94112F40E050E05D
:103D7000BA018FE090E00E94112F40E050E0BA01BC
:103D800083E190E00E94112F0895A5E0B0E0EBECF4
:103D9000FEE10C94252E7C01FC0183819481892B0A
:103DA00031F08081918189238F3F09F018C42596D5
:103DB000ECE00C94412E0E949011182F682F8981FD
:103DC0009A810E94041269817A81812F0E94CA0F10
:103DD0008C01FC01E851FC47E730F10588F5EA5910
:103DE000F04D0C94A92E26E241EE61EEC7010E942F
:103DF000E71B809159038770D1F2F70182818823F4
:103E0000B1F28091B10382FFD2CF82E00E945112C1
:103E1000CECF27E245EE65EEE9CF26E241EE60EE39
:103E2000E5CF27E245EE64EEE1CF26E241EE62EE19
:103E3000DDCF27E245EE66EED9CF28E241E0EBCFB9
:103E4000F7018281882309F4F1C310922505C80186
:103E50009057839708F0D4C384E090E00E94E92E45
:103E60009093B1038093B003F801E150F047E23240
:103E7000F10520F4E359F04D0C94A92E8091B00384
:103E800081608093B00395C08091B1038860809376
:103E9000B1038FC08091B0038260F3CF8091B003F3
:103EA0008460EFCF8091B0038860EBCF8091B10345
:103EB0008160EDCF8091B1038260E9CF8091B00342
:103EC0008061DFCF8091B0038062DBCF8091B0034F
:103ED0008064D7CF0E9462188091B0038068D1CFF0
:103EE0008091B0038C60CDCF8091B1038360CFCF40
:103EF0008091B0038E7FC5CF8091B103877FC7CFFC
:103F00008091B0038D7FBDCF8091B0038B7FB9CFFF
:103F10008091B003877FB5CF8091B1038E7FB7CFFB
:103F20008091B1038D7FB3CF8091B0038F7EA9CFF5
:103F30008091B0038F7DA5CF8091B0038F7BA1CFFF
:103F40000E9462188091B0038F779BCF8091B0035D
:103F5000837F97CF8091B1038C7F99CF8091B003FD
:103F600082FB992790F921E0922790FB82F990FB40
:103F700083F987CF8091B103982F909591708E7FB0
:103F8000892B90FB81F983CF9091B003892F8F7B90
:103F900096FF806476CF0E9462189091B003892FBB
:103FA00097FB87F980586DCF61E08EE090E00E942A
:103FB000FF2E6091B0037091B10384E090E00E9405
:103FC0001D2F0E94621815CF60E0EFCF9091B003D3
:103FD000892F8F7E94FF806154CF9091B003892FF9
:103FE0008E7F90FF81604DCF9091B103892F877FA5
:103FF00093FF88604CCF8091000381110FC089E24C
:10400000EAEFF2E020E033E09191891303C0DF0191
:1040100011971C922E173F07B9F705C385E3F0CF20
:1040200080912805982F937021E092278C7F892B0F
:104030008093280510924E0180912605816080931F
:1040400026058091270580FFD4CE1F929F938DE592
:1040500091E09F938F9380E491E09F938F930E94D0
:1040600056040F900F900F900F900F900F90C1CEAD
:1040700047EF52E161E073E10E945E06BACE41E093
:1040800053E167EF72E1F8CF40E753E16AE773E18C
:10409000F3CF4AE753E160E773E1EECF46E553E142
:1040A00063E673E1E9CF43E653E166E573E1E4CF0C
:1040B0004CE353E169E473E1DFCF49E453E16CE39E
:1040C00073E1DACF42EA53E16DEA73E1D5CF4DEA0D
:1040D00053E162EA73E1D0CF81E00E94C41289CE3D
:1040E00085E0FBCF8DE0F9CF82E1F7CF90912705F6
:1040F000892F8E7F90FF81608093270580FF05C008
:1041000089E891E00E94BD0374CE87E791E0FACF81
:104110006FEF7FEF90E080E00E941D2F0E942F1B29
:104120008091B10382FB882780F991E089270E9462
:104130003C1EF701828100811181882309F443C06C
:10414000C8010E949011D82E682FC8010E94041245
:10415000B8018D2D0E94CA0F0E94E70F8C01882E96
:10416000F701A280958092943FE0932280915903B9
:104170008770C1F0CA2CAA20B1F0812F807F8034D3
:1041800021F080E2800F883068F08091B10382FFD7
:1041900009C082E00E945112809159038770CC249B
:1041A000C3948111C12CB12EB2942FE0B222FBE056
:1041B000FB1508F474C0EB2DF0E0E157F04D0C94C2
:1041C000A92E80E0B4CFC8010E94D111D82EC0CF53
:1041D000212F2F70D22E107F19F0D29490EFD92278
:1041E000AA20B9F0DD2069F080E2800F883010F05D
:1041F000811009C080916303D82AD09263030E9482
:10420000F017802F4AC080916203D82AD0926203AF
:10421000F6CF802F0E94561BDD2009F440C0005EBF
:10422000083010F0811004C08D2D0E947F1106C04F
:10423000D09480916203D822D09262030E94F0173A
:104240002EC0312F3F70D32E107F103219F0D29430
:1042500080EFD822882089F081E0881609F47CC09C
:10426000AA2009F486C0992009F47CC0F701858151
:1042700080FFC7CF8F70858375C02091B10322FD69
:1042800043C0AA20D9F1DD2039F080916303D82AF8
:10429000D09263030E94F01780E00E948B1BEB2DED
:1042A000E850FF0B349710F40E940115CC20A9F0C0
:1042B0008091590380FD11C0F70112828595859583
:1042C00085950E946D12C7010E94C51E80915903F9
:1042D0008595859585950E943F1285E0F701DE0161
:1042E000119601900D928A95E1F709811A81C80112
:1042F0000E94D111B8010E94CA0F59CD80E00E94DE
:10430000561BDD2061F290CFAA20A1F090916403AA
:104310008D2D892B911003C00E944C1BC0CFE1E072
:104320009E12FACF22FFBBCF891709F4B8CF809332
:104330006403B5CF911006C00E9479118D2D0E94A3
:10434000451BADCFF1E09F1609F4A9CF8D2D0E943A
:10435000451B0E947911A3CFAA2031F025E0291531
:1043600008F49DCF8D2DD8CF34E0391508F497CFC0
:10437000E5CF992019F3F9E38F122AC12FEF37EE19
:1043800083E0215030408040E1F700C0000020C1B0
:10439000812F86958695837061F0813009F07FCFFB
:1043A000C8019370A11002C080E090E00E94FE0559
:1043B00076CFC8019370A11002C080E090E00E9407
:1043C00023066DCF812F837009F03FC0A11067CF06
:1043D000402F429546954770440F440F802F8F70B1
:1043E00090E0042E02C0880F991F0A94E2F730E093
:1043F00020E004FF09C02FE030E002C0220F331F8D
:104400004A95E2F72095309516951695137012305F
:1044100099F078F44091650350916603113039F0BA
:10442000822B932B842395230E947D1238CF842BDB
:10443000952B822B932BF8CF822B932B2091650306
:104440003091660382279327EFCF8695AA2011F03B
:10445000812F8170882309F422CF402F4295469501
:104460004770440F440F802F8F7090E0042E02C0DD
:10447000880F991F0A94E2F730E020E004FF09C09A
:104480002FE030E002C0220F331F4A95E2F720955B
:104490003095169516951370123099F078F4409176
:1044A000AE035091AF03113039F0822B932B84234C
:1044B00095230E943A12F3CE842B952B822B932BBB
:1044C000F8CF822B932B2091AE033091AF0382273C
:1044D0009327EFCF1F70AA2029F0812F0E946D1221
:1044E000802F1ACF802F0E94451B812F0E943F12E0
:1044F000D6CE802F92EF891699F1981570F0E0EFE3
:104500008E16D1F0F1EF8F1691F0AA2009F45BC05E
:10451000911077CE812F8F7127C023EF821639F14A
:1045200034EF8312F2CF8091B10382FD2EC0812F30
:104530008F71AA20D9F218C0AA2069F084E08915E9
:1045400008F4ADCE1F7181E090E002C0880F991F82
:104550001A95E2F7B8CF95E0991508F4A0CEF2CFFE
:10456000812F8F71A110C2CF0E946D1298CE90E062
:1045700080E0AA2009F49DCF1F7181E090E002C085
:10458000880F991F1A95E2F794CFAA2089F01F711E
:10459000812F0E946D128091B10382FF07C0E8E075
:1045A0001E9FC0011124836080935903812FDCCFAB
:1045B00081E00E945112F1E0F91508F070CE82E01E
:1045C0000E9451126CCE992039F0893309F4D6CE6D
:1045D000802F0E94561B63CE812F8F7187CF85E07D
:1045E000DE01119601900D928A95E1F7F701228183
:1045F00089819A812111DFCB0E94D111182FE3CB41
:104600000631FCE71F0729F5809163038A7A91E060
:1046100009F490E09093000369E2811165E388EF6B
:1046200092E00E94E4050E94F017E3CB06312CE7EC
:10463000120709F4E0CC809163038272F801E05222
:10464000F847E531F10508F074CDE556F04D0C94CE
:10465000A92E03303CE7130709F45ACD08F03AC0FD
:1046600001309CE7190709F459CD08F03FCD011539
:104670001C4709F05ECD0E946218FFEF24E33CE086
:10468000F15020403040E1F700C0000081E080930D
:10469000E00080E28093D8001092C9008FE19EE490
:1046A0000197F1F700C0000087E090EBDC018093F8
:1046B0002E0590932F05A0933005B093310588E126
:1046C0009CE00FB6F894A895809360000FBE90937D
:1046D0006000FFCF0B352CE7120709F472CD0C35C3
:1046E0003CE7130709F41CCD0A351C4709F021CD1E
:1046F00081E01DCD1F93CF93DF9380912603807FB0
:1047000009F049C080912303882309F444C08091B3
:104710005803D09127036091210370912203A09147
:104720002403B0912503C62FC72316E0D81799F1AB
:1047300090E0109711F0CF3F19F401968770F6CFF3
:10474000189F9001199F300D1124F901E85DFC4F6D
:1047500041814713F2CF40814613EFCF428141118F
:10476000ECCF438154814A1B5B0B483C510528F731
:10477000809126038F70806180932603F901E35DA9
:10478000FC4F80818F708061808381E293E00E9482
:10479000C51E0E948611DF91CF911F910895A1E15E
:1047A000B0E0E5EDF3E20C94272E8C0185E0F801F2
:1047B000DE011D9601900D928A95E1F7F801E280E5
:1047C00081E2A82E83E0B82E609124037091250326
:1047D0006115710509F426C19091210340912203CE
:1047E000892F84238F3F09F41DC120813181C3802B
:1047F000D480F0902303F601E61BF70BFF2009F4A9
:10480000DCC080912603582F507FE83CF10508F06A
:104810009FC051116BC0FE2C431314C0921312C0E1
:10482000E11010C08F70806180932603C5010E9443
:10483000C51E80912603F80185838F2D6196EAE0DD
:104840000C94432EC114D10429F0822F83238F3F6F
:1048500009F003C180E0F82FF170DF2E80FF3CC02B
:10486000809158034091270356E0841315C02D878B
:104870003E878D859E850E94C411292F22952F7019
:104880002230F0F0243018F59F70F1F0F801958196
:10489000907FD1F4D12C1EC090E0589FF001599F19
:1048A000F00D1124E85DFC4F6181361306C0608174
:1048B000261303C06281E6120FC001968770D5CF20
:1048C0009F7011F0882331F3805E883018F3C8019F
:1048D0000E94C51EFD2CB1CFEE2009F4AECF809111
:1048E0002603816080932603F12CA7CF431306C0D3
:1048F000921304C0F801EE2009F479C0C8010E94A7
:104900008212882309F1EE20F9F08091260380328B
:1049100070F0209121033091220338872F8319866C
:10492000DB86CA868C87CE0107960E94C51E86E06C
:10493000F801A1E2B3E001900D928A95E1F70E949F
:104940007A23FF24F39479CFC8010E94C51EF9CFC2
:1049500051110AC081E293E00E94C51E86E0F50174
:1049600011928A95E9F7C0CF43130FC092130DC07F
:10497000E1100BC0F8018583C8010E94C51E86E0C6
:10498000F50111928A95E9F758CFC8010E94821269
:104990008823D1F2EE20C1F280912603803238F2D2
:1049A00020912103309122033A8329831B82DD82E7
:1049B000CC828E83CE010196B8CFE83CF105F8F6A3
:1049C000FE2CEE2009F243131FC092131DC08091EC
:1049D000260380FD10C0982F907F69F0F801858331
:1049E000903F31F0982F907F905F8F70892B858357
:1049F000C8010E94C51E86E0F801A1E2B3E0019063
:104A00000D928A95E1F719CFC8010E948212811197
:104A10008ECF80912603816080932603C8010E9477
:104A2000C51E0BCFEE2009F48FCFC8010E94821261
:104A3000F82E882309F488CF86E0F801A1E2B3E0DC
:104A400001900D928A95E1F78091210390912203C4
:104A50000E94C4110E947A23F0CE81E08E25FBCE05
:104A6000A7E1B0E0E6E3F5E20C942E2E4B8B5C8BD5
:104A70006D8B7E8B8F8B6111109262031A8A198A5B
:104A800085E0FE017396DE011D9601900D928A95D8
:104A9000E1F786E0FE013D96DE01179601900D924A
:104AA0008A95E1F7CE0107960E94CF23811112C0AB
:104AB00086E0FE013796DE01119601900D928A95EF
:104AC000E1F78A859B85892B29F088859F81892339
:104AD0008F3F81F516E08091580390912703891349
:104AE00017C06796E3E00C944A2E96E0929FD0019F
:104AF000939FB00D1124A85DBC4FFE01319601902B
:104B00000D929A95E1F7809327030E948611E2CFD8
:104B1000819FC0011124885D9C4F0E94CF23882370
:104B200001F38091580390E0019687709927809354
:104B30005803D1CF2091270330E0C9010196877037
:104B40009927409158034817190679F60E94621870
:104B5000109227031092580386E0E1E2F3E0DF01B0
:104B60001D928A95E9F7B6CF1F920F920FB60F925A
:104B700011242F933F934F935F936F937F938F9362
:104B80009F93AF93BF93CF93DF93EF93FF93D09116
:104B9000E900DF708091EC00C82FC17080FDC0E893
:104BA0001092E9008091F000877F8093F000789464
:104BB0000E9478181092E9008091F000886080933C
:104BC000F000CD2BCF70C093E900FF91EF91DF9102
:104BD000CF91BF91AF919F918F917F916F915F9195
:104BE0004F913F912F910F900FBE0F901F901895EE
:104BF0001F920F920FB60F9211242F933F934F9352
:104C00005F936F937F938F939F93AF93BF93EF9334
:104C1000FF938091E10082FF15C08091E20082FF46
:104C200011C08091E1008B7F8093E1002091DE0430
:104C30002F5F822F62E30E94562E992309F4C0C091
:104C40002093DE048091DA0080FF28C08091D80094
:104C500080FF24C08091DA008E7F8093DA008091FB
:104C6000D90080FFE3C080E189BD82E189BD09B43C
:104C700000FEFDCF81E08093EC0483EE95E00E947E
:104C8000BD038091DF04811109C00E945F040E946E
:104C900000058091E20084608093E2008091E10051
:104CA00080FF1BC08091E20080FF17C08091E2006E
:104CB0008E7F8093E2008091E20080618093E20029
:104CC0008091D80080628093D80019BC85E08093E1
:104CD000EC048BEE95E00E94BD038091E10084FF1F
:104CE0002FC08091E20084FF2BC080E189BD82E16A
:104CF00089BD89B5982F917080FFFBCF8091D80036
:104D00008F7D8093D8008091E1008F7E8093E100B9
:104D10008091E2008F7E8093E2008091E2008160CA
:104D20008093E2008091ED04882309F489C084E037
:104D30008093EC048FEE95E00E94BD038091EC041B
:104D40008091E10083FF2BC08091E20083FF27C0A8
:104D50008091E100877F8093E10082E08093EC0402
:104D60001092ED048091E1008E7F8093E1008091AC
:104D7000E2008E7F8093E2008091E2008061809368
:104D8000E20042E060E080E00E94CE048091F0000A
:104D900088608093F00083EF95E00E94BD03FF914F
:104DA000EF91BF91AF919F918F917F916F915F91A3
:104DB0004F913F912F910F900FBE0F901F9018951C
:104DC0001092DE048091DD04882309F43BCF8091AA
:104DD000EC048430C1F49091E9009F702091EC00C4
:104DE000822F817020FD80E8892B93E09093E90069
:104DF0009091EB0090FF04C09091EE0097FD08C0E9
:104E00008F708093E9001092DD041CCF1092F100A6
:104E10009091E80095FDFACF9091E80090FFF0CFD7
:104E20009091E8009E779093E800EACF19BC109229
:104E3000EC0487EE95E00E94BD031092DF042ECFB4
:104E40008091E30087FD93E09093EC0473CF789416
:104E50001F921FB61F9211248F939F93AF93BF93FE
:104E60008091D8049091D904A091DA04B091DB0428
:104E70000196A11DB11D8093D8049093D904A093ED
:104E8000DA04B093DB04BF91AF919F918F911F9093
:104E90001FBE1F9018951F921FB61F9211248F934B
:104EA0009F93AF93BF938091D704811113C08091DA
:104EB000D8049091D904A091DA04B091DB04419612
:104EC000A11DB11D8093D8049093D904A093DA0456
:104ED000B093DB04BF91AF919F918F911F901FBE44
:104EE0001F901895CDB7DEB72F970FB6F894DEBF99
:104EF0000FBECDBF85B7806885BF85B7806885BF89
:104F000084B7877F84BF0FB6F894A895809160001E
:104F1000886180936000109260000FBE80E890E08E
:104F20000FB6F89480936100909361000FBE88EBF8
:104F300093E19093F7028093F6020E945F040E942F
:104F400000058091E20084608093E2007894809173
:104F5000EC048823A1F01091E9001F709091EC00FF
:104F6000892F817090FD80E8182B1092E9008091C4
:104F7000E80083FD0E9478181F701093E90082E01A
:104F800084BD93E095BD9AEF97BD80936E0010921B
:104F90009C0310929D0310929E0310929F035598BC
:104FA0005D988FE891E00197F1F700C000000E9442
:104FB000390A80933B010E94DE1481110E94BD2CAE
:104FC00080913B0192E0811190E09093D00382E0C8
:104FD000A82FA91BA093A10390913B018093D1031B
:104FE00090913B018093A00380913B0181110CC003
:104FF00083E38093460182E38093440186EF8093AC
:10500000470187EF8093450136E4A32E31E0B32EAC
:1050100044E451E08A01950161E070E0F901819179
:105020009F01E82FE295EF70F0E0D1A08F707B0137
:1050300001C0EE0C8A95EAF79E2D90959D2191A3D3
:1050400082A18E2982A3D8018D918D01E82FE2954E
:10505000EF70F0E0D1A08F707B0101C0EE0C8A955B
:10506000EAF79E2D90959D2191A382A18E2982A37E
:10507000B1E028343B0791F6EFE8F1E03197F1F722
:1050800000C000001091D10362ED73E0FB018E2F90
:10509000861B811708F46AC280913B0181112CC0E4
:1050A00085E0E2E5F1E0DE01179601900D928A9528
:1050B000E1F78F8180933601888580933701898558
:1050C000809338018A85809339018B8580933A01DA
:1050D00086E0E7E5F1E0DE01119601900D928A95F8
:1050E000E1F7FE013196A0E3B1E0CE0107962191F0
:1050F0002D93E817F907D9F780913B0195E08111CD
:1051000090E09093AD0385E0891B8093AC0306E3A8
:1051100011E02BE3E22E21E0F22EF80181918F01C4
:105120008F3F11F00E94700FE016F106B1F700E317
:1051300011E0D8018D918D018F3F11F00E94700F09
:10514000B1E006331B07A9F78AE0E4EBF3E0DF01E7
:10515000282F1D922A95E9F7E2EAF3E0DF011D927C
:105160008A95E9F790E080E00E94E92E873E9E4F05
:1051700011F00E94661E82E090E00E94E12E182F3E
:105180008093270584E090E00E94E92E9093B1037C
:105190008093B00383E090E00E94E12E90E00E94B3
:1051A0007D121092FA048FEF9FEF90931405809375
:1051B0001305909316058093150590931805809319
:1051C000170590931A058093190590931C058093F9
:1051D0001B0590931E0580931D05909320058093D9
:1051E0001F0590932205809321051092D703909379
:1051F000F1038093F0039093F3038093F203909371
:10520000F5038093F4039093F7038093F603909350
:10521000F9038093F8039093FB038093FA03909330
:10522000FD038093FC039093FF038093FE0390E0C3
:1052300080E00E94E92E873E9E4F71F010FF08C06B
:1052400089E594E09F938F930E9456040F900F90EE
:105250000E94661E0E94FC1581E08093260546E0B0
:1052600050E06CE170E088E295E00E94D12E10924F
:105270002605809128058C7F71F48091270580FF99
:1052800008C084E094E09F938F930E9456040F908F
:105290000F900E94FC158091270580FF89C08AEE3F
:1052A00093E09F938F930E945604809127050F905F
:1052B0000F9080FF7DC08091280583701F928F938F
:1052C0008BEC93E09F938F930E9456048091270567
:1052D0000F900F900F900F9080FF6AC0809128056B
:1052E000869586951F928F938EEA93E09F938F9376
:1052F0000E945604809127050F900F900F900F90F9
:1053000080FF56C0809129051F928F9380E993E01A
:105310009F938F930E945604809127050F900F90C2
:105320000F900F9080FF44C080912A051F928F93A9
:1053300082E793E09F938F930E9456048091270504
:105340000F900F900F900F9080FF32C080912B052F
:105350001F928F9384E593E09F938F930E9456044E
:10536000809127050F900F900F900F9080FF20C025
:1053700080912C051F928F9386E393E09F938F93E8
:105380000E945604809127050F900F900F900F9068
:1053900080FF0EC080912D051F928F9388E193E0CE
:1053A0009F938F930E9456040F900F900F900F9031
:1053B0000E94DE14811102C00E94C02C8CE391E097
:1053C0009093D4048093D3048091EC048530A9F4A5
:1053D0008BE894E00E94BD0390E4F92EEE24E39460
:1053E00000E112E18091EC04853009F4E8C00E94EC
:1053F00062180E940115109204040E9428168EEB78
:10540000282E83E0382EA4EBB3E0BE87AD87F101F0
:1054100091918D9128EC33E02E173F0709F416C1C6
:105420009817B1F38091270581FD6DC10E94DE14AC
:105430008F870DEE802E01E0902EE12CAD85BE858C
:10544000DD90BE87AD87F10161901F016D1409F4F5
:1054500083C02401C12C772473946D24862D872169
:1054600009F46FC0FD2CF720FF85FF2399F0CF8250
:10547000E88681E0F11001C080E089870E94D805AC
:105480008160782F9B878A874F81588569858B85B6
:105490000E943025FF2041F0D2018C91F12C8F3FEA
:1054A00019F08C87FF24F3940F2D10E08091D7031F
:1054B000800F912F911D09976CF1E8E0AE2EB12C71
:1054C000A01AB10AB80168527C4FA50188ED93E09B
:1054D0000E94302FB80160527C4FA50180EE93E00E
:1054E0000E94302FA501440F551FB801660F771F8A
:1054F00060517C4F80EF93E00E94302FB8016851DB
:105500007C4FA50188EE93E00E94302F88E08F1930
:105510008093D7038091D70390E0EC85AE2FB0E065
:105520009D01220F331F275D3D4FAA0FBB1FBD01F9
:10553000665D7D4F41E0480F9F1508F41AC18093C6
:10554000D703C394770CEFEF4E1A5E0AF6E0CF1242
:1055500085CFF1013197D082E39426E0820E911C31
:105560003AE0E3126BCF0E94CC0590C0D5012D919B
:105570005D01822F82958F7090E0DC0190968C9176
:1055800090E02F7002C0959587952A95E2F781707B
:10559000DA019D91AD01292F22952F7030E0D901BC
:1055A00090962C9130E09F7002C0359527959A9582
:1055B000E2F790E020FD92E0892B819368CD809105
:1055C000EC04843009F430C00E944D15809104042D
:1055D000811105C00E94300D80E00E946406E092B7
:1055E00004041092D70428E130E00FB6F894A8958F
:1055F000209360000FBEF092600083B7817F8460CB
:1056000083BF83B7816083BF7894889583B78E7F8B
:1056100083BF0FB6F894A89580916000886180934D
:105620006000109260000FBE8091EB04882309F4A3
:10563000D9CE0E942816E4EBF3E0819181112FC1AD
:105640008EEB93E08E179F07C1F7CCCE9813EACE6E
:105650000E94D8058C018091B2039091B303081782
:105660001907A1F08FEF89838A831B820E94D805D6
:105670008160782F9D838C8349815A816B818D81D4
:105680000E9430251093B3030093B2030E94DE14EE
:105690000E944D15D12CC12C8091D103D81608F44D
:1056A0007EC0C1100E9476110E940115182F8091B2
:1056B000D603181709F488CE1093D6030E94CC05A0
:1056C0008091270582FF80CE80FF7ECE84EB94E020
:1056D0000E94BD038091270580FF76CE1F921F9305
:1056E0008FEA94E09F938F930E9456048091270540
:1056F0000F900F900F900F9080FF66CE8DEA94E090
:105700000E94BD0361CE8EE994E00E94BD03B4EB1C
:10571000EB2EB3E0FB2EB12CA12C19E9C12E14E025
:10572000D12E01E914E0BF92AF92DF92CF920E9496
:10573000560486E994E00E94BD03D7018D917D0156
:105740000E94AC121F928F931F930F930E945604D6
:105750008FE894E00E94BD03BFEFAB1ABB0A0FB6FF
:10576000F894DEBF0FBECDBFFAE0AF16B104D9F694
:105770005DCE90E0FC01E952FC4FD9015C91518370
:10578000DB015C915187BC85B18B880F991FFC01AF
:10579000E952FC4F128E118E91E0842FCBCE0D2D4D
:1057A00010E0F801EA5BFE4F8081E82FE295EF7090
:1057B000F0E0E0A1F0E08F7002C0F595E7958A95E2
:1057C000E2F7E170D801AC5BBE4F2C91A22FA295FD
:1057D000AF70B0E090968C9190E02F7002C09595DC
:1057E00087952A95E2F780FD52C080E08E2BD80184
:1057F000AE52BC4FEC919E2F9370891709F445C0AF
:10580000EE0FEE0FE82BEC93E090D003ED0CEF7071
:10581000F0E0EA53FE4F04531C4F8081D8019C9165
:10582000890F8C93F12C843084F0EE2DF0E0E85356
:10583000FC4F80818F5F80830E94DE14F82E8823C6
:1058400041F160E08E2D0E94441CF80180818D3F63
:1058500084F4EE2DF0E0E853FC4F8081815080838A
:105860000E94DE14F82E8823B9F061E08E2D0E948C
:10587000441CD8018C91082E000C990B64E070E058
:105880000E94762EF8018083CF28D39405CF82E042
:10589000ADCFFF24F394D9CFFF24F394EACF09BD11
:1058A00019BD09B400FEFDCF8091D8008F7D809393
:1058B000D8008091E00082608093E0008091E00059
:1058C00081FDFCCF0E9462188DCD8EE1489B02C005
:1058D0008150E1F7489BFECF0895589880E28A9561
:1058E000F1F7589A0895FC013BE03A95F1F798E0FA
:1058F00020E080E031E040E14A95F1F7880F489BD5
:1059000002C08160232742E04A95F1F7000040E1A0
:105910004A95F1F7915079F790E19A95F1F799B19D
:1059200032E03A95F1F7000040E14A95F1F79170C5
:1059300092272081920F90830895A1E0B0E0E3EADE
:10594000FCE20C942B2E19828C017C01E60EF11CDA
:105950000E151F0541F481E09981911180E0219697
:10596000E6E00C94472E0E94652CCE0101960E9421
:10597000732CF80181938F01EBCF509A589A0895B8
:105980005098589AE89AE9E6F0E080818C7F80830D
:1059900008956150770B91E001C0990F6A95EAF77D
:1059A00020E031E0911108C0222391F0589A80E262
:1059B0008A95F1F758980895492F482339F0589A55
:1059C000232740E24A95F1F79695ECCF5898F9CF06
:1059D0005898EDCFFF920F931F93CF93DF93EC0175
:1059E0008C01060F111DC017D10729F4CDB7DEB702
:1059F000E5E00C94482EF9900E946D2C68E08F2D04
:105A00000E94C92CF0CF1F920F920FB60F92112453
:105A10000F931F932F933F934F935F936F937F93B6
:105A20008F939F93AF93BF93EF93FF93CF93DF93A6
:105A30000F92CDB7DEB719820E94652CCE01019678
:105A40000E94732C082F069506950695282F2295FF
:105A50002570902F9570290F922F9370269526957B
:105A6000920F982797708981982B09F05CC00730B6
:105A700008F059C080E18A95F1F7589A509A82E06F
:105A80008A95F1F700C0589888E0089F800111249A
:105A9000D801A050BF4F1696ED91FC911797309703
:105AA000A9F06091C4017091C50114962D913C91AB
:105AB0001597260F371F11968D919C911297680F9D
:105AC000791F13964C9113978C910995F801E0502A
:105AD000FF4F6381662351F02091C4013091C501CD
