:100000000C94FA030C9410300C9432040C943204C7
:100010000C9432040C9432040C9432040C94320488
:100020000C9432040C9432040C94A6280C9462288C
:100030000C94F9290C9432040C9432040C9432047C
:100040000C9432040C9432040C9432040C94320458
:100050000C9432040C94D5290C9432040C94320480
:100060000C9432040C9432040C9432040C94320438
:100070000C9432040C9432040C9432040C94320428
:100080000C9432040C9432040C9432040C94320418
:100090000C9432040C9432040C9432040C94320408
:1000A0000C9432040C9432040C9432040631FF098F
:1000B00074A1010975150026FF00952075088102BD
:1000C0000976150026FF00952075089102C00501EC
:1000D0000980A101850319012AB700150126B7007F
:1000E000950175108100C0050C0901A10185041955
:1000F000012AA002150126A002950175108100C0F9
:1001000005010906A101050719E029E715002501E8
:10011000950875018102950175088101050719008F
:1001200029FF150026FF00950675088100050819AE
:1001300001290515002501950575019102950175A7
:10014000039101C0726762206D61747269782074D6
:100150006F67676C65205B25735D3A207267625F2D
:100160006D61747269785F636F6E6669672E656E24
:1001700061626C65203D2025750A00444542554763
:100180003A2064697361626C65642E0A00444542DA
:1001900055473A20656E61626C65642E0A004F6EA9
:1001A0006573686F743A206163746976653A2025D7
:1001B000640A000A002530325820006B6579626FAE
:1001C0006172645F7265706F72743A2000000000A3
:1001D000000000000000000000290014001A0008C0
:1001E0000015001700E00004001600070009000ACF
:1001F00000E1001D001B00060019000500000000C2
:1002000000E30021522C002C000000000000000040
:1002100000000000003100130012000C0018001C48
:1002200000340033000F000E000D000B00E5003815
:1002300000370036001000110000000000E6002B1F
:10024000422800280000000000000000000000001C
:100250000035001E021F02200221022202E0001EC1
:10026000001F00200021002200E1002300240025BF
:10027000002600270000000000010001000100012D
:100280000000000000000000000000000001002746
:1002900002260225022402230200002E004F0052F3
:1002A0000051005000E50030002F002E0256002DB6
:1002B0000200000000E60023522A002A000000008D
:1002C00000000000000000000000003A003B003C7D
:1002D000003D003E00E000000000000000000000C3
:1002E00000E100000000000000000000000000002D
:1002F00000010023524C004C0000000000000000F0
:100300000000000000440043004200410040003F64
:1003100000000000004F00520051005000E50000B6
:1003200000000000000000000000000000010001CB
:1003300000010001000100010001000100010001B5
:1003400000010001000100010001000100010001A5
:100350000001000100010001000100010001000195
:100360000001000100000000000100010001000187
:100370000001000100010001000100010001004630
:10038000000100490001000100010001000100011D
:100390000001000100010001000100010001000155
:1003A0000000000000010001000100010054617222
:1003B00067657420636F6E6E65637465640D0A0013
:1003C00054617267657420646973636F6E6E6563F0
:1003D0007465642C207468726F74746C696E672025
:1003E000636F6E6E656374696F6E20617474656DA2
:1003F0007074730D0A004661696C656420746F2027
:10040000657865637574652025730A007267625F9D
:100410006D61747269785F636F6E6669672E666C72
:10042000616773203D2025640A007267625F6D6119
:10043000747269785F636F6E6669672E7370656545
:1004400064203D2025640A007267625F6D617472EA
:1004500069785F636F6E6669672E6873762E7620A3
:100460003D2025640A007267625F6D61747269786D
:100470005F636F6E6669672E6873762E73203D200A
:1004800025640A007267625F6D61747269785F63E8
:100490006F6E6669672E6873762E68203D2025642E
:1004A0000A007267625F6D61747269785F636F6E74
:1004B0006669672E6D6F6465203D2025640A0072B1
:1004C00067625F6D61747269785F636F6E6669679A
:1004D0002E656E61626C65203D2025640A0072679E
:1004E000625F6D61747269785F636F6E66696720C1
:1004F000454550524F4D0A007267625F6D617472DC
:1005000069785F696E69745F647269766572732079
:100510007267625F6D61747269785F636F6E66693E
:10052000672E6D6F6465203D20302E2057726974F0
:10053000652064656661756C742076616C756573A1
:1005400020746F20454550524F4D2E0A007267624D
:100550005F6D61747269785F696E69745F647269F6
:1005600076657273206565636F6E6669672069736F
:10057000206E6F7420656E61626C65642E0A007374
:10058000757370656E64696E67206B6579626F6103
:1005900072640D0A000A0025303862003A200025F6
:1005A000303258000A722F632030313233343536FE
:1005B000370A000A0025303258006C65645F7461A8
:1005C000736B3A20000001010101010101010102E8
:1005D00002020202020202020303030303030303F3
:1005E00004040404040404050505050506060606BE
:1005F00006070707070708080808090909090A0A7A
:100600000A0B0B0B0C0C0C0D0D0D0E0E0E0F0F0F1D
:1006100010101111111212131314141515161617A8
:1006200017181819191A1A1B1B1C1D1D1E1E1F2016
:1006300020212222232424252626272829292A2B63
:100640002C2D2D2E2F303132323334353637383988
:100650003A3B3C3D3E3F4041424344454647484982
:100660004A4C4D4E4F50515354555658595A5B5D54
:100670005E5F616264656668696B6C6D6F707273F2
:100680007577787A7B7D7E8082838587888A8C8E59
:100690008F91939596989A9C9EA0A2A3A5A7A9AB8B
:1006A000ADAFB1B3B5B7BABCBEC0C2C4C6C9CBCD7D
:1006B000CFD1D4D6D8DBDDDFE2E4E7E9EBEEF0F32F
:1006C000F5F8FAFDFF6565636F6E6669675F7570C3
:1006D000646174655F7267625F6D61747269785F8F
:1006E00064656661756C740A005B435D005B445D24
:1006F000005B535D005B575D005B525D0009025B70
:1007000000030100A0FA090400000103010100092F
:10071000211101000122440007058103080001099D
:10072000040100010300000009211101000122322F
:1007300000070582032000010904020002030000F3
:100740000009211101000122220007058303200076
:100750000107050303200001120100020000000848
:1007600010CB567200070102000118034900720005
:100770006900730020005200650076002E00200002
:10078000370000000E034B00650065006200690041
:100790006F00000004030904726762206D617472C7
:1007A000697820736574207370656564205B2573B8
:1007B0005D3A2025750A00726762206D6174726966
:1007C000782073657420687376205B25735D3A200A
:1007D00025752C25752C25750A00726762206D61C0
:1007E00074726978206D6F6465205B25735D3A20B3
:1007F00025750A0011241FBECFEFDAE0DEBFCDBFA2
:1008000004B603FE18C08091860590918705A091DB
:100810008805B09189058730904BA740B04B59F4BB
:10082000109286051092870510928805109289050E
:10083000E0E0F8E3099525E0AEEFB2E001C01D92DB
:10084000A638B207E1F712E0A0E0B1E0EAE7F6E689
:1008500002C005900D92AE3FB107D9F70E94202A41
:100860000C94C4320C940000FF93EF93E091FE02CD
:10087000F091FF02309709F00995EF91FF910895EB
:10088000FC018591803011F0EFDFFBCF0895FF2749
:10089000E0E230E247FF0CC0419597FF09C0EDE26E
:1008A0006095709580959095611D711D811D911DBC
:1008B00027FF02C0219530E350E2AA27660F771F79
:1008C000881F991FAA1FA41710F0A41B63955A959F
:1008D000A9F7AA3008F0A95FA05DAF93F395611561
:1008E00071058105910541F7ED3211F4EF93F39510
:1008F000F21718F43F93F395FBCF8F91B5DFFA957C
:10090000E1F70895E991F9918591803021F08532E0
:1009100019F0AADFF9CF089520E0E89455915532F7
:10092000C1F3503311F4689455915A3348F450533D
:1009300090F3220F022E220F220F200D250FF4CF4D
:100940000EF4219589919991533619F3533729F172
:10095000533559F1BC0188279927E8945C3621F476
:100960008991999168945591543639F446EF7EF007
:1009700077FF0DC08FEF9FEF0AC055374AE039F07F
:10098000583540E121F0523642E009F00895FF93D6
:10099000EF937DDFEF91FF91B7CFFF93EF93FC01D2
:1009A00081918030B9F360DFFBCFFF93EF9368DF75
:1009B000F1CFDF93CF93CDB7DEB72596A3DFCF91ED
:1009C000DF910895482F20914B059091120557E033
:1009D000291302C080E0089530E0529FF001539F38
:1009E000F00D1124ED5EFA4F8181681306C08081FD
:1009F000481303C085818111EECF2F5F3F4F2770D1
:100A0000E7CFE8EDF0E080818E7F80831092E200F6
:100A10001092DA001092E100A0EEB0E08C918160BB
:100A20008C9380818F77808319BCA7EDB0E08C9187
:100A30008E7F8C9380818F7E80831092FB0408953B
:100A40002091E4003091E50095E6A9012091EC00A9
:100A5000822F817020FF06C08091E80080FF06C0D1
:100A600080E008952091E80022FD1AC080910805D9
:100A7000882389F0853089F08091EB0085FD0FC0D7
:100A80002091E4003091E50042175307F9F29150AC
:100A9000E1F684E0089582E0089583E0089581E01E
:100AA000089580910A0587FF13C08091E80082FFB6
:100AB00006C08091E8008B778093E80004C08091A5
:100AC00008058111F2CF0895809108058823D9F394
:100AD0008091E80080FFF8CF8091E8008E77ECCF1E
:100AE000982F9093E900242F762F50E0891731F04A
:100AF0007091EC002091ED005091F00021FD07C0B5
:100B00009F5F973071F78093E90081E008953091FD
:100B1000EB003E7F3093EB003091ED003D7F309352
:100B2000ED003091EB0031603093EB007093EC00FE
:100B30002093ED005093F0002091EE0027FDE0CFD0
:100B400080E00895B0E0A0E0E8EAF5E00C943631EA
:100B5000C8EDD0E088818F7E8883E7EDF0E080816A
:100B60008160808384E082BF81E08093FB04888180
:100B70008E7F888302EE10E0F80110821092DA0076
:100B800081EEC82ED12CF601108288818F77888360
:100B900088818068888388818F7D888319BC1092C2
:100BA000080510920905109207051092060590EEAF
:100BB000E92EF12CF70180818B7F80838881816011
:100BC000888342E060E080E00E947005F601808149
:100BD0008E7F8083F801808181608083808188603E
:100BE0008083F70180818E7F808388818061888304
:100BF000CDB7DEB7E8E00C945231FC0180911005CE
:100C00009091110586179707A0F06115710529F4D9
:100C10009091E8009E779093E80090E0611571054F
:100C200051F4911108C08091E80082FF34C080E047
:100C30000895BC01F2CF809108058823C1F1853069
:100C4000C1F18091E80083FD30C08091E80082FD11
:100C5000EACF8091E80080FFE1CF8091F3002091FE
:100C6000F200382F6115710519F02830310558F060
:100C700091E02830310509F090E02091E8002E77CE
:100C80002093E800CBCF81918093F10061507109EE
:100C90002F5F3F4FE7CF80910805882341F08530D3
:100CA00041F08091E80083FFBECF81E0089582E0AB
:100CB000089583E0089508958091FD0408959C01AE
:100CC0004FB7F8948091F4049091F504A091F60444
:100CD000B091F7044FBF821B930B08952FB7F89480
:100CE0006091F4047091F5048091F6049091F704FA
:100CF0002FBF08952FB7F8948091F4049091F504D4
:100D0000A091F604B091F7042FBF08959C01FC0157
:100D100032969FEF80E04191461751F09F3F19F4C2
:100D2000411101C0982F8F5F8630A9F79F3F09F4CA
:100D30000895290F311D97FD3A95F90162830895B1
:100D4000A3E0B0E0E6EAF6E00C943C312091F10437
:100D50003091F20428173907A1F09093F2048093A0
:100D6000F104E091EF04F091F004309751F024E0A9
:100D700029839B838A830680F781E02DCE0101962B
:100D800009952396E2E00C945831A3E0B0E0EBEC37
:100D9000F6E00C943C312091ED043091EE042817DC
:100DA0003907A1F09093EE048093ED04E091EF04F5
:100DB000F091F004309751F023E029839B838A83DC
:100DC0000680F781E02DCE01019609952396E2E099
:100DD0000C945831FC01680F791F8FEF91E321913A
:100DE000822728E030E087FF09C0880F892721503B
:100DF0003109C9F7E617F70791F70895880FF7CF7C
:100E0000FA01811101C0FB01099508951092200497
:100E100008958093490180917E05837080934801F5
:100E20000E94381383E080934E010895EF92FF9261
:100E30000F939701201B31092F3F310519F010F056
:100E40002FEF30E0322F3095482F430F08F44FEF4B
:100E5000842F620F0F91FF90EF900895EF92FF9211
:100E60000F93972F093438F4B701601B71096F3F56
:100E7000710519F010F06FEF70E0485F5F4F41317E
:100E8000510540F0A901485F5F4F4131510510F015
:100E90006FEF70E06095482F460F08F44FEF842FF6
:100EA00037FF02C02D5F3F4F359527953595279524
:100EB00060917F05620F792F0F91FF90EF90089559
:100EC000EF92FF920F931F930E0D1F2D111DF9012D
:100ED00037FF03C0F195E195F10924E0EE0FFF1F04
:100EE0002A95E1F7EF3FF10519F014F0EFEFF0E08C
:100EF0009A0157FF03C031952195310994E0220FE3
:100F0000331F9A95E1F72E173F070CF4F901E00F14
:100F1000F11FEF3FF10519F010F0EFEFF0E0E09571
:100F2000282F3E2F230F08F42FEF822F1F910F91B0
:100F3000FF90EF900895EF92FF920F93970195E045
:100F4000099F200D311D11242F3F310519F010F09C
:100F50002FEF30E02095382F320F08F43FEF832F2A
:100F60000F91FF90EF90089522E8241B08F420E0F1
:100F7000620F08954095282F429F412D1124842F00
:100F800008950F931F9310E0F801EE0FFF1FEF5C21
:100F9000FD4F9081905797FD9195000F111FF8011B
:100FA000EB50FE4F05AD0052110B2003F001219FC5
:100FB000F00D112408E310E0091B110997FD1395AA
:100FC00040039001419F300D1124E20FF31F9F0158
:100FD000220F331F2E0F3F1F37FF02C021583F4FF4
:100FE000220F232F221F330B620F1F910F910895A1
:100FF0000F931F93522F10E0F801EE0FFF1FEB50DD
:10100000FE4FA5ADA052BB0B9D015203F001539FB3
:10101000F00D1124000F111FD801AF5CBD4F0C91D2
:101020000057110B40039001419F300D11242E0FEA
:101030003F1F37FF02C0215C3F4F96E03595279553
:101040009A95E1F7620F1F910F9108950F931F93E7
:10105000522F10E0F801EE0FFF1FEB50FE4FA5AD31
:10106000A052BB0B9D015203F001539FF00D1124C0
:10107000000F111FD801AF5CBD4F0C910057110B31
:1010800040039001419F300D11242E0F3F1F37FF69
:1010900002C021583F4F220F232F221F330B620F14
:1010A0001F910F910895EF920F93972F23E0029FC6
:1010B000B0011124759567956E0D792F0F91EF9002
:1010C0000895322F50E0FA01EE0FFF1FEB50FE4F54
:1010D00095AD905297FD9195440F551FFA01EF5C25
:1010E000FD4F2081231B330B290F311D97FD3A95AE
:1010F000620F0895E42FF0E0EE0FFF1FEB50FE4F5C
:1011000065AD621B0895E42FF0E0EE0FFF1FEF5C6A
:10111000FD4F6081621B0895622F0895E42FF0E077
:10112000EE0FFF1FEF5CFD4F408134EE439F412DDA
:101130001124E82FF0E050E0445E5F4FDA01A21B7B
:10114000B1099D01B7FF03C031952195310993E0A5
:10115000220F331F9A95E1F7AF01421B530B9A01FF
:1011600057FD20E0582F259F212D1124822F08950F
:10117000E42FF0E0EE0FFF1FEF5CFD4F408134EEF7
:10118000439F412D1124E72FF0E050E0445E5F4F74
:10119000DA01A21BB1099D01B7FF03C0319521956A
:1011A000310993E0220F331F9A95E1F7AF01421BFB
:1011B000530B9A0157FD20E0279F212D1124722FF8
:1011C00008950E94E30A0895FF920F931F93CF930F
:1011D000DF93182F062FF42ED0E0C0E02F2D402FE4
:1011E000612FCE010E94E1082196C434D105B1F7E8
:1011F000CDB7DEB7E5E00C945531FC019B010097BB
:1012000029F480E077FF2BC080E80895AC0197FFB8
:1012100004C044275527481B590BB901640F751F9B
:1012200037FD10C0241B350BC901A5E0880F991F9D
:10123000AA95E1F70E94833180E2861BF7FF0FC079
:1012400081950895CB0165E0880F991F6A95E1F7B4
:10125000BA01621B730B0E94833180E6EECF0895C2
:10126000EF920F93CF93DF93D72FC82FC9010E1999
:10127000BA010E94FD08602F681B7D2F8C2FDF9123
:10128000CF910F91EF9008950F93CF93DF93D72FC6
:10129000C82FC901BA010E94FD08682F600F7D2F79
:1012A0008C2FDF91CF910F910895EF920F931F93A1
:1012B000CF93DF93D62FC72F182FC9010E19010F17
:1012C000BA010E94FD08081B202F219F212D112407
:1012D000822F6D2F7C2FDF91CF911F910F91EF9077
:1012E0000895EF920F931F93CF93DF93D62F172F6D
:1012F000C82FC9010E19070FBA010E94FD08702FEF
:10130000781B719F712D11246D2F8C2FDF91CF9140
:101310001F910F91EF9008950F931F93CF93DF9339
:10132000D62FC72F182FC901212F201B022FBA013A
:101330000E94FD08982F990F990F891B800F282F65
:10134000219F212D1124822F6D2F7C2FDF91CF9192
:101350001F910F9108950F931F93CF93DF93D62F73
:10136000172FC82FC901272F201B022FBA010E9457
:10137000FD08982F990F990F782F791B700F719F87
:10138000712D11246D2F8C2FDF91CF911F910F9113
:101390000895E82F86FDE0952E2F2F7086FD2F5F94
:1013A000E695E695E695E670F0E0E252FE4F918113
:1013B000929F902D212D112492959F702295207F30
:1013C000922B2081920F87FD919580E8890F0895D7
:1013D000AC018230910508F408959FEF413E8EE103
:1013E000580740F49A0195E0369527959A95E1F7CC
:1013F00098E0920F61E0E62FE90FFF27FF1F9F01A2
:1014000035952795822F229FF001239FF00DF00D37
:1014100011244E175F0738F49FEF920F961758F775
:101420008FEF860F08952F3FE9F361E0620FF6CF4B
:101430000F93CF93DF93D72FC82F47FD419588E3B4
:1014400090E0841B910947FD9395889FB001899F87
:10145000700D700D1124229FC001239F900D900DDF
:101460001124860F971F0E94E809982F990F890F62
:10147000682F600F7D2F8C2FDF91CF910F910895F2
:1014800030E020E0869F212D969F200D311D1124F4
:10149000C9010895AF92BF92CF92DF92FF920F934E
:1014A0001F93CF93DF93362F472FE82FF0E0EB53B6
:1014B000FA4F71110FC0E4918E2F2E2F6E2F722FC5
:1014C000DF91CF911F910F91FF90DF90CF90BF9050
:1014D000AF900895C72FD0E02491F22E022F10E094
:1014E00056E0659FC0011124EFEFF0E0BF010E94BC
:1014F0006F31832F90E0880F991F35E5369FD0011B
:10150000379FB00D11248A1B9B0B982F990F980FB2
:101510006F01CC1ADD0AC09ED001C19EB00DD09ED5
:10152000B00D11248B2F499FA0011124452F552761
:101530006F01C41AD50AC09EA001C19E500DD09E55
:10154000500D11245F01A91AB108AC9E6001AD9E37
:10155000D00CBC9ED00C1124CD2CDD24EC19FD093F
:10156000E09FE001E19FD00DF09FD00D1124ED2F01
:1015700062307105A1F050F46115710509F49ECF38
:101580006130710581F0EB2F852F98CF64307105A4
:1015900069F080F06630710509F490CFF4CFE22F46
:1015A0002B2F8D2F8BCFE22F252F88CFEB2F822F44
:1015B0002D2F84CF2B2F8F2DE52F80CF89B185FB49
:1015C000882780F90895FF920F931F93CF93DF939D
:1015D000EC01F62E042F122F0E94DE0A811123C087
:1015E000C232D1051CF1A297FE01EE0FFF1FDF01F1
:1015F000AC0FBD1FAF5DBB4F11968C9111978F1132
:1016000007C08C91801304C012968C91811771F0E1
:1016100081E080932004EC0FFD1FEF5DFB4FF18212
:101620000083128303C0C232D105F4F2CDB7DEB716
:10163000E5E00C945531CF93C82F0E94DE0A882331
:1016400029F081E0C23228F080E003C081E0C43498
:10165000D8F7CF910895A8E0B0E0E1E3FBE00C9467
:101660002C31282E7C836B8320914B018EE0289FA8
:10167000802D11248D83825F8983853410F034E4BA
:1016800039830E94DE0A882329F08981833210F091
:1016900092E299830E94DE0A811105C0ED81E23257
:1016A00010F4F2E2FD83209150052A839D81892F59
:1016B00090E098878F83880F991FFC01EB50FE4FB5
:1016C0006F01822D90E09C012F5F3F4F3E832D8361
:1016D00089819F81981730F00E941B0B2896E2E1C8
:1016E0000C944831EF81F885E754FD4F808190914B
:1016F0004C018923F9F030907F05409080058D8161
:101700009E81805B9A4F3C01522C10E0FA815F165B
:10171000D8F020918105129F112D1124632D742D75
:10172000812F0E944A0A462F282F672F8F81988584
:101730000E94E1082F8138852F5F3F4F38872F8324
:1017400032E0C30ED11CC4CFF30181913F01F601F9
:10175000A4ACA81ABB0885ACF3018781881A990844
:10176000AA9C9001AB9C300D300D1124889CC001C7
:10177000899C900D900D1124820F931F0E94E809FF
:10178000082F6091820521E0620F08F46FEFF301EA
:10179000EE0FFF1FE055F540858996890E94400AAB
:1017A0007C019401A501632D742D812FEB81FC81B7
:1017B0000995362E472E5394182FA8CFB0E0A0E0FD
:1017C000E4EEFBE00C9436317C01C0914B018EE0DD
:1017D000C89FC02D11241EE01C0F153408F014E41E
:1017E0000E94DE0A882319F0133208F012E20E94E8
:1017F000DE0A811103C0C23208F4C2E220918205E0
:1018000031E0230F08F42FEF30E050E040E06FEFBD
:101810007FEF80E090E00E9461326901D0E001E05A
:101820002C2FC11740F0812F0E941B0BCDB7DEB7C4
:10183000E8E00C945231FE01E754FD4F8081909115
:101840004C01892309F1409150054150042E000CB0
:10185000550B47FF1BC0C60160918205600F08F45D
:101860006FEF0E94400AAC0160917F057091800586
:1018700080918105F70109950E944A0A462F282F79
:10188000672FCE010E94E1082196CACFFA01E05BE2
:10189000FA4F818982130AC0FA01EE0FFF1FE05B45
:1018A000FA4F818D928D8C159D05B0F241505109F2
:1018B000D0CFB0E0A0E0EFE5FCE00C9434316C0157
:1018C000C0914B018EE0C89FC02D11241EE01C0F5B
:1018D000153408F014E40E94DE0A882319F013324C
:1018E00008F012E20E94DE0A811103C0C23208F43D
:1018F000C2E2609182056695669580914C05909153
:101900004D050E94400AF82E80E48F0D0E94C909FF
:1019100090E8B92EB80E8F2D0E94C90920E8A22E9A
:10192000A80ED0E0C11740F0812F0E941B0BCDB74D
:10193000DEB7EAE00C945031FE01E754FD4F8081A0
:1019400090914C018923A1F060917F0570918005F1
:1019500080918105EF2C0C2F2A2D4B2DF601099536
:101960000E944A0A462F282F672FCE010E94E108C5
:101970002196D8CFB0E0A0E0E0ECFCE00C94303150
:101980005C01C0914B018EE0C89FC02D11241EE068
:101990001C0F153408F014E40E94DE0A882319F0A5
:1019A000133208F012E20E94DE0A811103C0C23233
:1019B00008F4C2E260918205669580914C05909191
:1019C0004D050E94400AF82ED0E0CE01880F991FE5
:1019D0009C012B503E4F6901C11740F0812F0E949E
:1019E0001B0BCDB7DEB7EEE00C944C31FE01E75493
:1019F000FD4F808190914C01892379F1F60184ADEE
:101A0000282F2057330B490185ADE82FE052FF0BFB
:101A10003F01889C9001899C300D300D1124EE9F70
:101A2000C001EF9F900D900D1124820F931F0E9413
:101A3000E809082F60917F057091800580918105EC
:101A4000EF2C9301A401F50109950E944A0A462F43
:101A5000282F672FCE010E94E108F2E0CF0ED11CA3
:101A60002196BACFB0E0A0E0E8E3FDE00C94353178
:101A70006C01C0914B018EE0C89FC02D11241EE067
:101A80001C0F153408F014E40E94DE0A882319F0B4
:101A9000133208F012E20E94DE0A811103C0C23242
:101AA00008F4C2E260918205669580914C059091A0
:101AB0004D050E94400AB82ED0E0CE01880F991F34
:101AC0009C012B503E4F7901C11740F0812F0E949D
:101AD0001B0BCDB7DEB7E9E00C945131FE01E754A2
:101AE000FD4F808190914C018923C1F0F70125AD14
:101AF0002052330B44AD4057550B60917F057091D8
:101B00008005809181050B2DF60109950E944A0AF6
:101B1000462F282F672FCE010E94E108F2E0EF0E3A
:101B2000F11C2196D1CFEF92FF920F931F93CF9389
:101B3000DF937C01C0914B018EE0C89FC02D112422
:101B40001EE01C0F153408F014E40E94DE0A8823FE
:101B500019F0133208F012E20E94DE0A811103C06C
:101B6000C23208F4C2E2609182056695669521E072
:101B7000620F08F46FEF80914C0590914D050E9423
:101B8000400A082FD0E0C11740F0812F0E941B0BA4
:101B9000CDB7DEB7E6E00C945431FE01E754FD4FBB
:101BA000808190914C01892391F060917F05709123
:101BB000800580918105202F4C2FF70109950E9407
:101BC0004A0A462F282F672FCE010E94E10821964E
:101BD000DACFF894E82FE295EF70F0E031A1282FEA
:101BE0002F7081E090E001C0880F2A95EAF7982FC6
:101BF0009095932391A392A1892B82A37894089521
:101C000090918C0392FF10C041E0282F2471243062
:101C100009F040E031E0282F2871283009F030E049
:101C2000431711F02CE0822793FF10C041E0282FCA
:101C30002471243109F040E031E0282F2871283147
:101C400009F030E0431711F02CE0822730918D032A
:101C500030FF10C051E0282F2171213009F050E0F1
:101C600041E0282F2871283009F040E0541711F086
:101C700029E0822731FF10C041E0282F2171213156
:101C800009F040E031E0282F2871283109F030E0D8
:101C9000431711F029E0822794FD877E089582384A
:101CA0009105B9F1B0F48133910509F47DC048F490
:101CB0008932910509F46DC08A32910509F47BC01F
:101CC00008958533910509F45FC08933910509F1C1
:101CD0000895833E9105D9F138F4803E910529F1AC
:101CE000823E910579F10895863E9105D9F1873EAE
:101CF000910509F43EC0843E910541F520918D0384
:101D000021FF24C080918C0384FD19C087EE90E0F0
:101D1000089520918C03237009F05AC020918D03FF
:101D200023FF14C089E290E0089520918C0320FDE8
:101D300038C030918D0330FF09C024FF43C090E0CC
:101D400080E0089520918C0322FDF7CF0895209123
:101D50008C0322FD3AC030918D0330FD39C024FF41
:101D6000F5CFEDCF20918C0323FFF0CF24FDE7CFFB
:101D7000CDCF20918C0323FD2EC030918D0331FFF8
:101D8000EECF84EE90E0089520918C0325FFDECF06
:101D9000C9CF20918C0325FD21C020918D0323FF05
:101DA000D5CF89E390E0D2CF20918C0326FFCECF10
:101DB0008AE290E0089520918C0326FFC7CF81E34B
:101DC00090E0089583EE90E0089582EE90E008950B
:101DD00080EE90E0089586EE90E0089585E390E02F
:101DE0000895972F7A30B8F46630A8F48430B0F4B0
:101DF00070E026E0929F600D711D1124FB019CE3B1
:101E0000899FE00DF11D1124EE0FFF1FE353FE4FDC
:101E100085919491089580E090E0089581E0FCCF51
:101E20001F93CF93DF930E944F0EEC01C11580E505
:101E3000D807F0F5C11580E4D80708F09CC0C03E73
:101E4000D10520F5CD3CD10508F082C0C83AD105B6
:101E500078F4C53AD10508F073C0C130D10519F145
:101E6000209709F1C430D105F0F4D0E0C0E01BC0E8
:101E7000C33CD105D0F7C85AD0E0CC0FDD1FCE56F9
:101E8000DE4F0990D881C02DD4640DC0C11580E209
:101E9000D80708F0D1C0C11581E0D80708F05AC0B2
:101EA000C83ED10510F7CE01DF91CF911F91089563
:101EB000C03682E5D80718F5C03482E5D80708F0A7
:101EC0006BC0C03282E5D80708F05FC0C11582E55B
:101ED000D80708F497C02C2F2695269580E2289FD6
:101EE000900111248C2F8370C1E0D0E002C0CC0F90
:101EF000DD1F8A95E2F7C22BD32BDD68D4CFC03A21
:101F000082E5D80760F4C03882E5D80708F459C0E4
:101F1000CF71D0E0DC2FCC27C46FD06AC4CFC03CD7
:101F200082E5D80708F462C0C03E82E5D80708F011
:101F30009CCFDC2FCC27CC27DF71C06FD06AB3CF0A
:101F4000C55AD0E0C157DE4FC881D0E0D064ABCFD6
:101F5000D065A9CF8D2F0E94000E182FCE01992792
:101F60000E944F0EC12FD0E0DC2FCC27CC27DF7191
:101F7000C82BD92B98CFCE0199270E944F0ECC2782
:101F8000DF70C82BD92BD06A8ECFCF71D0E0DC2F79
:101F9000CC27C16FD06A87CF2C2F26952695277026
:101FA00080E2289F900111248C2F8370C1E0D0E043
:101FB00002C0CC0FDD1F8A95E2F7C22BD32BDC6861
:101FC00072CF2C2F26952695277080E2289F9001AE
:101FD00011248C2F8370C1E0D0E002C0CC0FDD1F34
:101FE0008A95E2F7C22BD32BDA685DCF8C2F8F71E5
:101FF0000E94000EC82FD0E0DC2FCC27CC27DF7149
:10200000D06251CF8C2F8F710E94000E55E0D69573
:10201000C7955A95E1F7CF70D0E0DC2FCC27282F59
:1020200030E084FF05C044E0220F331F4A95E1F7FA
:10203000C22BD32BD06937CF8D2F8F710E94000E0A
:10204000182FCE0199270E944F0EC12FD0E0DC2F10
:10205000CC27CC27DF71C82BD92BD2CF809590917C
:102060003C03982390933C03089580914B059091F5
:102070001205981301C008958F5F8770FACFB0E002
:10208000A0E0E5E4F0E10C9435317C0100918A0395
:1020900010918B0380913D0390913E03082B192BE7
:1020A000CFE0D0E0CC24C394D12CBC2EC6010C2EA2
:1020B00002C0880F991F0A94E2F780239123892B8D
:1020C00049F4219790F7B12C8B2DCDB7DEB7E9E01D
:1020D0000C945131B7018C2F0E94F10E0E94100F09
:1020E000019779F3F1CFCF93DF93EC010E943F107A
:1020F000BE010E94F10E0E94100FDF91CF91089552
:102100009A3078F5863068F5E82FF0E086E0989F01
:10211000E00DF11D11249E2F977083E0F695E79551
:102120008A95E1F7EE0FFF1FEE0FFF1FE65FFC4FF2
:1021300050E040E080E0219130E0092E02C0369569
:1021400027950A94E2F721703327042E01C0220F4D
:102150000A94EAF7822B4F5F5F4F4430510559F7DD
:10216000089580E008959A3098F5863088F5E82F34
:10217000F0E086E0989FE00DF11D11248E2F87700E
:1021800041E001C0440F8A95EAF783E0F695E795B0
:102190008A95E1F7EE0FFF1FEE0FFF1FE65FFC4F82
:1021A00030E020E070E05191DF011197CB01022E69
:1021B00002C0969587950A94E2F7817081958527EC
:1021C000842385278C932F5F3F4F2430310559F7A7
:1021D000089590938B0380938A03089521E030E063
:1021E00002C0220F331F8A95E2F720953095809127
:1021F0008A0390918B03822393230E94E910089510
:10220000909131038095892380933103282F277083
:1022100069F4891759F090918D0392FF07C0869554
:10222000869586950E94EE1010923103089521E064
:1022300030E002C0220F331F8A95E2F780918A03B3
:1022400090918B03822B932B0E94E9100895909319
:102250003E0380933D030895FC0124812223C1F0B5
:10226000808191810E94731092959F70963091F0B9
:1022700058F4925F9F70923058F4803F19F030F418
:10228000883E30F481E008959A5FF4CF843FD1F323
:1022900080E00895883EB0F3813FD1F7F3CF829577
:1022A00090E09C01220F331F220F331F2C7C959549
:1022B0008795959587958373282B30E0C901880F02
:1022C000991F8A7A359527952575822B0895A6E062
:1022D000B0E0EDE6F1E10C943B3149835A8349814A
:1022E0005A819923A1F0222391F0CA010E943F1044
:1022F000182F682F89819A810E94B31069817A8191
:10230000812F0E94F10E2696E3E00C945731CA010A
:102310000E948010182FF2CF90917E05937031F1BA
:10232000811125C0946090937E0510924E0180919A
:102330007C05816080937C0580917D0580FF16C0BF
:1023400080917E05869586951F928F938DE591E00D
:102350009F938F938AED97E09F938F930E94D90468
:102360000F900F900F900F900F900F900895833261
:1023700010F09868D8CF880F880F982BD4CF809111
:102380007E0586958695815009F482E20E948C1123
:10239000089580917E05869586958F5F833208F03B
:1023A00081E00E948C11089520917E05237059F1DF
:1023B00080937F0560938005493708F048E7409394
:1023C000810520917C05216020937C0520917D056D
:1023D00020FF19C01F924F931F926F9399279F93CD
:1023E0008F938DE591E09F938F9387EB97E09F9379
:1023F0008F930E94D9048DB79EB70A960FB6F894B2
:102400009EBF0FBE8DBF0895EEE7F5E0438120E14A
:10241000421B08F440E08181628190E00E94D41167
:102420000895EEE7F5E0438120E1420F08F44FEF15
:102430008181628190E00E94D4110895EEE7F5E079
:10244000628120E1621B08F460E08181438190E0B9
:102450000E94D4110895EEE7F5E0628120E1620F59
:1024600008F46FEF8181438190E00E94D4110895B8
:10247000EEE7F5E08181438162818850990B0E94EB
:10248000D4110895EEE7F5E0818190E04381628107
:1024900008960E94D41108958093820590917C053E
:1024A000916090937C0590917D0590FF12C01F92E2
:1024B0008F938DE591E09F938F9388E997E09F93A9
:1024C0008F930E94D9040F900F900F900F900F9050
:1024D0000F9008958091820520E1382F321B08F477
:1024E00030E0832F0E944C1208958091820520E1F4
:1024F000382F320F08F43FEF832F0E944C120895BB
:102500009FB7F8941092F9049FBF909108059430FA
:1025100009F048C02091E9002F703091EC00932F12
:10252000917030FD90E8922B23E02093E9002091F8
:10253000EB0020FF34C02091EE0027FF30C0209137
:10254000F804222321F02091E80025FF28C01092F2
:10255000F80426E03091E80035FF14C08093F100C4
:102560008091E80085FD27C08091E80080FFFCCFC6
:102570008091E8008E778093E8009F709093E90047
:1025800080E0089530910805343049F43091EB0033
:1025900035FD05C0215041F481E08093F8049F701F
:1025A0009093E9008FEF0895EFE9FFE03197F1F79D
:1025B00000C00000CFCF8FB7F89421E02093F9043A
:1025C0008FBFDBCF0F931F93CF93DF938B01EA0174
:1025D00090910805943061F58093E9008FEF909118
:1025E000E800815095FD06C095ED9A95F1F7000041
:1025F0008111F5CF8091E80085FF1AC00E94200567
:10260000811111C08091E80085FD06C08091E8002D
:102610008E778093E800F2CFF80181918F0180934B
:10262000F100219779F78091E8008E778093E80098
:10263000DF91CF911F910F91089543E050E0BC01CD
:1026400082E00E94E2120895CF93DF93EC0148E00C
:1026500050E0BC0181E00E94E21288E0FE01AEEF92
:10266000B4E001900D928A95E1F7DF91CF91089542
:1026700080912004882341F16E9A3EB13F7B2EB1B8
:1026800020644FB7F89481E294E0FC015191CF01AE
:1026900068E02EB9000000C057FF3EB9550F00009A
:1026A00000C000C000C03EB900C06A9591F7F4E0D8
:1026B0008D3E9F0751F74FBF8FE594E00197F1F7EB
:1026C00000C00000109220040895B0E0A0E0EBE606
:1026D000F3E10C9431317C015B01842E752E69018C
:1026E00080914C0301E010E08A3010F40AE010E021
:1026F000C1E0D0E0B501C701F6010995982E81111E
:1027000014C021960C171D07B4F480917D0580FF3D
:102710000CC07F928F9286EF93E09F938F930E94DD
:10272000D9040F900F900F900F90892DCDB7DEB781
:10273000EDE00C944D31CC9F9001CD9F300D300DCC
:10274000112490E080E045E34A95F1F700000196FE
:1027500028173907C1F7CECF80914B03811110C0E4
:102760008091D80080618093D8008AE18A95F1F742
:1027700000C08091D90080FF0AC081E080934B03A4
:1027800081E090914B03913009F080E0089582E060
:1027900080934B030E94010510920805F1CF0E941F
:1027A000AC13882359F0E091EF04F091F0043097D6
:1027B00029F00190F081E02D0995089580E00895B9
:1027C0000F931F930E94AC13882329F00E946E067A
:1027D0001F910F9108950E946E0600917803109149
:1027E000790320917A0330917B03600F711F821F60
:1027F000931FEECFCF92DF92EF92FF926B017C019D
:102800000E94AC138823A1F02FB7F8946091F404D0
:102810007091F5048091F6049091F7042FBF6C1924
:102820007D098E099F09FF90EF90DF90CF9008956A
:102830000E94E013F4CF0E94E013089580917D057B
:1028400080FF08C085EC96E09F938F930E94D90487
:102850000F900F9085E380937E0580914F019091BA
:102860005001A091510180937F0590938005A09322
:1028700081058FE7809382058FEF8093830548E081
:1028800050E068E170E08EE795E00E942D321092F2
:102890007C050895B0E0A0E0E0E5F4E10C942F3170
:1028A000F82E809149018F1124C090917E0593707C
:1028B0002091480130E081E09217130609F480E08E
:1028C000817080934D018091830590914C01981700
:1028D00039F080934C0140E060E080E00E94E40821
:1028E00022E22F1560F0EF2DF0E0EA53FD4C0C943E
:1028F000973181E0E5CF80914D01811102C080E0E8
:1029000074C140E060E080E00E94E408F8CFC0912C
:102910004B018EE0C89FC02D11241EE01C0F153402
:1029200008F014E40E94DE0A882319F0133208F03C
:1029300012E20E94DE0A811103C0C23208F4C2E230
:1029400060917F0570918005809181050E944A0AFF
:10295000062FE72ED82ED0E0C11720F0812F0E943D
:102960001B0B43C1FE01E754FD4F808190914C0148
:10297000892331F02D2D402F6E2DCE010E94E108CC
:102980002196EACFC0914B018EE0C89FC02D112443
:102990001EE01C0F153408F014E40E94DE0A8823A0
:1029A00019F0133208F012E20E94DE0A811103C00E
:1029B000C23208F4C2E2E090800500918105D09116
:1029C0007F056D2F7E2D802F0E944A0AD62EC72E9E
:1029D000B82E609182056D0F7E2D802F0E944A0ACD
:1029E000062FE72EA82ED0E0C11708F0B7CFFE01C2
:1029F000E754FD4F908180914C01892359F02A2D95
:102A0000402F6E2D90FD03C02B2D4D2D6C2DCE0132
:102A10000E94E1082196E8CFC0914B018EE0C89F4B
:102A2000C02D11241EE01C0F153408F014E40E9480
:102A3000DE0A882319F0133208F012E20E94DE0A3F
:102A4000811103C0C23208F4C2E2E0908005D09048
:102A500081052091820500E4029F012D1124D0E020
:102A6000C11708F07BCFFE01E754FD4F80819091A4
:102A70004C018923B9F0FE01EE0FFF1FEB50FE4F12
:102A800085AD82958F7060917F05809F600D1124C8
:102A90007E2D8D2D0E944A0A462F282F672FCE01AA
:102AA0000E94E1082196DCCFC0914B018EE0C89FC7
:102AB000C02D11241EE01C0F153408F014E40E94F0
:102AC000DE0A882319F0133208F012E20E94DE0AAF
:102AD000811103C0C23208F4C2E2E0908005D090B8
:102AE00081052091820500E4029F012D1124D0E090
:102AF000C11708F033CFFE01E754FD4F808190915C
:102B00004C018923D9F0FE01EE0FFF1FEB50FE4F61
:102B100064AD069FB0011124E5E075956795EA95CF
:102B2000E1F780917F05680F7E2D8D2D0E944A0A66
:102B3000462F282F672FCE010E94E1082196D8CF7B
:102B4000C0914B018EE0C89FC02D11241EE01C0FC8
:102B5000153408F014E40E94DE0A882319F01332B9
:102B600008F012E20E94DE0A811103C0C23208F4AA
:102B7000C2E200917F05D0918005E09081056091CF
:102B8000820566956695669580914C0590914D05F8
:102B90000E94400A0E94C909805887FD8195880FCC
:102BA000282F3E2D239F212D1124822F602F7D2F32
:102BB0000E944A0A062FE72ED82ED0E0C11708F04F
:102BC000CDCEFE01E754FD4F808190914C018923C9
:102BD00031F02D2D402F6E2DCE010E94E10821965F
:102BE000EDCF88EB98E00E94930D90914B019F5F91
:102BF00090934B0181110CC082E080934E01809133
:102C00004D01811105C0F11003C083E080934E0196
:102C1000CDB7DEB7EFE00C944B318EE898E0E3CF10
:102C20008BEA99E00E94320DE0CF8CE899E0FACF70
:102C300081E799E00E94BA0CD8CF85E599E0FACFF8
:102C40008CE898E0D0CF83E898E0CDCF8AE798E091
:102C5000CACF81E698E0C7CF83E598E0EBCF88E163
:102C60009AE0E0CF84E499E0DDCF80E399E0E2CF21
:102C700086E298E00E94590CB8CF88EF97E0FACF2F
:102C800081EC97E0F7CFE0904B018EE0E89EE02CDE
:102C900011240EE00E0D053408F004E40E94DE0A53
:102CA000882319F0033208F002E20E94DE0A811143
:102CB00005C082E2E81610F442E2E42E80914D0154
:102CC000882361F040E060E080E00E94E408E6EBE9
:102CD000F3E08CE3DF011D928A95E9F780914B01C7
:102CE000811115C08091B2039091B3030E945F06D9
:102CF00021E08931910508F420E02093B103499740
:102D000030F00E947A069093B3038093B203A12C13
:102D1000912CB12C96E0792E25E5622E3AEA832E8D
:102D20005524539405C09DE0991508F453C0B12C67
:102D30002B2D30E07A9CE0011124FE01EB50FE4F78
:102D4000E20FF31FC080CE1408F43CC0C01608F098
:102D500039C09394D12CF601E754FD4F80819091B6
:102D60004C01892309F42EC0CA54DC4FC20FD31F73
:102D70001881312F262D321B08F430E07091800528
:102D8000282D210F08F42FEF40918105822F880F05
:102D9000820F8E5F282F249F212D1124822F682DD2
:102DA000631B0E944A0A462F282F672FC6010E94E4
:102DB000E1088091B103882329F0352D131B08F415
:102DC00010E01883B39446E0B412B2CFA3948AE023
:102DD000A812A9CF802FC3CDE0908105A3E0EA9E81
:102DE000E0011124D695C795D695C7955C2EAE2CDB
:102DF000B12C8FEF90E0B5010E948331762E809147
:102E00004D01882371F040E060E080E00E94E4081A
:102E1000E6EBF3E08CE3DF011D928A95E9F710926F
:102E2000B5038091B4038F5F8093B40310E000E09A
:102E3000AC1ABD0A6801612CC8018A549C4F4C0130
:102E40008091B503862909F040C00E94E93185359B
:102E50009540DCF5F401E082F601EB50FE4FE08195
:102E6000EF3FC9F0D601AA54BC4F2C91F0E05216A6
:102E7000E0F530E02C1B3D0B2C9FC0012D9F900DE9
:102E80003C9F900D1124B5010E946F31262F4E2DCD
:102E9000CF010E94E1086394F6E0CF0ED11C2AE036
:102EA0006212CECF0F5F1F4F0630110519F68091C9
:102EB000B403781202C01092B4038091B5038F5FFF
:102EC0008D31E8F48093B5031ACDF601EA54FC4F36
:102ED0008081882309F28E1508F0BECF9091B4034B
:102EE0007912BACF81508083B7CFE29EC0011124FE
:102EF000BE010E946F31462F20E060E0C9CF1092E2
:102F0000B50326EE33E089E09FEF9E0DA6EBB3E01C
:102F1000F901893041F4D6964C91D697E41203C05A
:102F2000D6969C93D69740814E1510F09083E682FA
:102F30001196319643E0AC3BB40759F781502650C7
:102F400031098111E3CFDBCC8AEB97E00E94DE0BE5
:102F50004CCE84EB97E0FACF8091500521E0382FDA
:102F6000321B08F430E0832F6BE977E00E942B0BD3
:102F70003CCE6BE977E080E0F9CF8091500521E00D
:102F8000482F421B08F440E0842F60E677E0EECF44
:102F900060E677E0F0CF8091500521E0382F321BBA
:102FA00008F430E0832F6EE277E0E0CF6EE277E066
:102FB000E2CF8091500521E0482F421B08F440E009
:102FC000842F66E177E0D2CF66E177E0D4CF4F92ED
:102FD0005F926F927F928F929F92AF92BF92CF92A9
:102FE000DF92EF92FF92CF9360911B0470911C04CB
:102FF00080911D0490911E040E94FA136B017C01C4
:103000000E94E0134B015C0180921B0490921C040F
:10301000A0921D04B0921E04A091F203E2EFF3E02F
:103020008A2F90E04FEF5FEF60E070E04C195D0990
:103030006E097F09A9132AC08093F20380911F04AF
:10304000C0E0811108C080917E05C82FC37019F0BF
:10305000C82FC695C69580914E01813009F440C0B5
:10306000882339F1823009F445C0833009F446C021
:10307000CF91FF90EF90DF90CF90BF90AF909F9057
:103080008F907F906F905F904F900895218D328D3B
:103090002901712C612C441555056605770520F42E
:1030A00081509F5F3296C6CF2C0D3D1D328F218FF0
:1030B000F8CF10924B0180924C0590924D05A09252
:1030C0004E05B0924F0589E2E2EFF3E0A0E5B5E0EE
:1030D00001900D928A95E1F781E080934E01C8CF6F
:1030E0008C2F0E944A14CC2319F20E94DE0A0E94FF
:1030F000DE0ABECF8C2F0E940907BACF80917C05D3
:10310000882351F048E050E068E170E08EE795E0F8
:103110000E942D3210927C0560914C0570914D05F6
:1031200080914E0590914F050E94FA136031710510
:103130008105910508F49CCF10924E0199CFAFE024
:10314000B0E0E5EAF8E10C9431318E010F5F1F4FDA
:103150008AE0D8011D928A95E9F78AE3C82E81E0BA
:10316000D82EF12CE12CAA24A394B12C2AE3822E90
:1031700021E0922EF60181916F018F3F09F442C048
:10318000F894E82FE295EF70F0E021A18F70A5018F
:1031900002C0440F551F8A95E2F7CA01922F982B5F
:1031A00091A392A18095892382A3789400C0E4E33F
:1031B000F1E0712C31E021912F3F09F46BC0A22F77
:1031C000A295AF70B0E090968C9190E02F7002C005
:1031D000959587952A95E2F780FD5CC0832F782A24
:1031E000330F8E169F0639F7F601319780818F3F96
:1031F00011F00E94E90D50EA5A95F1F7F801EE0D31
:10320000FF1D70828FEFE81AF80A95E0E916F104C5
:1032100009F0B0CF4AE050E0B8018EE793E00E9499
:10322000F931009741F02AE0F801AEE7B3E00190F0
:103230000D922A95E1F700918903892B69F181E0CC
:10324000809343030E947A06909342038093410344
:1032500080914103909142030E945F06059700F11F
:1032600010E002571C4F45E050E06EE773E0C801E4
:103270000E94F931C12C892B51F085E0EEE7F3E093
:10328000D80101900D928A95E1F7CC24C394109255
:10329000430307C080E0A3CF809143038111D8CFBF
:1032A000C12C0E94AC13D82EE0918903DE011B963D
:1032B0007D01882309F499C085E01D928A95E9F77C
:1032C0000E2F10E002571C4FB0904C03B9E0BB1515
:1032D00008F447C027E830E244E651E0B701C801EE
:1032E0000E946513882309F45EC02EE230E241E7B4
:1032F00051E0B701C8010E946513882309F453C047
:1033000023E33FE149E751E0B701C8010E9465139B
:10331000882309F448C021ED3EE144E851E0B701BB
:10332000C8010E9465138823F1F1F9E0FB1508F448
:1033300053C010924C038091880390E045E050E028
:10334000B70182579C4F0E94F93121E020934A0334
:10335000892BE1F4D12C8D2D8C292F96EDE00C9446
:103360004D3180914403909145030E945F06843F54
:10337000914008F0AFCF80914A03882359F385E04C
:10338000D7011D928A95E9F710924A03A09188030C
:10339000B0E0A257BC4F85E0FE013B9601900D9234
:1033A0008A95E1F7D8CF80914C038F3F31F08F5F42
:1033B00080934C038A3008F4BECF0E947A06909323
:1033C00045038093440380917D0580FFD4CF80EC3A
:1033D00093E00E944004CFCF80917D0580FFA9CF6C
:1033E0008DEA93E00E944004A4CFF0E0E257FC4F46
:1033F00085E0AFE5B3E001900D928A95E1F765E0D5
:1034000070E08FE593E00E94EA0680935E034091AE
:10341000AB0350E06091AA0370E06E557C4FC7018A
:103420000E9406328B859C8590936603809365038A
:1034300062E070E0C7010E94EA0680936403809016
:10344000670390906803A0906903B0906A0380912D
:10345000460390914703A0914803B0914903881611
:103460009906AA06BB06D1F08092460390924703C4
:10347000A0924803B09249030E94AC1381110EC080
:103480000E946E06861A970AA80AB90A80927803E3
:1034900090927903A0927A03B0927B0388E0EBE6E6
:1034A000F3E0AEE7B5E001900D928A95E1F7109157
:1034B0007303112349F080911F04811105C00E94FC
:1034C0004A1480E00E94090710931F0444CF0F9311
:1034D0001F93CF93DF9380913C0390913B03892B03
:1034E0008093000390913A03992391F0892B809364
:1034F000000320E082E093E0FC013191CF01311123
:103500002F5FF3E088309F07B9F7211110923A033B
:1035100048E050E062E373E080E093E00E94F9311C
:10352000892B09F441C088E0E0E0F3E0A2E3B3E0D6
:1035300001900D928A95E1F7E091EF04F091F0048B
:10354000309791F10280F381E02D80E093E00995BE
:1035500080917D0582FF28C080FF04C08BEB91E045
:103560000E944004D0E0C0E005EB11E080917D05B1
:1035700080FF0EC0FE01E050FD4F80811F928F93AF
:103580001F930F930E94D9040F900F900F900F90EC
:103590002196C830D10551F780917D0580FF04C088
:1035A00083EB91E00E944004DF91CF911F910F9136
:1035B000089510923C03E2E0F3E086E0DF011D9203
:1035C0008A95E9F790E080E00E94C50690E080E0EF
:1035D0000E94A00610923B030E94671A0895AAE277
:1035E000B0E0E5EFFAE10C943B318AE095E0209100
:1035F000F100DC012D93CD01B5E082319B07B9F7D5
:1036000080910B05833009F470C0B8F4813009F45F
:1036100047C0823009F4B1C08091E80083FF84C2C2
:1036200080910A0590910B059A3008F07DC2E92F30
:10363000F0E0E751FD4C0C9497318A3009F48CC0CE
:103640008B3009F46FC0893039F780910A058132D7
:1036500019F780910E0590910F050297E8F6809179
:10366000E800877F8093E8008091E80082FF38C0FF
:103670009091F3008091F200029731F48091F10073
:10368000813011F0863021F48091F1008093FD04A7
:103690008091E8008B778093E8000E945105BCCFB1
:1036A00080910A05813A09F0B7CF8091E800877FC1
:1036B0008093E80080910E0590910F05892B61F4AD
:1036C00068E08EEF94E070E00E94FD058091E800D4
:1036D0008B778093E800A0CF60E090E080E0F3CFAC
:1036E000809108058111C0CF97CF80910A05813A5A
:1036F00009F092CF80910E0590910F05892B09F06A
:103700008BCF8091E800877F8093E8008091E8006C
:1037100080FFFCCF80914A018093F1008091E80006
:103720008E77B9CF80910A05813209F075CF8091EB
:103730000E0590910F05892B09F06ECF8091E8005E
:10374000877F8093E8000E94510580910C0580934B
:103750004A010E94D91A60CF80910A05813209F08E
:103760005BCF8091E800877F8093E8000E9451053D
:1037700080910D058093FC044FCF80910A05813A1A
:1037800009F04ACF8091E800877F8093E80080911C
:10379000E80080FFFCCF8091FC04BECF803899F018
:1037A000823809F0C1C180910E058F70873008F012
:1037B000BBC18093E9008091EB0085FB882780F9ED
:1037C0001092E90006C080910605909107059111BD
:1037D00082609091E800977F9093E8008093F100D9
:1037E0001092F1008091E8008E779AC1882309F445
:1037F00088C1823009F098C180910C0581118BC17C
:1038000080910E058F702FEF280F263008F08CC1A5
:103810008093E9002091EB0020FF7DC1933031F4CB
:103820008091EB0080628093EB0075C19091EB007A
:1038300090619093EB0021E030E001C0220F8A9567
:10384000EAF72093EA001092EA008091EB0088608A
:10385000EACF811169C110910C051F778091E300B7
:103860008078812B8093E3008091E800877F8093AC
:10387000E8000E9451058091E80080FFFCCF809114
:10388000E30080688093E30082E0111183E080937D
:1038900008054AC18058823008F046C120910C05C5
:1038A00030910D052C3DE3E03E07A1F583E08A83CE
:1038B0008AE289834FB7F894DE01139620E03EE058
:1038C00051E2E32FF0E050935700E49120FF03C052
:1038D000E295EF703F5FEF708E2F90E0EA30C0F01E
:1038E000C7968D939D932F5F243159F74FBF8091D9
:1038F000E800877F8093E8006AE270E0CE010196DD
:103900000E94FD058091E8008B778093E8000CC150
:10391000C096E7CF80910E0590910F05432F552754
:103920004330510509F44AC078F54130510509F496
:103930007AC08BE590E0EDEFF6E04230510509F0FA
:10394000F3C02091E800277F2093E8002091100524
:10395000309111058217930708F49C0140E021156E
:10396000310509F065C0411163C08091E80082FD16
:10397000C9CF80910805882329F2853019F28091FA
:10398000E80083FFF2CFBECF4132510509F43CC0BD
:103990004232510509F0C8C08330910508F0C4C017
:1039A000FC01EE0FFF1FE751FE4F0190F081E02D6B
:1039B0008A519E4FDC018C9190E01AC03327213050
:1039C0003105D1F02115310561F02230310509F0C2
:1039D000ABC0EAE6F7E0E4918E2F90E0EAE6F7E08C
:1039E00007C0E4E9F7E0E4918E2F90E0E4E9F7E026
:1039F000009709F499C0A5CFE4E8F7E0E4918E2F91
:103A000090E0E4E8F7E0F4CF8330910508F08CC053
:103A1000880F991FFC01E151FE4F0190F081E02DCC
:103A200089E090E08ECF82E190E0E8E5F7E089CF91
:103A300080910805882309F465CF853009F462CFA9
:103A40008091E80083FD5ECF8091E80082FD8DCFFC
:103A50008091E80080FF83CF9091F3008091F20085
:103A60002115310519F08830910550F041E0089793
:103A700009F040E08091E8008E778093E8006FCFF6
:103A800044914093F1003196215031090196E8CFDD
:103A9000803809F049C08091E800877F8093E80072
:103AA000809109058093F1009DCE81113DC0109158
:103AB0000C051230C8F58091E800877F8093E800FC
:103AC000109309050E945105112311F084E005C0EF
:103AD0008091E30087FDFACF81E08093080542E002
:103AE00061EC81E00E94700542E261EC82E00E949C
:103AF000700542E261EC83E00E9470058091080548
:103B000013C080910C05813079F481E0933009F085
:103B100080E0809307051092E9008091E800877F9C
:103B20008093E8000E9451058091E80083FF0AC05D
:103B30008091E800877F8093E8008091EB008062AD
:103B40008093EB00AA96E3E00C9457310E94D91AB7
:103B50002FEF84E39CE0215080409040E1F700C0CB
:103B6000000088E19CE00FB6F894A895809360006F
:103B70000FBE90936000FFCF882321F00E942E108B
:103B80000E94671A0895882339F090913C03982B7E
:103B900090933C030E94671A0895882391F19CEF4B
:103BA000980F913A80F4E2E0F3E028E033E091915D
:103BB000891303C0DF0111971C922E173F07B9F735
:103BC0000E94671A089590E2980F983050F4877019
:103BD00091E001C0990F8A95EAF7892F0E942E1073
:103BE000EFCF9BE5980F933028F490E080E00E949F
:103BF000C5060895885A8B3120F490E080E00E9439
:103C0000A0060895CF93C82F8823B1F08CEF8C0FB6
:103C1000813A00F5E2E0F3E088E093E0DF012D91E6
:103C2000C21761F08A179B07D1F76C2F80E093E0F1
:103C30000E9486060E94671ACF9108952191C213AF
:103C400003C0DF0111971C928E179F07B9F70E94DE
:103C5000671AEBCF80E28C0F883068F4C77021E0E0
:103C600030E001C0220FCA95EAF780913C03822B15
:103C700080933C03DFCFEBE5EC0FE33040F4F0E062
:103C8000E157FE4F808190E00E94C506D5CFC85A0B
:103C9000CB3190F6EC2FF0E0EE0FFF1FEE56FE4F0B
:103CA000808191810E94A006C7CFCF93C82F0E9428
:103CB000021E8C2F0E94CD1DCF9108950F931F934C
:103CC000CF93DF93C62FD42F022FFC018581882349
:103CD000A9F060937B050E947A0690937A05809301
:103CE0007905C77081E001C0880FCA95EAF70E9484
:103CF000C31DDF91CF911F910F91089580917B0596
:103D0000681332C08091790590917A050E945F0610
:103D1000883C910548F510E21D0FCD17B9F080E2FF
:103D20008C0F883040F4C77081E001C0880FCA95BD
:103D3000EAF70E94BC1D183048F481E09D2F97706F
:103D400001C0880F9A95EAF70E94C31D802F0E9438
:103D5000551E183070F6D77081E001C0880FDA95D3
:103D6000EAF70E94BC1DC5CFC77081E001C0880F73
:103D7000CA95EAF7F6CF811108C089EA611101C03E
:103D80008AEA0E94551E80E00895813029F48EE46D
:103D90006111F7CF8BE4F5CF823079F3833099F757
:103DA000F6CFA9E0B0E0E7EDFEE10C943A3188E00F
:103DB000EEE7F5E0DE01119601900D928A95E1F7AC
:103DC00080911F04898749E050E06BE673E0CE01E3
:103DD00001960E94F93100917403109175032091AE
:103DE000760330917703EFB7F8944091F404509143
:103DF000F5046091F6047091F704EFBF401B510B7E
:103E0000620B730B443651056105710518F411E01E
:103E1000892B21F180912D0190912E01825A9C4F86
:103E200040912C0150E04A30510510F049E050E03B
:103E3000BE016F5F7F4F0E94063285E090E00E94D6
:103E4000B630182F882351F00E946E0660937403D9
:103E5000709375038093760390937703812F29964F
:103E6000E4E00C945631A4E0B0E0E9E3FFE10C9407
:103E70003B3140915A0350915B0360915C03709118
:103E80005D032FB7F8948091F4049091F504A0910C
:103E9000F604B091F7042FBF841B950BA60BB70B4C
:103EA00011E084369105A105B10570F10E94E0137F
:103EB0006E5F7F4F8F4F9F4F69837A838B839C8385
:103EC0008091250190912601825A9C4F40912401B6
:103ED00050E04530510510F044E050E0BE016F5F06
:103EE0007F4F0E94063284E090E00E94B630182F87
:103EF000882351F00E946E0660935A0370935B030F
:103F000080935C0390935D03812F2496E3E00C94EF
:103F100057314F925F927F928F929F92AF92BF9252
:103F2000CF92DF92EF92FF920F931F93CF93DF9385
:103F30000F92CDB7DEB7C62E4A015901482E880F21
:103F40005508C2010E94B630782E882309F480C03B
:103F5000C20133E0880F991F3A95E1F7FC01EC5F4D
:103F6000FE4F438150E04115510511F041E050E012
:103F70008C5F9E4FFC0164817581625A7C4FCE013B
:103F800001960E940632F401408151816281738161
:103F90002FB7F8948091F4049091F504A091F60461
:103FA000B091F7042FBF841B950BA60BB70B84367B
:103FB0009105A105B10540F4B701C8010E94EA06C8
:103FC0009981891709F444C00C2C000CDD08C60146
:103FD0000E94B630782E811113C0712C872D0F905E
:103FE000DF91CF911F910F91FF90EF90DF90CF90D5
:103FF000BF90AF909F908F907F905F904F9008956B
:10400000C60123E0880F991F2A95E1F7FC01EC5FB8
:10401000FE4F438150E0E416F50608F4A7018C5FDB
:104020009E4FFC0164817581625A7C4FC5010E94DC
:104030000632B701C8010E94EA0699818913CDCFE3
:104040000E946E06F4016083718382839383C6CFDE
:10405000A701B801C5010E940632C0CFA2E0B0E0BE
:10406000E4E3F0E20C94353182E0E82EF12C05E631
:1040700013E09E012F5F3F4F46E553E063E082E08F
:104080000E94891FC82E882339F100E080E01DC0FE
:10409000D0907D03D00E2D2D30E0A9014E555C4F00
:1040A0007A01E1E0F0E0EC0FFD1FE00FF11D10815F
:1040B000FA019081191BB12E1B149CF0912F17FD52
:1040C00090E0191B111118C00F5F90917C03091724
:1040D000F8F281110E941B148C2D2296E9E00C94B9
:1040E0005131BA94F70180818F5F808360E08D2D1C
:1040F0000E94BB1E8C2DE0CF1F5FF7018081815095
:10410000808361E08D2D0E94BB1E8C2DDBCFA5E04E
:10411000B0E0EDE8F0E20C9436316B0185E0E82E7A
:10412000F12C0FE513E09E012F5F3F4F42E553E076
:1041300061E080E00E94891F882349F095E0FE013C
:104140003196ADE4B3E001900D929A95E1F795E0D8
:10415000EDE4F3E0D60101900D929A95E1F72596F2
:10416000E8E00C945231A8E0B0E0E9EBF0E20C9406
:104170003C3166EE7EEF90E080E00E945B3260E0D2
:1041800082E090E00E943D3260E083E090E00E9497
:104190003D3210923E0310923D0360E074E184E0F2
:1041A00090E00E945B3260E086E090E00E943D3249
:1041B0006FEF87E090E00E943D3240E050E0BA01AE
:1041C00088E090E00E944F3260E084E290E00E943C
:1041D0003D3260E087E190E00E943D3260E08CE09B
:1041E00090E00E943D3260E08DE090E00E943D3220
:1041F00019821A821B821C821D821E821F821886CF
:1042000048E050E068E170E0CE0101960E942D3256
:1042100040E050E0BA0180E290E00E944F3240E07E
:1042200050E0BA018FE090E00E944F3240E050E051
:10423000BA0183E190E00E944F322896E2E00C94AC
:104240005831CF93C82F80918D0382FB992790F925
:104250009C17F9F0C0FB82F980938D0360918C0369
:1042600070918D0384E090E00E945B3282E00E94B6
:10427000001180917D0580FF0CC01F92CF938EE9C5
:1042800091E09F938F930E94D9040F900F900F900D
:104290000F90CF910895B0E0A0E0E1E5F1E20C9439
:1042A00034318C01FC018481882341F121E040817B
:1042B00051816281738195810E946711EC01FC013B
:1042C000E851FC47E730F105A8F5ED50FD4C0C94A2
:1042D000973126E241EE61EEC8010E945E1E809198
:1042E0003103877059F0F8018581882339F0809176
:1042F0008D0382FF03C082E00E940011CDB7DEB7BC
:10430000EAE00C94503127E245EE65EEE5CF26E277
:1043100041EE60EEE1CF27E245EE64EEDDCF26E22E
:1043200041EE62EED9CF27E245EE66EED5CF28E228
:1043300041E0EBCFF8018581882309F4DBC31092BB
:104340007B05CE019057839708F0BEC384E090E0D0
:104350000E94273290938D0380938C03FE01E150DD
:10436000F047E232F10520F4E650FD4C0C94973111
:1043700080918C03816080938C0395C080918D0324
:10438000886080938D038FC080918C038260F3CF0F
:1043900080918C038460EFCF80918C038860EBCF99
:1043A00080918D038160EDCF80918D038260E9CF94
:1043B00080918C038061DFCF80918C038062DBCFA2
:1043C00080918C038064D7CF0E94D91A80918C038E
:1043D0008068D1CF80918C038C60CDCF80918D038C
:1043E0008360CFCF80918C038E7FC5CF80918D036A
:1043F000877FC7CF80918C038D7FBDCF80918C0349
:104400008B7FB9CF80918C03877FB5CF80918D034F
:104410008E7FB7CF80918D038D7FB3CF80918C033A
:104420008F7EA9CF80918C038F7DA5CF80918C0347
:104430008F7BA1CF0E94D91A80918C038F779BCF5D
:1044400080918C03837F97CF80918D038C7F99CF50
:1044500080918C0382FB992790F921E0922790FBB1
:1044600082F990FB83F987CF80918D03982F9095E7
:1044700091708E7F892B90FB81F983CF90918C0373
:10448000892F8F7B96FF806476CF0E94D91A9091F6
:104490008C03892F97FB87F980586DCF61E08EE000
:1044A00090E00E943D3260918C0370918D0384E016
:1044B00090E00E945B320E94D91A11CF60E0EFCFEA
:1044C00090918C03892F8F7E94FF806154CF9091BF
:1044D0008C03892F8E7F90FF81604DCF90918D034B
:1044E000892F877F93FF88604CCF85E30DC3809130
:1044F0007E05982F937021E092278C7F892B8093E3
:104500007E0510924E0180917C05816080937C0530
:1045100080917D0580FFE3CE1F929F938DE591E012
:104520009F938F9384E491E09F938F930E94D9048B
:104530000F900F900F900F900F900F90D0CE4FEBE9
:1045400051E169EC71E10E940007C9CE49EC51E1EB
:104550006FEB71E1F8CF48E352E162E472E1F3CF2F
:1045600042E452E168E372E1EECF4EE152E16BE2E8
:1045700072E1E9CF4BE252E16EE172E1E4CF44E057
:1045800052E161E172E1DFCF41E152E164E072E1C9
:10459000DACF4AE652E165E772E1D5CF45E752E16D
:1045A0006AE672E1D0CF81E00E948C1198CE85E05E
:1045B000FBCF8DE0F9CF82E1F7CF90917D05892F78
:1045C0008E7F90FF816080937D0580FF05C08DE820
:1045D00091E00E94400483CE8BE791E0FACF6FEF29
:1045E0007FEF90E080E00E945B320E94A61D8091E8
:1045F0008D0382FB882780F991E089270E94212181
:10460000F8018581C081D181882309F44AC0CE0197
:104610000E943F10F82E682FCE010E94B310BE01F9
:104620008F2D0E94F10E0E94100FD82FC92FA82E97
:10463000F801C580B680B2943FE0B3228091310387
:104640008770F1F0EC2CCC20E1F0892F807F803452
:1046500051F080E28D0F883098F0B11004C0892F9E
:10466000807E803269F080918D0382FF09C082E0F4
:104670000E940011809131038770EE24E394811130
:10468000E12CDC2ED2942FE0D222FBE0FD1508F4C1
:104690006DC0ED2DF0E0E45EFC4C0C94973180E0B1
:1046A000ADCFCE010E948010F82EB9CF2C2F2F70E5
:1046B000F22EC07F19F0F29490EFF922CC20B9F0DD
:1046C000FF2069F080E28D0F883010F0A11009C042
:1046D00080913C03F82AF0923C030E94671A8D2FC8
:1046E00043C080913B03F82AF0923B03F6CF8D2F15
:1046F0000E94CD1DFF20D1F1D05ED83010F0A11066
:1047000004C08F2D0E942E1006C0F09480913B03B0
:10471000F822F0923B030E94671A28C03C2F3F709A
:10472000F32EC07FC03219F0F29480EFF822AA2055
:1047300059F081E0A81609F479C0CC2009F485C0AD
:10474000BB2009F447C0CBCF80918D0382FD3EC0D2
:10475000CC20B1F1FF2039F080913C03F82AF0928F
:104760003C030E94671A80E00E94021E2D2D2850F3
:10477000330B2430310510F40E94CF13EE20A9F042
:104780008091310380FD11C0F801158286958695D0
:1047900086950E941711C8010E944B218091310318
:1047A0008695869586950E94EE1020E0F80140815E
:1047B000518162817381848195810E9467119ECDB0
:1047C00080E00E94CD1DFF2089F29BCFCC20A1F07C
:1047D000B11004C08F2D0E94C31DC8CF91E0B91243
:1047E000C5CF80913A039F2D9823F91609F4BECFC7
:1047F000F82AF0923A03BACFB110B8CF8F2D0E94A9
:10480000BC1D90913A038F2D892329F08F2D80951F
:10481000892380933A03809109039F2D982309F4FB
:10482000A5CFF094F822F0920903A0CFCC2029F074
:10483000E5E0EB1508F49ACFCDCFF4E0FB1508F4D2
:1048400095CF8F2D0E94BC1D91CFBB20D1F329E3C2
:10485000A21209C03FEF87EE93E0315080409040B4
:10486000E1F700C000008D2F0E94CD1D7FCF8C2F5F
:1048700086958695837069F0813009F077CF8D2F0A
:104880009C2F9370C11002C080E090E00E94A006AF
:104890006DCF8D2F9C2F9370C11002C080E090E0EF
:1048A0000E94C50663CF8C2F837009F03FC0C110F2
:1048B0005DCF4D2F429546954770440F440F2D2FE5
:1048C0002F7030E0042E02C0220F331F0A94E2F74B
:1048D00090E080E0D4FF09C08FE090E002C0880F34
:1048E000991F4A95E2F780959095C695C695C37035
:1048F000C23099F078F440913D0350913E03C130AD
:1049000039F0822B932B842395230E9427112ECFDD
:10491000242B352B822B932BF8CF822B932B20919A
:104920003D0330913E0382279327EFCF8695CC201D
:1049300011F08C2F8170882309F418CF4D2F4295E8
:1049400046954770440F440F2D2F2F7030E0042EF2
:1049500002C0220F331F0A94E2F790E080E0D4FFF8
:1049600009C08FE090E002C0880F991F4A95E2F7D6
:1049700080959095C695C695C370C23099F078F42D
:1049800040918A0350918B03C13039F0822B932BD5
:10499000842395230E94E910E9CE242B352B822B0A
:1049A000932BF8CF822B932B20918A0330918B038A
:1049B00082279327EFCFCF70CC2029F08C2F0E9435
:1049C00017118D2F08CF8D2F0E94BC1D8C2F0E9498
:1049D000EE10CCCE8D2FE2EFAE1699F1EA1570F005
:1049E000F0EFAF16D1F021EFA21691F0CC2009F430
:1049F0005BC0B11074CE8C2F8F7127C033EFA3161C
:104A000039F194EFA912F2CF80918D0382FD2EC06F
:104A10008C2F8F71CC20D9F218C0CC2069F0E4E043
:104A2000EB1508F4A3CECF7181E090E002C0880FAF
:104A3000991FCA95E2F7B8CFF5E0FB1508F496CEBA
:104A4000F2CF8C2F8F71C110C2CF0E9417118ECE62
:104A500090E080E0CC2009F49DCFCF7181E090E020
:104A600002C0880F991FCA95E2F794CFCC2089F035
:104A7000CF718C2F0E94171180918D0382FF07C088
:104A800028E0C29FC00111248360809331038C2FE2
:104A9000DCCF81E00E94001131E03B1508F066CECA
:104AA00082E00E94001162CEBB2059F0893309F0E8
:104AB000DACE8FEF97EEE3E081509040E040E1F7EF
:104AC000D0CE8C2F8F7183CFC631FCE7DF0751F535
:104AD00080913C038A7A91E009F490E09093080376
:104AE00069E2811165E380E093E00E9486060E94FE
:104AF000671AF5CBC6312CE7D20709F064C0809164
:104B000008038111F2CC89E2E2E0F3E028E033E02F
:104B10009191891303C0DF0111971C922E173F0753
:104B2000B9F7E5CFC3303CE7D30709F458CD08F017
:104B30003AC0C1309CE7D90709F457CD08F03DCD04
:104B4000C115DC4709F05CCD0E94D91AFFEF24E3C0
:104B50003CE0F15020403040E1F700C0000081E02F
:104B60008093E00080E28093D8001092C9008FE12A
:104B70009EE40197F1F700C0000087E090EBDC01B4
:104B80008093860590938705A0938805B093890547
:104B900088E19CE00FB6F894A895809360000FBE62
:104BA00090936000FFCFCB352CE7D20709F477CD87
:104BB000CC353CE7D30709F41ACDCA35DC4709F0F8
:104BC0001FCD81E01BCD80913C038272FE01E0523B
:104BD000F847E531F10508F013CDE85DFC4C0C9485
:104BE0009731CF93DF9380913003807F09F04DC0E0
:104BF00080912F03882309F448C0E0914B05509120
:104C00001205C0912B03D0912A0360912C0370915F
:104C10002D0347E05E17C9F18E2F90E0E49FF0016D
:104C20001124ED5EFA4F2481222391F1489FF00177
:104C3000499FF00D1124DF01AD5EBA4F11962C9102
:104C400011972C1325C02C912D1322C015962C9151
:104C5000159721111DC012962D913C91261B370BE3
:104C6000283C3105A8F4809130038F7080618093D7
:104C70003003E75EFA4F80818F70806180838AE223
:104C800093E00E944B210E943510DF91CF9108954F
:104C9000FC013196E770BECFA4E1B0E0E2E5F6E2B8
:104CA0000C9432318C0186E0F801DE011F960190F0
:104CB0000D928A95E1F7F8018481E5809AE2A92EA8
:104CC00093E0B92E90912E03911128C0882319F1F9
:104CD000EE20F1F0C8010E942C11F82E8823C1F0BB
:104CE00087E0F801D50101900D928A95E1F7809156
:104CF0002E03813031F480912A0390912B030E947E
:104D000073100E94F1258F2D6496ECE00C944E31C7
:104D1000C8010E944B21FF24F394F5CFD080C180BD
:104D200082809380F0902F0320912C0330912D03EB
:104D3000A401421B530BFF2009F4D9C0483C510584
:104D400008F092C08823F9F290912B0380913003F0
:104D5000282F207F09F056C0C91214C090912A0351
:104D6000D91210C0E11048C08F7080618093300369
:104D70008AE293E00E944B2180913003F801868300
:104D8000F12CC1CFE11038C06C2D8D2D0E94E204B2
:104D90006C2D8D2D0E94E204E82E8111F1CFDF866B
:104DA000C88A8F8598890E947310292F22952F70A9
:104DB000243058F49F70223088F0992399F0F8013C
:104DC0009681907F79F4FE2C9ECF2A5F2F7022303F
:104DD00068F0C8010E944B21EF2CF5CF992311F008
:104DE000882389F3805E883070F3F3CF803F58F3D7
:104DF000815F833070F7E7CF8091300381608093CB
:104E00003003BECFC91207C090912A03D91203C044
:104E1000EE2009F48DC0C8010E942C11882309F4EA
:104E200077CFEE2009F474CF80913003803288F080
:104E300020912A0330912B03398728879B868A8605
:104E400090912E039C871D868E87CE0108960E9426
:104E50004B2187E0F801AAE2B3E001900D928A9518
:104E6000E1F70E94F12557CF90913003292F207F41
:104E700051F48AE293E00E944B2187E0F501119200
:104E80008A95E9F77DCF882309F43DCF80912B03E4
:104E90008C1110C080912A03D8120CC0E1100AC0F6
:104EA0009683C8010E944B2187E0F50111928A95F3
:104EB000E9F729CFC8010E942C11882309F428CFD3
:104EC000EE2009F425CF80913003803210F220913A
:104ED0002A0330912B033A8329839C828B82909101
:104EE0002E039D831E828F83CE010196B0CF483C56
:104EF0005105D0F6882309F40ECFFE2CEE2009F4DC
:104F000007CF80912B038C1120C080912A03D812E7
:104F10001CC08091300380FD0FC0982F907F61F0FE
:104F20008683903F31F0982F907F905F8F70892B10
:104F30008683C8010E944B2187E0F801AAE2B3E012
:104F400001900D928A95E1F7DECEC8010E942C11E6
:104F500081117FCF80913003816080933003C8013D
:104F60000E944B21D0CEABE1B0E0E9EBF7E20C942C
:104F70003A314E8B5F8B688F798F8A8F9B8F192F79
:104F8000911110923B031D8A86E0FE017696DE01A8
:104F90001F9601900D928A95E1F70A8D002341F04A
:104FA00021E04F85588969897A89C8010E94671173
:104FB0000B8B1C8B87E0FE013F96DE01189601905B
:104FC0000D928A95E1F7CE0108960E944C26811138
:104FD0002AC087E0FE013896DE01119601900D92FD
:104FE0008A95E1F78C858823F1F02091120530E055
:104FF000C90101968770992740914B0548171906FA
:10500000E9F097E0929FD001939FB00D1124AD5E1F
:10501000BA4FFE01319601900D929A95E1F7809377
:1050200012050E94351017E080914B0590911205F2
:10503000891312C06B96E4E00C9456310E94D91A81
:105040001092120510924B0587E0EAE2F3E0DF01CF
:105050001D928A95E9F7E7CF819FC00111248D5EEB
:105060009A4F0E944C26882329F380914B0590E0AB
:1050700001968770992780934B05D6CFA6E0B0E0C4
:10508000E4E4F8E20C943A310E947A068C018091B3
:105090003F03909140038017910781F019821A8293
:1050A0000E947A06682F49815A81792F80E090E02A
:1050B0000E94B3271093400300933F032696E4E039
:1050C0000C9456311F920F920FB60F9211242F930A
:1050D0003F934F935F936F937F938F939F93AF9380
:1050E000BF93CF93DF93EF93FF93D091E900DF70ED
:1050F0008091EC00C82FC17080FDC0E81092E900DB
:105100008091F000877F8093F00078940E94EF1ADE
:105110001092E9008091F00088608093F000CD2B20
:10512000CF70C093E900FF91EF91DF91CF91BF91D4
:10513000AF919F918F917F916F915F914F913F912F
:105140002F910F900FBE0F901F9018951F920F92E6
:105150000FB60F9211242F933F934F935F936F934A
:105160007F938F939F93AF93BF93EF93FF93809120
:10517000E10082FF15C08091E20082FF11C08091A2
:10518000E1008B7F8093E1002091FA042F5F822F52
:1051900062E30E946331992309F4C0C02093FA04AA
:1051A0008091DA0080FF28C08091D80080FF24C061
:1051B0008091DA008E7F8093DA008091D90080FFA1
:1051C000E3C080E189BD82E189BD09B400FEFDCF65
:1051D00081E08093080589EE96E00E94400480916A
:1051E000FB04811109C00E9401050E94A205809163
:1051F000E20084608093E2008091E10080FF1BC0A8
:105200008091E20080FF17C08091E2008E7F809342
:10521000E2008091E20080618093E2008091D800FA
:1052200080628093D80019BC85E08093080581EFE7
:1052300096E00E9440048091E10084FF2FC080919D
:10524000E20084FF2BC080E189BD82E189BD89B580
:10525000982F917080FFFBCF8091D8008F7D809335
:10526000D8008091E1008F7E8093E1008091E20080
:105270008F7E8093E2008091E20081608093E20063
:1052800080910905882309F489C084E0809308058A
:1052900085EF96E00E944004809108058091E1002E
:1052A00083FF2BC08091E20083FF27C08091E10043
:1052B000877F8093E10082E08093080510920905C2
:1052C0008091E1008E7F8093E1008091E2008E7FEB
:1052D0008093E2008091E20080618093E20042E0EE
:1052E00060E080E00E9470058091F000886080930B
:1052F000F00089EF96E00E944004FF91EF91BF918A
:10530000AF919F918F917F916F915F914F913F915D
:105310002F910F900FBE0F901F9018951092FA04C6
:105320008091F904882309F43BCF809108058430EB
:10533000C1F49091E9009F702091EC00822F817060
:1053400020FD80E8892B93E09093E9009091EB0099
:1053500090FF04C09091EE0097FD08C08F7080937D
:10536000E9001092F9041CCF1092F1009091E8002E
:1053700095FDFACF9091E80090FFF0CF9091E80072
:105380009E779093E800EACF19BC109208058DEE45
:1053900096E00E9440041092FB042ECF8091E3001F
:1053A00087FD93E09093080573CF78941F921FB602
:1053B0001F9211248F939F93AF93BF938091F40416
:1053C0009091F504A091F604B091F7040196A11D07
:1053D000B11D8093F4049093F504A093F604B09368
:1053E000F704BF91AF919F918F911F901FBE1F90A7
:1053F00018951F921FB61F9211248F939F93AF93FE
:10540000BF938091F304811113C08091F4049091B3
:10541000F504A091F604B091F7044196A11DB11DC9
:105420008093F4049093F504A093F604B093F704EA
:10543000BF91AF919F918F911F901FBE1F901895A4
:10544000CDB7DEB766970FB6F894DEBF0FBECDBFFF
:1054500085B7806885BF85B7806885BF84B7877F3B
:1054600084BF0FB6F894A8958091600088618093FE
:105470006000109260000FBE80E890E00FB6F894D4
:1054800080936100909361000FBE80E892E1909359
:10549000FF028093FE020E9401050E94A2058091F6
:1054A000E20084608093E20078948091080588236C
:1054B000A1F01091E9001F709091EC00892F81708C
:1054C00090FD80E8182B1092E9008091E80083FDA0
:1054D0000E94EF1A1F701093E90082E084BD93E0F0
:1054E00095BD9AEF97BD80936E001092780310924D
:1054F000790310927A0310927B0355985D988FE898
:1055000091E00197F1F700C000000E94DE0A80934D
:105510003F010E94AC1381110E94CA2F80913F016C
:1055200092E0811190E09093AA0382E0A82FA91B3A
:10553000A0937D0390913F018093AB0390913F0135
:1055400080937C032CEDA22E21E0B22E4AED51E097
:105550008A01950161E070E0F90181919F01E82FD6
:10556000E295EF70F0E0D1A08F707B0101C0EE0CEE
:105570008A95EAF79E2D90959D2191A382A18E296F
:1055800082A3D8018D918D01E82FE295EF70F0E0B4
:10559000D1A08F707B0101C0EE0C8A95EAF79E2D99
:1055A00090959D2191A382A18E2982A3B1E02E3DE9
:1055B0003B0791F6EFE8F1E03197F1F700C000000A
:1055C0001091AB036CEA73E0FB018E2F861B8117F1
:1055D00008F4AEC180913F0181112CC085E0E2E565
:1055E000F1E0DE01179601900D928A95E1F78F8127
:1055F00080933A01888580933B01898580933C01A3
:105600008A8580933D018B8580933E0186E0E7E5A6
:10561000F1E0DE01119601900D928A95E1F7FE010D
:105620003196A4E3B1E0CE01079621912D93E817BE
:10563000F907D9F780913F0195E0811190E09093AF
:10564000890385E0891B809388030AE311E0F80150
:1056500081918F018F3F11F00E94E90DF1E00F332E
:105660001F07A9F704E311E09AE3E92E91E0F92E70
:10567000D8018D918D018F3F11F00E94E90DE01648
:10568000F106B1F78AE0EEE8F3E0DF01282F1D9282
:105690002A95E9F7EEE7F3E0DF011D928A95E9F735
:1056A00090E080E00E942732863E9E4F11F00E94DB
:1056B000B32082E090E00E941F32182F80937D0576
:1056C00084E090E00E94273290938D0380938C03B6
:1056D00083E090E00E941F3290E00E9427110E9418
:1056E0000607109250058FEF9FEF90936A05809305
:1056F000690590936C0580936B0590936E0580937C
:105700006D059093700580936F059093720580935B
:10571000710590937405809373059093760580933B
:10572000750590937805809377051092F203909316
:105730000C0480930B0490930E0480930D049093BB
:10574000100480930F04909312048093110490939B
:10575000140480931304909316048093150490937B
:1057600018048093170490931A048093190490E00E
:1057700080E00E942732863E9E4F71F010FF08C0E5
:105780008DE495E09F938F930E94D9040F900F9022
:105790000E94B3200E941E1481E080937C0548E0A3
:1057A00050E068E170E08EE795E00E940F321092C1
:1057B0007C0580917E058C7F71F480917D0580FF52
:1057C00008C088EF94E09F938F930E94D9040F90B4
:1057D0000F900E941E1480917D0580FF89C08EED80
:1057E00094E09F938F930E94D90480917D050F9040
:1057F0000F9080FF7DC080917E0583701F928F93F4
:105800008FEB94E09F938F930E94D90480917D0544
:105810000F900F900F900F9080FF6AC080917E05CF
:10582000869586951F928F9382EA94E09F938F933B
:105830000E94D90480917D050F900F900F900F90DA
:1058400080FF56C080917F051F928F9384E894E07B
:105850009F938F930E94D90480917D050F900F90A4
:105860000F900F9080FF44C0809180051F928F930E
:1058700086E694E09F938F930E94D90480917D05E2
:105880000F900F900F900F9080FF32C08091810594
:105890001F928F9388E494E09F938F930E94D90482
:1058A00080917D050F900F900F900F9080FF20C08A
:1058B000809182051F928F938AE294E09F938F9349
:1058C0000E94D90480917D050F900F900F900F904A
:1058D00080FF0EC0809183051F928F938CE094E02F
:1058E0009F938F930E94D9040F900F900F900F9069
:1058F0000E94AC13811102C00E94CD2F80E491E080
:105900009093F0048093EF0480910805853009F0AE
:1059100088C080917D0580FF04C08FE795E00E94DC
:10592000400480E4F82EEE24E39400E112E16EC01E
:10593000D5012D915D01822F82958F7090E0DC0161
:1059400090968C9190E02F7002C0959587952A953E
:10595000E2F78170DA019D91AD01292F22952F7018
:1059600030E0D90190962C9130E09F7002C03595BF
:1059700027959A95E2F790E020FD92E0892B81939C
:1059800024CE80910805843009F430C00E94E717C6
:1059900080911F04811105C00E944A1480E00E947A
:1059A0000907E0921F041092F30428E130E00FB6DB
:1059B000F894A895209360000FBEF092600083B722
:1059C000817F846083BF83B7816083BF789488952B
:1059D00083B78E7F83BF0FB6F894A895809160003F
:1059E000886180936000109260000FBE809107056F
:1059F000882361F00E949F18EEE8F3E08191811105
:105A00005BC248E953E04E175F07C1F78091080574
:105A1000853009F4B6CF0E94D91A0E94CF13109294
:105A20001F040E949F1888E993E09D878C87AEE849
:105A3000B3E0BF87AE87FC0191918D9122EA33E0FC
:105A40002E173F0709F48DC09817B1F380917D059B
:105A500081FDC8C00E94AC13898B712C612CF12C84
:105A6000AE85BF85BD90BF87AE87EC85FD858191F2
:105A7000FD87EC878B1509F45BC16301E12CAA2437
:105A8000A3948B258A8B8A898A2109F445C14B2CE2
:105A90004A20F989FF23A1F0E982FA820E947A065E
:105AA0009C838B8321E02D8391E0411001C090E025
:105AB0009E8349815A816B817C818D810E94B327AD
:105AC000442039F0F601EB50FE4F80818F3F09F002
:105AD000BFC0512C052D10E08091F203800F912F53
