:100000000C94DF040C94CC2E0C9417050C9417055B
:100010000C9417050C9417050C9417050C941705F0
:100020000C9417050C9417050C94ED270C94A92734
:100030000C9440290C9417050C9417050C94170583
:100040000C9417050C9417050C9417050C941705C0
:100050000C9417050C941C290C9417050C94170587
:100060000C9417050C9417050C9417050C941705A0
:100070000C9417050C9417050C9417050C94170590
:100080000C9417050C9417050C9417050C94170580
:100090000C9417050C9417050C9417050C94170570
:1000A0000C9417050C9417050C9417050631FF09DD
:1000B00074A1010975150026FF00952075088102BD
:1000C0000976150026FF00952075089102C00501EC
:1000D0000980A101850319012AB700150126B7007F
:1000E000950175108100C0050C0901A10185041955
:1000F000012AA002150126A002950175108100C0F9
:1001000005010906A101050719E029E715002501E8
:10011000950875018102950175088101050719008F
:1001200029FF150026FF00950675088100050819AE
:10013000012905950575019102950175039101C08D
:10014000726762206D617472697820746F67676C82
:1001500065205B25735D3A207267625F6D61747222
:1001600069785F636F6E6669672E656E61626C6544
:10017000203D2025750A0044454255473A206469D0
:100180007361626C65642E0A0044454255473A200B
:10019000656E61626C65642E0A004F6E6573686FF0
:1001A000743A206163746976653A2025640A000A0E
:1001B000002530325820006B6579626F6172645F90
:1001C0007265706F72743A200000001E001F0020DC
:1001D0000021002200290014001A00080015001751
:1001E000002B2104001600070009000A00E1001D91
:1001F000001B0006001900050000000000E30021BC
:10020000522C002C002A0027002600250024002361
:10021000003100130012000C0018001C00340033E1
:10022000000F000E000D000B00E50038003700360F
:10023000001000110000000000E6002252280028F3
:100240000045003A003B003C003D003E0035001EEA
:10025000021F022002210222022B211E001F002069
:100260000021002200E100230024002500260027B1
:1002700000000000000000010000000000440043F6
:10028000004200410040003F0031002702260225C5
:10029000022402230231002E004F00520051005070
:1002A00000E50030002F002E022D002D020000007E
:1002B00000E60023522A002A00000000000000008F
:1002C000000000000045003A003B003C003D003EBD
:1002D000002B2100000000000000000000E10000F1
:1002E000000000000000000000000000000000010D
:1002F000004C004C00000000000000000000000066
:1003000000440043004200410040003F0000000064
:10031000004D004B004E004A00E5000000000000C8
:10032000000000000000000000E6000100000000E6
:1003300000000000000000000000000000000000BD
:100340000000000000000000002B21000000000061
:100350000000000000E100000000000000000000BC
:10036000000000000000000100000000000000008C
:100370000000000000000000000000460000000037
:10038000000000000000000000000000000000006D
:1003900000E5000000000000000000000000000078
:1003A0000000000100000000000100010001000148
:1003B0000001000100010001000100010001000135
:1003C0000001000100010001000100010001000125
:1003D0000001000100010001000000000001000117
:1003E0000001000100010001000100010001000105
:1003F00000010001000100010001000100010001F5
:1004000000010001000100010001000100010001E4
:1004100000010001000000000001000100010001D6
:1004200000010001000100010001000100010001C4
:1004300000010001000100010001000100010001B4
:1004400000010001000100010001000100010001A4
:100450000000000000010001000100010001000196
:100460000001000100010001000100010001000184
:100470000001000100010001000100010001000174
:100480000001000100010001000100010000000066
:100490000001000100010001000100010001000154
:1004A0000001000100010001000100010001000144
:1004B0000001000100010001000100010001000134
:1004C0000001000100010001000000000001000126
:1004D0000001000100010001000100010001000114
:1004E0000001000100010001000100010001000104
:1004F00000010001000100010001000100010001F4
:1005000000010001000000000001000100010001E5
:1005100000000000000000000000000000000000DB
:10052000000000000000000000E0000000000000EB
:1005300000000000000000000000000000000000BB
:1005400000000000000000000000000000000000AB
:10055000000000000000000000000000000000009B
:10056000000000000000000000000000000000008B
:10057000000000000000000000000000000000007B
:1005800000000000000000000054617267657420E4
:10059000636F6E6E65637465640D0A005461726703
:1005A000657420646973636F6E6E65637465642C33
:1005B000207468726F74746C696E6720636F6E6EFE
:1005C000656374696F6E20617474656D7074730D0A
:1005D0000A004661696C656420746F206578656304
:1005E0007574652025730A007267625F6D617472AD
:1005F00069785F636F6E6669672E666C61677320EA
:100600003D2025640A007267625F6D6174726978CB
:100610005F636F6E6669672E7370656564203D2049
:1006200025640A007267625F6D61747269785F6346
:100630006F6E6669672E6873762E76203D2025647E
:100640000A007267625F6D61747269785F636F6ED2
:100650006669672E6873762E73203D2025640A0034
:100660007267625F6D61747269785F636F6E6669ED
:10067000672E6873762E68203D2025640A00726715
:10068000625F6D61747269785F636F6E6669672E11
:100690006D6F6465203D2025640A007267625F6D9E
:1006A00061747269785F636F6E6669672E656E61EB
:1006B000626C65203D2025640A007267625F6D618F
:1006C000747269785F636F6E666967204545505242
:1006D0004F4D0A007267625F6D61747269785F697D
:1006E0006E69745F64726976657273207267625FA7
:1006F0006D61747269785F636F6E6669672E6D6F86
:100700006465203D20302E20577269746520646531
:100710006661756C742076616C75657320746F20EA
:10072000454550524F4D2E0A007267625F6D6174ED
:100730007269785F696E69745F64726976657273F5
:10074000206565636F6E666967206973206E6F74DC
:1007500020656E61626C65642E0A005B735D000A41
:100760000025303862003A200025303258000A72E5
:100770002F632030313233343536370A000A0025F2
:10078000303258006C65645F7461736B3A2000000E
:100790000101010101010101010202020202020242
:1007A0000202030303030303030304040404040415
:1007B00004050505050506060606060707070707DB
:1007C00008080808090909090A0A0A0B0B0B0C0C8E
:1007D0000C0D0D0D0E0E0E0F0F0F1010111111122A
:1007E0001213131414151516161717181819191AA9
:1007F0001A1B1B1C1D1D1E1E1F202021222223240C
:1008000024252626272829292A2B2C2D2D2E2F304A
:10081000313232333435363738393A3B3C3D3E3F5E
:10082000404142434445464748494A4C4D4E4F504B
:10083000515354555658595A5B5D5E5F6162646509
:100840006668696B6C6D6F7072737577787A7B7D93
:100850007E8082838587888A8C8E8F9193959698E7
:100860009A9C9EA0A2A3A5A7A9ABADAFB1B3B5B703
:10087000BABCBEC0C2C4C6C9CBCDCFD1D4D6D8DBDA
:10088000DDDFE2E4E7E9EBEEF0F3F5F8FAFDFF6512
:1008900065636F6E6669675F7570646174655F72CA
:1008A00067625F6D61747269785F64656661756CBB
:1008B000740A005B435D005B445D005B535D005B5D
:1008C000575D005B525D0009025B00030100A0FA66
:1008D00009040000010301010009211101000122A6
:1008E000400007058103080001090401000103001D
:1008F00000000921110100012232000705820320B6
:100900000001090402000203000000092111010096
:1009100001222200070583032000010705030320AD
:100920000001120100020000000810CB56720007FF
:1009300001020001180349007200690073002000E1
:100940005200650076002E002000370000000E03E4
:100950004B0065006500620069006F000000040341
:100960000904726762206D6174726978207365741E
:10097000207370656564205B25735D3A2025750AD8
:1009800000726762206D61747269782073657420EB
:10099000687376205B25735D3A2025752C25752CB0
:1009A00025750A00726762206D6174726978206D26
:1009B0006F6465205B25735D3A2025750A0011245C
:1009C0001FBECFEFDAE0DEBFCDBF04B603FE18C016
:1009D0008091320590913305A0913405B091350591
:1009E0008730904BA740B04B59F4109232051092CB
:1009F00033051092340510923505E0E0F8E30995CF
:100A000012E0A0E0B1E0E2EFF2E602C005900D9244
:100A1000AA3FB107D9F725E0AAEFB2E001C01D92C5
:100A2000A233B207E1F70E9467290C9402310C94BB
:100A30000000FF93EF93E091FA02F091FB023097F0
:100A400009F00995EF91FF910895FC01859180309F
:100A500011F0EFDFFBCF0895FF27E0E230E247FF20
:100A60000CC0419597FF09C0EDE2609570958095A7
:100A70009095611D711D811D911D27FF02C021955B
:100A800030E350E2AA27660F771F881F991FAA1F1D
:100A9000A41710F0A41B63955A95A9F7AA3008F083
:100AA000A95FA05DAF93F39561157105810591056F
:100AB00041F7ED3211F4EF93F395F21718F43F93E9
:100AC000F395FBCF8F91B5DFFA95E1F70895E991A2
:100AD000F9918591803021F0853219F0AADFF9CFA4
:100AE000089520E0E89455915532C1F3503311F444
:100AF000689455915A3348F4505390F3220F022EC4
:100B0000220F220F200D250FF4CF0EF4219589918D
:100B10009991533619F3533729F1533559F1BC01E3
:100B200088279927E8945C3621F4899199916894F3
:100B30005591543639F446EF7EF077FF0DC08FEFB4
:100B40009FEF0AC055374AE039F0583540E121F0AF
:100B5000523642E009F00895FF93EF937DDFEF9165
:100B6000FF91B7CFFF93EF93FC0181918030B9F3F0
:100B700060DFFBCFFF93EF9368DFF1CFDF93CF937D
:100B8000CDB7DEB72596A3DFCF91DF910895E8EDCD
:100B9000F0E080818E7F80831092E2001092DA0074
:100BA0001092E100A0EEB0E08C9181608C93808186
:100BB0008F77808319BCA7EDB0E08C918E7F8C93EA
:100BC00080818F7E80831092E30408952091E40059
:100BD0003091E50095E6A9012091EC00822F81700B
:100BE00020FF06C08091E80080FF06C080E00895E5
:100BF0002091E80022FD1AC08091F004882389F03A
:100C0000853089F08091EB0085FD0FC02091E400D4
:100C10003091E50042175307F9F29150E1F684E074
:100C2000089582E0089583E0089581E00895809119
:100C3000F20487FF13C08091E80082FF06C0809114
:100C4000E8008B778093E80004C08091F004811164
:100C5000F2CF08958091F0048823D9F38091E800C1
:100C600080FFF8CF8091E8008E77ECCF982F90939B
:100C7000E900242F762F50E0891731F07091EC00B5
:100C80002091ED005091F00021FD07C09F5F97304B
:100C900071F78093E90081E008953091EB003E7F89
:100CA0003093EB003091ED003D7F3093ED003091BB
:100CB000EB0031603093EB007093EC002093ED007B
:100CC0005093F0002091EE0027FDE0CF80E00895E2
:100CD000B0E0A0E0EEE6F6E00C94F22FC8EDD0E034
:100CE00088818F7E8883E7EDF0E08081816080835A
:100CF00084E082BF81E08093E30488818E7F8883D3
:100D000002EE10E0F80110821092DA0081EEC82E97
:100D1000D12CF601108288818F7788838881806842
:100D2000888388818F7D888319BC1092F00410928B
:100D3000F1041092EF041092EE0490EEE92EF12CE3
:100D4000F70180818B7F808388818160888342E086
:100D500060E080E00E943606F60180818E7F80830D
:100D6000F801808181608083808188608083F701C1
:100D700080818E7F8083888180618883CDB7DEB754
:100D8000E8E00C940E30FC018091F8049091F90495
:100D900086179707A0F06115710529F49091E80076
:100DA0009E779093E80090E06115710551F49111E0
:100DB00008C08091E80082FF34C080E00895BC0143
:100DC000F2CF8091F0048823C1F18530C1F1809188
:100DD000E80083FD30C08091E80082FDEACF809179
:100DE000E80080FFE1CF8091F3002091F200382FDE
:100DF0006115710519F02830310558F091E028305F
:100E0000310509F090E02091E8002E772093E8006A
:100E1000CBCF81918093F100615071092F5F3F4FDB
:100E2000E7CF8091F004882341F0853041F0809134
:100E3000E80083FFBECF81E0089582E0089583E05B
:100E4000089508958091E50408959C014FB7F894A2
:100E50008091DC049091DD04A091DE04B091DF0468
:100E60004FBF821B930B08952FB7F8946091DC0459
:100E70007091DD048091DE049091DF042FBF08950E
:100E80002FB7F8948091DC049091DD04A091DE04EA
:100E9000B091DF042FBF08959C01FC0132969FEFB3
:100EA00080E04191461751F09F3F19F4411101C074
:100EB000982F8F5F8630A9F79F3F09F40895290F77
:100EC000311D97FD3A95F90162830895A3E0B0E0E2
:100ED000ECE6F7E00C94F82F2091D9043091DA0475
:100EE00028173907A1F09093DA048093D904E09190
:100EF000D704F091D804309751F024E029839B83E4
:100F00008A830680F781E02DCE010196099523960C
:100F1000E2E00C941430A3E0B0E0E1E9F7E00C94D7
:100F2000F82F2091D5043091D60428173907A1F065
:100F30009093D6048093D504E091D704F091D8041F
:100F4000309751F023E029839B838A830680F781C1
:100F5000E02DCE01019609952396E2E00C94143021
:100F6000FC01680F791F8FEF91E32191822728E020
:100F700030E087FF09C0880F892721503109C9F760
:100F8000E617F70791F70895880FF7CFFA01811157
:100F900001C0FB01099508958093450180912C05BE
:100FA0008370809344010E942B1683E080934A0152
:100FB0000895EF92FF920F939701201B31092F3F65
:100FC000310519F010F02FEF30E0322F3095482F17
:100FD000430F08F44FEF842F620F0F91FF90EF90B3
:100FE0000895EF92FF920F93972F093438F4B701C9
:100FF000601B71096F3F710519F010F06FEF70E021
:10100000485F5F4F4131510540F0A901485F5F4F94
:101010004131510510F06FEF70E06095482F460F99
:1010200008F44FEF842F37FF02C02D5F3F4F3595F7
:1010300027953595279560912D05620F792F0F9192
:10104000FF90EF900895EF92FF920F931F930E0D74
:101050001F2D111DF90137FF03C0F195E195F1092D
:1010600024E0EE0FFF1F2A95E1F7EF3FF10519F09D
:1010700014F0EFEFF0E09A0157FF03C0319521958E
:10108000310994E0220F331F9A95E1F72E173F079D
:101090000CF4F901E00FF11FEF3FF10519F010F02A
:1010A000EFEFF0E0E095282F3E2F230F08F42FEF0D
:1010B000822F1F910F91FF90EF900895EF92FF9272
:1010C0000F93970195E0099F200D311D11242F3FAB
:1010D000310519F010F02FEF30E02095382F320F46
:1010E00008F43FEF832F0F91FF90EF90089522E8CF
:1010F000241B08F420E0620F08954095282F429F9A
:10110000412D1124842F08950F931F9310E0F801AF
:10111000EE0FFF1FE35DFD4F9081905797FD919576
:10112000000F111FF801EF50FE4F05AD0052110BDB
:101130002003F001219FF00D112408E310E0091BAA
:10114000110997FD139540039001419F300D112423
:10115000E20FF31F9F01220F331F2E0F3F1F37FF98
:1011600002C021583F4F220F232F221F330B620F43
:101170001F910F9108950F931F93522F10E0F801C4
:10118000EE0FFF1FEF50FE4FA5ADA052BB0B9D0110
:101190005203F001539FF00D1124000F111FD801CD
:1011A000A35DBD4F0C910057110B40039001419F6F
:1011B000300D11242E0F3F1F37FF02C0215C3F4F1F
:1011C00096E0359527959A95E1F7620F1F910F915B
:1011D00008950F931F93522F10E0F801EE0FFF1F99
:1011E000EF50FE4FA5ADA052BB0B9D015203F00185
:1011F000539FF00D1124000F111FD801A35DBD4FA7
:101200000C910057110B40039001419F300D1124A8
:101210002E0F3F1F37FF02C021583F4F220F232FB1
:10122000221F330B620F1F910F910895EF920F93BE
:10123000972F23E0029FB0011124759567956E0DDD
:10124000792F0F91EF900895322F50E0FA01EE0FB1
:10125000FF1FEF50FE4F95AD905297FD9195440FB3
:10126000551FFA01E35DFD4F2081231B330B290F2E
:10127000311D97FD3A95620F0895E42FF0E0EE0FCF
:10128000FF1FEF50FE4F65AD621B0895E42FF0E0A5
:10129000EE0FFF1FE35DFD4F6081621B0895622F1B
:1012A0000895E42FF0E0EE0FFF1FE35DFD4F408156
:1012B00034EE439F412D1124E82FF0E050E0445ECE
:1012C0005F4FDA01A21BB1099D01B7FF03C0319541
:1012D0002195310993E0220F331F9A95E1F7AF0171
:1012E000421B530B9A0157FD20E0582F259F212DBB
:1012F0001124822F0895E42FF0E0EE0FFF1FE35D2D
:10130000FD4F408134EE439F412D1124E72FF0E043
:1013100050E0445E5F4FDA01A21BB1099D01B7FFA7
:1013200003C031952195310993E0220F331F9A951F
:10133000E1F7AF01421B530B9A0157FD20E0279FB5
:10134000212D1124722F08950E94A60B0895FF925B
:101350000F931F93CF93DF93182F062FF42ED0E017
:10136000C0E02F2D402F612FCE010E94A4092196AD
:10137000C434D105B1F7CDB7DEB7E5E00C94113038
:10138000FC019B01009729F480E077FF2BC080E8E7
:101390000895AC0197FF04C044275527481B590BFB
:1013A000B901640F751F37FD10C0241B350BC9012F
:1013B000A5E0880F991FAA95E1F70E943F3080E2CF
:1013C000861BF7FF0FC081950895CB0165E0880F5C
:1013D000991F6A95E1F7BA01621B730B0E943F30B7
:1013E00080E6EECF0895EF920F93CF93DF93D72F40
:1013F000C82FC9010E19BA010E94C009602F681BCD
:101400007D2F8C2FDF91CF910F91EF9008950F9347
:10141000CF93DF93D72FC82FC901BA010E94C0090B
:10142000682F600F7D2F8C2FDF91CF910F91089542
:10143000EF920F931F93CF93DF93D62FC72F182FC1
:10144000C9010E19010FBA010E94C009081B202F03
:10145000219F212D1124822F6D2F7C2FDF91CF9181
:101460001F910F91EF900895EF920F931F93CF93D9
:10147000DF93D62F172FC82FC9010E19070FBA01F6
:101480000E94C009702F781B719F712D11246D2F40
:101490008C2FDF91CF911F910F91EF9008950F93B3
:1014A0001F93CF93DF93D62FC72F182FC901212F5A
:1014B000201B022FBA010E94C009982F990F990F83
:1014C000891B800F282F219F212D1124822F6D2F02
:1014D0007C2FDF91CF911F910F9108950F931F9350
:1014E000CF93DF93D62F172FC82FC901272F201B8B
:1014F000022FBA010E94C009982F990F990F782FD7
:10150000791B700F719F712D11246D2F8C2FDF911E
:10151000CF911F910F910895E82F86FDE0952E2F12
:101520002F7086FD2F5FE695E695E695E670F0E074
:10153000E652FE4F9181929F902D212D112492957C
:101540009F702295207F922B2081920F87FD91958D
:1015500080E8890F0895AC018230910508F4089560
:101560009FEF413E8EE1580740F49A0195E0369591
:1015700027959A95E1F798E0920F61E0E62FE90F41
:10158000FF27FF1F9F0135952795822F229FF0018E
:10159000239FF00DF00D11244E175F0738F49FEFD5
:1015A000920F961758F78FEF860F08952F3FE9F3A4
:1015B00061E0620FF6CF0F93CF93DF93D72FC82F41
:1015C00047FD419588E390E0841B910947FD939581
:1015D000889FB001899F700D700D1124229FC0015A
:1015E000239F900D900D1124860F971F0E94AB0A28
:1015F000982F990F890F682F600F7D2F8C2FDF9107
:10160000CF910F91089530E020E0869F212D969F85
:10161000200D311D1124C9010895AF92BF92CF92C0
:10162000DF92FF920F931F93CF93DF93362F472FB5
:10163000E82FF0E0E157F84F71110FC0E4918E2FC1
:101640002E2F6E2F722FDF91CF911F910F91FF9050
:10165000DF90CF90BF90AF900895C72FD0E0249136
:10166000F22E022F10E056E0659FC0011124EFEF2B
:10167000F0E0BF010E942B30832F90E0880F991F6C
:1016800035E5369FD001379FB00D11248A1B9B0B87
:10169000982F990F980F6F01CC1ADD0AC09ED001C8
:1016A000C19EB00DD09EB00D11248B2F499FA0017B
:1016B0001124452F55276F01C41AD50AC09EA001D9
:1016C000C19E500DD09E500D11245F01A91AB10882
:1016D000AC9E6001AD9ED00CBC9ED00C1124CD2CD4
:1016E000DD24EC19FD09E09FE001E19FD00DF09FA2
:1016F000D00D1124ED2F62307105A1F050F4611569
:10170000710509F49ECF6130710581F0EB2F852FB3
:1017100098CF6430710569F080F06630710509F486
:1017200090CFF4CFE22F2B2F8D2F8BCFE22F252FB1
:1017300088CFEB2F822F2D2F84CF2B2F8F2DE52FAE
:1017400080CF89B185FB882780F90895FF920F9398
:101750001F93CF93DF93EC01F62E042F122F0E94DC
:10176000A10B81110FC0C232D1057CF0A297FE01FE
:10177000EE0FFF1FEC0FFD1FE75FFB4FF1820083B1
:10178000128303C0C232D10594F3CDB7DEB7E5E0D2
:101790000C941130CF93C82F0E94A10B882329F0FD
:1017A00081E0C23228F080E003C081E0C434D8F781
:1017B000CF910895A8E0B0E0E0EEFBE00C94E82FB4
:1017C000282E7C836B83209147018EE0289F802DFB
:1017D00011248D83825F8983853410F034E439834A
:1017E0000E94A10B882329F08981833210F092E2B4
:1017F00099830E94A10B811105C0ED81E23210F4A2
:10180000F2E2FD832091FE042A839D81892F90E0DE
:1018100098878F83880F991FFC01EF50FE4F6F014F
:10182000822D90E09C012F5F3F4F3E832D83898165
:101830009F81981730F00E94CA0B2896E2E10C9421
:101840000430EF81F885EB54FD4F80819091480181
:101850008923F9F030902D0540902E058D819E81D1
:1018600082509B4F3C01522C10E0FA815F16D8F059
:1018700020912F05129F112D1124632D742D812F7E
:101880000E940D0B462F282F672F8F8198850E946D
:10189000A4092F8138852F5F3F4F38872F8332E08F
:1018A000C30ED11CC4CFF30181913F01F601A4AC5A
:1018B000A81ABB0885ACF3018781881A9908AA9CED
:1018C0009001AB9C300D300D1124889CC001899C87
:1018D000900D900D1124820F931F0E94AB0A082FC8
:1018E0006091300521E0620F08F46FEFF301EE0F15
:1018F000FF1FEE5FF440858996890E94030B7C01EF
:101900009401A501632D742D812FEB81FC81099534
:10191000362E472E5394182FA8CFB0E0A0E0E3E96D
:10192000FCE00C94F22F7C01C09147018EE0C89F2F
:10193000C02D11241EE01C0F153408F014E40E9481
:10194000A10B882319F0133208F012E20E94A10BB8
:10195000811103C0C23208F4C2E22091300531E0A7
:10196000230F08F42FEF30E050E040E06FEF7FEFFF
:1019700080E090E00E9453306901D0E001E02C2F1C
:10198000C11740F0812F0E94CA0BCDB7DEB7E8E047
:101990000C940E30FE01EB54FD4F80819091480174
:1019A000892309F14091FE044150042E000C550B8F
:1019B00047FF1BC0C60160913005600F08F46FEF50
:1019C0000E94030BAC0160912D0570912E05809152
:1019D0002F05F70109950E940D0B462F282F672F21
:1019E000CE010E94A4092196CACFFA01E250FB4F12
:1019F000818982130AC0FA01EE0FFF1FE250FB4FEC
:101A0000818D928D8C159D05B0F241505109D0CF3A
:101A1000B0E0A0E0EEE0FDE00C94F02F6C01C0918E
:101A200047018EE0C89FC02D11241EE01C0F153405
:101A300008F014E40E94A10B882319F0133208F077
:101A400012E20E94A10B811103C0C23208F4C2E26B
:101A500060913005669566958091FA049091FB043B
:101A60000E94030BF82E80E48F0D0E948C0A90E8F0
:101A7000B92EB80E8F2D0E948C0A20E8A22EA80E37
:101A8000D0E0C11740F0812F0E94CA0BCDB7DEB75E
:101A9000EAE00C940C30FE01EB54FD4F80819091F4
:101AA00048018923A1F060912D0570912E05809148
:101AB0002F05EF2C0C2F2A2D4B2DF60109950E9496
:101AC0000D0B462F282F672FCE010E94A4092196C7
:101AD000D8CFB0E0A0E0EFE6FDE00C94EC2F5C0185
:101AE000C09147018EE0C89FC02D11241EE01C0F3D
:101AF000153408F014E40E94A10B882319F0133266
:101B000008F012E20E94A10B811103C0C23208F456
:101B1000C2E26091300566958091FA049091FB04D1
:101B20000E94030BF82ED0E0CE01880F991F9C0174
:101B30002F503E4F6901C11740F0812F0E94CA0B00
:101B4000CDB7DEB7EEE00C940830FE01EB54FD4F4C
:101B5000808190914801892379F1F60184AD282F85
:101B60002057330B490185ADE82FE052FF0B3F01B1
:101B7000889C9001899C300D300D1124EE9FC0018E
:101B8000EF9F900D900D1124820F931F0E94AB0ABE
:101B9000082F60912D0570912E0580912F05EF2C57
:101BA0009301A401F50109950E940D0B462F282FE2
:101BB000672FCE010E94A409F2E0CF0ED11C21961E
:101BC000BACFB0E0A0E0E7EEFDE00C94F12F6C019D
:101BD000C09147018EE0C89FC02D11241EE01C0F4C
:101BE000153408F014E40E94A10B882319F0133275
:101BF00008F012E20E94A10B811103C0C23208F466
:101C0000C2E26091300566958091FA049091FB04E0
:101C10000E94030BB82ED0E0CE01880F991F9C01C3
:101C20002F503E4F7901C11740F0812F0E94CA0BFF
:101C3000CDB7DEB7E9E00C940D30FE01EB54FD4F5B
:101C40008081909148018923C1F0F70125AD205290
:101C5000330B44AD4057550B60912D0570912E0507
:101C600080912F050B2DF60109950E940D0B462F33
:101C7000282F672FCE010E94A409F2E0EF0EF11C7D
:101C80002196D1CFEF92FF920F931F93CF93DF93C3
:101C90007C01C09147018EE0C89FC02D11241EE039
:101CA0001C0F153408F014E40E94A10B882319F0CE
:101CB000133208F012E20E94A10B811103C0C2325C
:101CC00008F4C2E2609130056695669521E0620FE6
:101CD00008F46FEF8091FA049091FB040E94030BCB
:101CE000082FD0E0C11740F0812F0E94CA0BCDB75A
:101CF000DEB7E6E00C941030FE01EB54FD4F80811E
:101D000090914801892391F060912D0570912E05E5
:101D100080912F05202F4C2FF70109950E940D0B64
:101D2000462F282F672FCE010E94A4092196DACFD3
:101D3000B0E0A0E0EEE9FEE00C94F02F182F8091C7
:101D40004501811323C090912C059370209144018B
:101D500030E081E09217130609F480E081708093EF
:101D600049018091310590914801981739F080938D
:101D7000480140E060E080E00E94A709113288F449
:101D8000E12FF0E0EC5FFE4C0C94723081E0E6CF86
:101D900080914901882389F140E060E080E00E9461
:101DA000A70980E02AC0C09147018EE0C89FC02DDE
:101DB00011240EE00C0F053408F004E40E94A10B7E
:101DC000882319F0033208F002E20E94A10B81116E
:101DD00003C0C23208F4C2E260912D0570912E0555
:101DE00080912F050E940D0BF62EE72ED82ED0E005
:101DF000C017D8F0802F0E94CA0B909147019F5FB7
:101E00009093470181110CC082E080934A01809138
:101E10004901811105C0111103C083E080934A017B
:101E2000CDB7DEB7EAE00C940C30FE01EB54FD4F69
:101E3000808190914801892331F02D2D4F2D6E2DF9
:101E4000CE010E94A4092196D3CFC09147018EE014
:101E5000C89FC02D11240EE00C0F053408F004E4D7
:101E60000E94A10B882319F0033208F002E20E94BD
:101E7000A10B811103C0C23208F4C2E2E0902E052A
:101E8000F0902F05D0912D056D2F7E2D8F2D0E9466
:101E90000D0BD62EC72EB82E609130056D0F7E2DFE
:101EA0008F2D0E940D0BF62EE72EA82ED0E0C01726
:101EB00008F0A0CFFE01EB54FD4F908180914801C6
:101EC000892359F02A2D4F2D6E2D90FD03C02B2D07
:101ED0004D2D6C2DCE010E94A4092196E8CFC09112
:101EE00047018EE0C89FC02D11240EE00C0F053471
:101EF00008F004E40E94A10B882319F0033208F0D3
:101F000002E20E94A10B811103C0C23208F4C2E2B6
:101F1000E0902E05D0902F052091300550E4F52E4D
:101F20003F2D329F312D1124F32ED0E0C01708F041
:101F300061CFFE01EB54FD4F8081909148018923D0
:101F4000B9F0FE01EE0FFF1FEF50FE4F85AD8295F9
:101F50008F7060912D058F9D600D11247E2D8D2D2C
:101F60000E940D0B462F282F672FCE010E94A40937
:101F70002196DCCFC09147018EE0C89FC02D11246F
:101F80000EE00C0F053408F004E40E94A10B882336
:101F900019F0033208F002E20E94A10B811103C084
:101FA000C23208F4C2E2E0902E05D0902F052091B5
:101FB000300530E4F32E3F2D329F312D1124F32EC6
:101FC000D0E0C01708F016CFFE01EB54FD4F808122
:101FD000909148018923D9F0FE01EE0FFF1FEF50C9
:101FE000FE4F64ADF69EB001112495E0759567959E
:101FF0009A95E1F780912D05680F7E2D8D2D0E9419
:102000000D0B462F282F672FCE010E94A409219681
:10201000D8CFC09147018EE0C89FC02D11240EE09B
:102020000C0F053408F004E40E94A10B882319F07A
:10203000033208F002E20E94A10B811103C0C232F8
:1020400008F4C2E2F0902D05D0912E05E0902F0506
:10205000609130056695669566958091FA04909139
:10206000FB040E94030B0E948C0A805887FD819517
:10207000880F282F3E2D239F212D1124822F6F2D75
:102080007D2F0E940D0BF62EE72ED82ED0E0C01724
:1020900008F0B0CEFE01EB54FD4F808190914801D5
:1020A000892331F02D2D4F2D6E2DCE010E94A409D4
:1020B0002196EDCF8BE799E00E94420E9ECE81E5FE
:1020C00099E0FACF8EE69AE00E94E10D96CE8FE479
:1020D0009AE0FACF84E39AE00E94690D8ECE88E1FF
:1020E0009AE0FACF8FE499E0E7CF86E499E0E4CF75
:1020F0008DE399E0E1CF84E299E0DECF86E199E0DB
:10210000EBCF8BED9AE0E0CF87E09AE0DDCF83EF75
:1021100099E0E2CF89EE98E00E94080D6ECE8BEB3D
:1021200098E0FACF84E898E0F7CF8DE798E00E9436
:102130008D0C63CE87E798E0FACF8091FE0421E012
:10214000382F321B08F430E0832F6EE578E00E94D0
:10215000DA0B53CE6EE578E080E0F9CF8091FE0493
:1021600021E0382F321B08F430E0832F63E278E05F
:10217000EECF63E278E0F0CF8091FE0421E0382FCB
:10218000321B08F430E0832F61EF77E0E0CF61EF9E
:1021900077E0E2CF8091FE0421E0382F321B08F473
:1021A00030E0832F69ED77E0D2CF69ED77E0D4CFCF
:1021B000F894E82FE295EF70F0E031A1282F2F700E
:1021C00081E090E001C0880F2A95EAF7982F90955A
:1021D000932391A392A1892B82A37894089590913F
:1021E000B60392FF06C0282F28712830F9F4877FA4
:1021F000846093FF06C0282F28712831F1F4877E70
:1022000084612091B70320FF06C0382F3871383021
:10221000D9F4877F816021FF06C0282F28712831DB
:10222000D1F4877E816194FD877E0895282F2471E3
:102230002430F9F68B7F8860DCCF282F247124317D
:1022400001F78B7E8861DDCF382F3171313019F77E
:102250008E7F8860E0CF282F2171213121F78E7E7B
:102260008861E1CF82389105B9F1B0F481339105ED
:1022700009F47DC048F48932910509F46DC08A32B1
:10228000910509F47BC008958533910509F45FC079
:102290008933910509F10895833E9105D9F138F408
:1022A000803E910529F1823E910579F10895863E9F
:1022B0009105D9F1873E910509F43EC0843E910510
:1022C00041F52091B70321FF24C08091B60384FD1E
:1022D00019C087EE90E008952091B603237009F0AD
:1022E0005AC02091B70323FF14C089E290E00895FB
:1022F0002091B60320FD38C03091B70330FF09C0EC
:1023000024FF43C090E080E008952091B60322FDB1
:10231000F7CF08952091B60322FD3AC03091B7035C
:1023200030FD39C024FFF5CFEDCF2091B60323FF58
:10233000F0CF24FDE7CFCDCF2091B60323FD2EC0F3
:102340003091B70331FFEECF84EE90E008952091F5
:10235000B60325FFDECFC9CF2091B60325FD21C0EE
:102360002091B70323FFD5CF89E390E0D2CF20910E
:10237000B60326FFCECF8AE290E008952091B603FF
:1023800026FFC7CF81E390E0089583EE90E00895A3
:1023900082EE90E0089580EE90E0089586EE90E061
:1023A000089585E390E00895972F7A30B8F4663069
:1023B000A8F48830B0F470E026E0929F600D711DA3
:1023C0001124FB019CE3899FE00DF11D1124EE0F08
:1023D000FF1FE753FE4F85919491089580E090E0B0
:1023E000089581E0FCCF1F93CF93DF930E943211B9
:1023F000EC01C11580E5D807F0F5C11580E4D807D8
:1024000008F09CC0C03ED10520F5CD3CD10508F0B8
:1024100082C0C83AD10578F4C53AD10508F073C036
:10242000C130D10519F1209709F1C430D105F0F47C
:10243000D0E0C0E01BC0C33CD105D0F7C85AD0E003
:10244000CC0FDD1FC257DE4F0990D881C02DD46458
:102450000DC0C11580E2D80708F0D1C0C11581E0D8
:10246000D80708F05AC0C83ED10510F7CE01DF9159
:10247000CF911F910895C03682E5D80718F5C03472
:1024800082E5D80708F06BC0C03282E5D80708F0B3
:102490005FC0C11582E5D80708F497C02C2F269598
:1024A000269580E2289F900111248C2F8370C1E033
:1024B000D0E002C0CC0FDD1F8A95E2F7C22BD32BF0
:1024C000DD68D4CFC03A82E5D80760F4C03882E531
:1024D000D80708F459C0CF71D0E0DC2FCC27C46FE7
:1024E000D06AC4CFC03C82E5D80708F462C0C03EC1
:1024F00082E5D80708F09CCFDC2FCC27CC27DF71F2
:10250000C06FD06AB3CFC55AD0E0C557DE4FC8817F
:10251000D0E0D064ABCFD065A9CF8D2F0E94EF1053
:10252000182FCE0199270E943211C12FD0E0DC2F45
:10253000CC27CC27DF71C82BD92B98CFCE01992778
:102540000E943211CC27DF70C82BD92BD06A8ECFD6
:10255000CF71D0E0DC2FCC27C16FD06A87CF2C2F72
:1025600026952695277080E2289F900111248C2FB4
:102570008370C1E0D0E002C0CC0FDD1F8A95E2F786
:10258000C22BD32BDC6872CF2C2F26952695277073
:1025900080E2289F900111248C2F8370C1E0D0E04D
:1025A00002C0CC0FDD1F8A95E2F7C22BD32BDA686D
:1025B0005DCF8C2F8F710E94EF10C82FD0E0DC2FE1
:1025C000CC27CC27DF71D06251CF8C2F8F710E9426
:1025D000EF1055E0D695C7955A95E1F7CF70D0E04A
:1025E000DC2FCC27282F30E084FF05C044E0220FE9
:1025F000331F4A95E1F7C22BD32BD06937CF8D2FEC
:102600008F710E94EF10182FCE0199270E9432116E
:10261000C12FD0E0DC2FCC27CC27DF71C82BD92BE2
:10262000D2CF0E94340708958091680381111092DF
:1026300068030895809590916703982390936703AA
:10264000089520915C0390912B0356E0291302C05A
:1026500080E0089530E0529FF001539FF00D112467
:10266000E45DFC4F7181761306C07081781303C05E
:102670007281741304C02F5F3F4F2770E7CF81E052
:10268000089580915C0390912B03981301C00895E5
:102690008F5F8770FACFB0E0A0E0E1E5F3E10C9442
:1026A000F12F7C010091B4031091B503809169036F
:1026B00090916A03082B192BCFE0D0E0CC24C3946F
:1026C000D12CBC2EC6010C2E02C0880F991F0A9473
:1026D000E2F780239123892B49F4219790F7B12CBD
:1026E0008B2DCDB7DEB7E9E00C940D30B7018C2F00
:1026F0000E94D4110E94F311019779F3F1CFCF9387
:10270000DF93EC010E944B13BE010E94D4110E9482
:10271000F311DF91CF9108959A3078F5863068F5FE
:10272000E82FF0E086E0989FE00DF11D11249E2F28
:10273000977083E0F695E7958A95E1F7EE0FFF1F16
:10274000EE0FFF1FEB5FFC4F50E040E080E0219177
:1027500030E0092E02C0369527950A94E2F72170E1
:102760003327042E01C0220F0A94EAF7822B4F5F11
:102770005F4F4430510559F7089580E008959A302D
:1027800098F5863088F5E82FF0E086E0989FE00D18
:10279000F11D11248E2F877041E001C0440F8A95EE
:1027A000EAF783E0F695E7958A95E1F7EE0FFF1FCC
:1027B000EE0FFF1FEB5FFC4F30E020E070E0519127
:1027C000DF011197CB01022E02C0969587950A94DE
:1027D000E2F7817081958527842385278C932F5F6D
:1027E0003F4F2430310559F708959093B5038093F6
:1027F000B403089521E030E002C0220F331F8A9510
:10280000E2F7209530958091B4039091B50382232F
:1028100093230E94F513089590915D038095892379
:1028200080935D03282F277091F4282F082E000C29
:10283000330B9217130659F09091B70392FF07C01C
:102840008595859585950E94FA1310925D030895EC
:1028500021E030E002C0220F331F8A95E2F7809119
:10286000B4039091B503822B932B0E94F513089526
:1028700090936A03809369030895FC018381948196
:10288000892B29F08081918189238F3F51F480E049
:102890000895843FE1F717C0883EA8F0813FB9F75B
:1028A00012C0808191810E947F1392959F70963013
:1028B00099F358F4925F9F70923048F7803F19F077
:1028C00040F7883E20F781E008959A5FF4CF829523
:1028D00090E09C01220F331F220F331F2C7C959513
:1028E0008795959587958373282B30E0C901880FCC
:1028F000991F8A7A359527952575822B0895909191
:102900002C05937031F1811125C0946090932C05B2
:1029100010924A0180912A05816080932A05809156
:102920002B0580FF16C080912C05869586951F92F9
:102930008F9389E591E09F938F9384EA99E09F9329
:102940008F930E94BE050F900F900F900F900F90E5
:102950000F900895813210F09068D8CF880F880FBB
:10296000982BD4CF80912C0586958695815009F4BB
:1029700080E20E947F14089580912C0586958695AB
:102980008F5F813208F081E00E947F1408952091CA
:102990002C05237059F180932D0560932E0549373E
:1029A00008F048E740932F0520912A0521602093E5
:1029B0002A0520912B0520FF19C01F924F931F92CB
:1029C0006F9399279F938F9389E591E09F938F93BE
:1029D00081E899E09F938F930E94BE058DB79EB7C3
:1029E0000A960FB6F8949EBF0FBE8DBF0895ECE215
:1029F000F5E0438120E1421B08F440E081816281DF
:102A000090E00E94C7140895ECE2F5E0438120E1D4
:102A1000420F08F44FEF8181628190E00E94C71459
:102A20000895ECE2F5E0628120E1621B08F460E0C9
:102A30008181438190E00E94C7140895ECE2F5E0A3
:102A4000628120E1620F08F46FEF8181438190E0A1
:102A50000E94C7140895ECE2F5E081814381628110
:102A60008850990B0E94C7140895ECE2F5E081812B
:102A700090E04381628108960E94C7140895809374
:102A8000300590912A05916090932A0590912B052D
:102A900090FF12C01F928F9389E591E09F938F93CF
:102AA00082E699E09F938F930E94BE050F900F904E
:102AB0000F900F900F900F9008958091300520E1B6
:102AC000382F321B08F430E0832F0E943F15089501
:102AD0008091300520E1382F320F08F43FEF832F2B
:102AE0000E943F1508959FB7F8941092E1049FBF8C
:102AF0009091F004943009F048C02091E9002F70C3
:102B00003091EC00932F917030FD90E8922B23E0F0
:102B10002093E9002091EB0020FF34C02091EE00CB
:102B200027FF30C02091E004222321F02091E8000B
:102B300025FF28C01092E00426E03091E80035FF20
:102B400014C08093F1008091E80085FD27C080913A
:102B5000E80080FFFCCF8091E8008E778093E8004A
:102B60009F709093E90080E008953091F004343034
:102B700049F43091EB0035FD05C0215041F481E06E
:102B80008093E0049F709093E9008FEF0895EFE940
:102B9000FFE03197F1F700C00000CFCF8FB7F89476
:102BA00021E02093E1048FBFDBCF0F931F93CF93DE
:102BB000DF938B01EA019091F004943061F58093EA
:102BC000E9008FEF9091E800815095FD06C095EDEA
:102BD0009A95F1F700008111F5CF8091E80085FF0B
:102BE0001AC00E94E605811111C08091E80085FDA0
:102BF00006C08091E8008E778093E800F2CFF8015C
:102C000081918F018093F100219779F78091E800FD
:102C10008E778093E800DF91CF911F910F910895F7
:102C200043E050E0BC0182E00E94D5150895CF93A7
:102C3000DF93EC0148E050E0BC0181E00E94D51533
:102C400088E0FE01A6EEB4E001900D928A95E1F7CE
:102C5000DF91CF9108956E9A3EB13F7B2EB12064F3
:102C60004FB7F89489E094E0FC015191CF0168E0FE
:102C70002EB9000000C057FF3EB9550F000000C03C
:102C800000C000C03EB900C06A9591F7F4E0853DF0
:102C90009F0751F74FBF8FE594E00197F1F700C010
:102CA00000000895B0E0A0E0E8E5F6E10C94ED2F17
:102CB0007C015B01842E752E69018091780301E00F
:102CC00010E08A3010F40AE010E0C1E0D0E0B50175
:102CD000C701F6010995982E811114C021960C1791
:102CE0001D07B4F480912B0580FF0CC07F928F925A
:102CF00082ED95E09F938F930E94BE050F900F90F9
:102D00000F900F90892DCDB7DEB7EDE00C94093010
:102D1000CC9F9001CD9F300D300D112490E080E0CC
:102D200045E34A95F1F70000019628173907C1F7E6
:102D3000CECF80917703811110C08091D80080613F
:102D40008093D8008AE18A95F1F700C08091D9007C
:102D500080FF0AC081E08093770381E09091770340
:102D6000913009F080E0089582E0809377030E941B
:102D7000C7051092F004F1CF0E949916882359F0EC
:102D8000E091D704F091D804309729F00190F081B8
:102D9000E02D0995089580E008950F931F930E94F8
:102DA0009916882329F00E9434071F910F910895E6
:102DB0000E9434070091A2031091A3032091A40361
:102DC0003091A503600F711F821F931FEECFCF922A
:102DD000DF92EF92FF926B017C010E94991688238B
:102DE000A1F02FB7F8946091DC047091DD0480911C
:102DF000DE049091DF042FBF6C197D098E099F09B5
:102E0000FF90EF90DF90CF9008950E94CD16F4CF01
:102E10004F925F926F927F928F929F92AF92BF92EA
:102E2000CF92DF92EF92FF926091040470910504BB
:102E300080910604909107040E94E7166B017C01C3
:102E40000E94CD164B015C0180920404909205040F
:102E5000A0920604B0920704A091DB03EBEDF3E02F
:102E60008A2F90E04FEF5FEF60E070E04C195D0952
:102E70006E097F09A91328C08093DB0380910804A1
:102E8000811135C090912C05892F837019F0892FFD
:102E90008695869590914A01913009F441C0992315
:102EA00041F1923009F43FC0933009F43FC0FF90E4
:102EB000EF90DF90CF90BF90AF909F908F907F90DA
:102EC0006F905F904F900895218D328D2901712C64
:102ED000612C441555056605770520F481509F5FE8
:102EE0003296C8CF2C0D3D1D328F218FF8CF80E058
:102EF000D1CF109247018092FA049092FB04A092E5
:102F0000FC04B092FD0489E2EBEDF3E0AEEFB4E037
:102F100001900D928A95E1F781E080934A01C7CF35
:102F20000E94980EC4CF0E94CC07C1CF80912A0581
:102F3000882351F046E050E06CE170E08CE295E0CF
:102F40000E94B83010922A056091FA047091FB0437
:102F50008091FC049091FD040E94E7166031710598
:102F60008105910508F4A3CF10924A01A0CF80916A
:102F70002B0580FF08C08FE898E09F938F930E94F5
:102F8000BE050F900F9085E380932C0580914B0137
:102F900090914C01A0914D0180932D0590932E05A9
:102FA000A0932F058FE7809330058FEF8093310535
:102FB00046E050E06CE170E08CE295E00E94B830B1
:102FC00010922A050895AFE0B0E0E9EEF7E10C9425
:102FD000ED2F8E010F5F1F4F8AE0D8011D928A9559
:102FE000E9F786E3C82E81E0D82EF12CE12CAA2443
:102FF000A394B12C26E3822E21E0922EF60181913A
:103000006F018F3F09F442C0F894E82FE295EF700A
:10301000F0E021A18F70A50102C0440F551F8A95D1
:10302000E2F7CA01922F982B91A392A18095892350
:1030300082A3789400C0E0E3F1E0712C31E02191AB
:103040002F3F09F46BC0A22FA295AF70B0E090960D
:103050008C9190E02F7002C0959587952A95E2F7A4
:1030600080FD5CC0832F782A330F8E169F0639F7B8
:10307000F601319780818F3F11F00E94D81050EAFD
:103080005A95F1F7F801EE0DFF1D70828FEFE81AE7
:10309000F80A95E0E916F10409F0B0CF4AE050E0F3
:1030A000B80188EA93E00E94EC30009741F02AE0F2
:1030B000F801A8EAB3E001900D922A95E1F700919A
:1030C000B303892B69F181E080936F030E9440076D
:1030D00090936E0380936D0380916D0390916E03C6
:1030E0000E942507059700F110E008541C4F45E0A9
:1030F00050E068EA73E0C8010E94EC30C12C892BD3
:1031000051F085E0E8EAF3E0D80101900D928A954C
:10311000E1F7CC24C39410926F0307C080E0A3CFE3
:1031200080916F038111D8CFC12C0E949916D82E9F
:10313000E091B303DE011B967D01882309F499C059
:1031400085E01D928A95E9F70E2F10E008541C4F78
:10315000B0907803B9E0BB1508F447C02BEC3FE111
:1031600040E651E0B701C8010E945216882309F4D5
:103170005EC022E73FE14DE651E0B701C8010E9481
:103180005216882309F453C027E73EE145E751E092
:10319000B701C8010E945216882309F448C025E1EE
:1031A0003EE140E851E0B701C8010E945216882371
:1031B000F1F1F9E0FB1508F453C010927803809107
:1031C000B20390E045E050E0B70188549C4F0E9464
:1031D000EC3021E020937603892BE1F4D12C8D2D66
:1031E0008C292F96EDE00C9409308091700390911A
:1031F00071030E942507843F914008F0AFCF809172
:103200007603882359F385E0D7011D928A95E9F763
:1032100010927603A091B203B0E0A854BC4F85E0B1
:10322000FE013B9601900D928A95E1F7D8CF8091EF
:1032300078038F3F31F08F5F809378038A3008F4F2
:10324000BECF0E94400790937103809370038091DA
:103250002B0580FFD4CF8CE995E00E942505CFCFC8
:1032600080912B0580FFA9CF89E895E00E94250574
:10327000A4CFF0E0E854FC4F85E0ABE8B3E0019068
:103280000D928A95E1F765E070E08BE893E00E948B
:10329000B00780938A034091D50350E06091D40336
:1032A00070E064537C4FC7010E94F9308B859C8588
:1032B000909392038093910362E070E0C7010E94B3
:1032C000B007809390038090930390909403A09014
:1032D0009503B09096038091720390917303A0912F
:1032E0007403B091750388169906AA06BB06D1F03F
:1032F0008092720390927303A0927403B09275034C
:103300000E94991681110EC00E943407861A970AEE
:10331000A80AB90A8092A2039092A303A092A403E0
:10332000B092A50386E0E7E9F3E0ACE2B5E00190F6
:103330000D928A95E1F710919D03112349F0809138
:103340000804811105C00E94980E80E00E94CC07FD
:103350001093080444CF0F931F93CF93DF93809172
:10336000670390916603892B8093FC029091680318
:10337000992391F0892B8093FC0220E08EEF92E05C
:10338000FC013191CF0131112F5FF3E084309F07B1
:10339000B9F721110E94141348E050E06EE573E084
:1033A0008CEF92E00E94EC30892B09F441C088E058
:1033B000ECEFF2E0AEE5B3E001900D928A95E1F713
:1033C000E091D704F091D804309791F10280F38115
:1033D000E02D8CEF92E0099580912B0582FF28C0AB
:1033E00080FF04C087EB91E00E942505D0E0C0E09B
:1033F00001EB11E080912B0580FF0EC0FE01E4502F
:10340000FD4F80811F928F931F930F930E94BE05E3
:103410000F900F900F900F902196C830D10551F763
:1034200080912B0580FF04C08FEA91E00E94250562
:10343000DF91CF911F910F91089510926703EEEFE6
:10344000F2E086E0DF011D928A95E9F790E080E0E6
:103450000E948B0790E080E00E946607109266034E
:103460000E94AB190895AAE2B0E0E9E3FAE10C94F6
:10347000F72F82EF94E02091F100DC012D93CD0134
:10348000B4E08A3F9B07B9F78091F304833009F4D5
:1034900070C0B8F4813009F447C0823009F4B1C07B
:1034A0008091E80083FF84C28091F2049091F3043C
:1034B0009A3008F07DC2E92FF0E0EB5DFE4C0C94F1
:1034C00072308A3009F48CC08B3009F46FC08930B7
:1034D00039F78091F204813219F78091F6049091C6
:1034E000F7040297E8F68091E800877F8093E80070
:1034F0008091E80082FF38C09091F3008091F20043
:10350000029731F48091F100813011F0863021F47E
:103510008091F1008093E5048091E8008B7780939F
:10352000E8000E941706BCCF8091F204813A09F0AE
:10353000B7CF8091E800877F8093E8008091F60400
:103540009091F704892B61F468E086EE94E070E0D6
:103550000E94C3068091E8008B778093E800A0CF9B
:1035600060E090E080E0F3CF8091F0048111C0CF63
:1035700097CF8091F204813A09F092CF8091F604BE
:103580009091F704892B09F08BCF8091E800877F19
:103590008093E8008091E80080FFFCCF8091460195
:1035A0008093F1008091E8008E77B9CF8091F2048A
:1035B000813209F075CF8091F6049091F704892B40
:1035C00009F06ECF8091E800877F8093E8000E9429
:1035D00017068091F404809346010E941D1A60CF63
:1035E0008091F204813209F05BCF8091E800877FFF
:1035F0008093E8000E9417068091F5048093E4040C
:103600004FCF8091F204813A09F04ACF8091E800CF
:10361000877F8093E8008091E80080FFFCCF809155
:10362000E404BECF803899F0823809F0C1C180919E
:10363000F6048F70873008F0BBC18093E900809159
:10364000EB0085FB882780F91092E90006C0809185
:10365000EE049091EF04911182609091E800977FC1
:103660009093E8008093F1001092F1008091E800BF
:103670008E779AC1882309F488C1823009F098C1F5
:103680008091F40481118BC18091F6048F702FEF2B
:10369000280F263008F08CC18093E9002091EB00C0
:1036A00020FF7DC1933031F48091EB0080628093E4
:1036B000EB0075C19091EB0090619093EB0021E0DD
:1036C00030E001C0220F8A95EAF72093EA001092B9
:1036D000EA008091EB008860EACF811169C1109106
:1036E000F4041F778091E3008078812B8093E300BE
:1036F0008091E800877F8093E8000E941706809100
:10370000E80080FFFCCF8091E30080688093E300B5
:1037100082E0111183E08093F0044AC18058823026
:1037200008F046C12091F4043091F5042C3DE3E00B
:103730003E07A1F583E08A838AE289834FB7F89434
:10374000DE01139620E03EE051E2E32FF0E05093DB
:103750005700E49120FF03C0E295EF703F5FEF70E8
:103760008E2F90E0EA30C0F0C7968D939D932F5F27
:10377000243159F74FBF8091E800877F8093E8009C
:103780006AE270E0CE0101960E94C3068091E800D3
:103790008B778093E8000CC1C096E7CF8091F60448
:1037A0009091F704432F55274330510509F44AC03F
:1037B00078F54130510509F47AC08BE590E0E7ECEB
:1037C000F8E04230510509F0F3C02091E800277F6E
:1037D0002093E8002091F8043091F90482179307B0
:1037E00008F49C0140E02115310509F065C0411144
:1037F00063C08091E80082FDC9CF8091F0048823E6
:1038000029F2853019F28091E80083FFF2CFBECF14
:103810004132510509F43CC04232510509F0C8C09B
:103820008330910508F0C4C0FC01EE0FFF1FEB517F
:10383000FE4F0190F081E02D8E519E4FDC018C9166
:1038400090E01AC0332721303105D1F02115310520
:1038500061F02230310509F0ABC0E4E3F9E0E49116
:103860008E2F90E0E4E3F9E007C0EEE5F9E0E491A3
:103870008E2F90E0EEE5F9E0009709F499C0A5CF0E
:10388000EEE4F9E0E4918E2F90E0EEE4F9E0F4CF7D
:103890008330910508F08CC0880F991FFC01E55119
:1038A000FE4F0190F081E02D89E090E08ECF82E123
:1038B00090E0E2E2F9E089CF8091F004882309F4F6
:1038C00065CF853009F462CF8091E80083FD5ECF3B
:1038D0008091E80082FD8DCF8091E80080FF83CF4A
:1038E0009091F3008091F2002115310519F0883094
:1038F000910550F041E0089709F040E08091E80020
:103900008E778093E8006FCF44914093F100319619
:10391000215031090196E8CF803809F049C08091E3
:10392000E800877F8093E8008091F1048093F100A4
:103930009DCE81113DC01091F4041230C8F58091E4
:10394000E800877F8093E8001093F1040E94170637
:10395000112311F084E005C08091E30087FDFACFC8
:1039600081E08093F00442E061EC81E00E94360641
:1039700042E261EC82E00E94360642E261EC83E0C2
:103980000E9436068091F00413C08091F4048130C7
:1039900079F481E0933009F080E08093EF04109295
:1039A000E9008091E800877F8093E8000E94170675
:1039B0008091E80083FF0AC08091E800877F8093B0
:1039C000E8008091EB0080628093EB00AA96E3E030
:1039D0000C9413300E941D1A2FEF84E39CE02150B9
:1039E00080409040E1F700C0000088E19CE00FB605
:1039F000F894A895809360000FBE90936000FFCF6D
:103A0000882321F00E941A130E94AB19089588237D
:103A100039F090916703982B909367030E94AB193C
:103A20000895882391F19CEF980F913A80F4EEEF7E
:103A3000F2E024E033E09191891303C0DF01119794
:103A40001C922E173F07B9F70E94AB19089590E218
:103A5000980F983050F4877091E001C0990F8A95C3
:103A6000EAF7892F0E941A13EFCF9BE5980F933046
:103A700028F490E080E00E948B070895885A8B31EB
:103A800020F490E080E00E9466070895CF93C82F4D
:103A90008823B1F08CEF8C0F813A00F5EEEFF2E065
:103AA00084E093E0DF012D91C21761F08A179B0734
:103AB000D1F76C2F8CEF92E00E944C070E94AB195B
:103AC000CF9108952191C21303C0DF0111971C9279
:103AD0008E179F07B9F70E94AB19EBCF80E28C0FCE
:103AE000883068F4C77021E030E001C0220FCA9529
:103AF000EAF780916703822B80936703DFCFEBE5C2
:103B0000EC0FE33040F4F0E0E557FE4F808190E0A9
:103B10000E948B07D5CFC85ACB3190F6EC2FF0E03E
:103B2000EE0FFF1FE257FE4F808191810E946607D2
:103B3000C7CFCF93C82F0E94461D8C2F0E94111D06
:103B4000CF9108950F931F93CF93DF93C62FD42F58
:103B5000022FFC0182818823A9F0609329050E942D
:103B600040079093280580932705C77081E001C026
:103B7000880FCA95EAF70E94071DDF91CF911F9128
:103B80000F91089580912905681332C0809127050F
:103B9000909128050E942507883C910548F510E280
:103BA0001D0FCD17B9F080E28C0F883040F4C7703C
:103BB00081E001C0880FCA95EAF70E94001D183005
:103BC00048F481E09D2F977001C0880F9A95EAF71D
:103BD0000E94071D802F0E94991D183070F6D77023
:103BE00081E001C0880FDA95EAF70E94001DC5CF79
:103BF000C77081E001C0880FCA95EAF7F6CF81113E
:103C000008C089EA611101C08AEA0E94991D80E01A
:103C10000895813029F48EE46111F7CF8BE4F5CF5C
:103C2000823079F3833099F7F6CFA7E0B0E0EBE18B
:103C3000FEE10C94F62F86E0ECE2F5E0DE01119651
:103C400001900D928A95E1F7809108048F8347E0F7
:103C500050E067E973E0CE0101960E94EC300091DC
:103C60009E0310919F032091A0033091A103EFB711
:103C7000F8944091DC045091DD046091DE04709171
:103C8000DF04EFBF401B510B620B730B4436510531
:103C90006105710518F411E0892B21F1809129014A
:103CA00090912A0186579C4F4091280150E048305E
:103CB000510510F047E050E0BE016F5F7F4F0E945A
:103CC000F93085E090E00E94722F182F882351F080
:103CD0000E94340760939E0370939F038093A00318
:103CE0009093A103812F2796E4E00C941230A4E076
:103CF000B0E0EDE7FEE10C94F72F40918603509180
:103D0000870360918803709189032FB7F89480919D
:103D1000DC049091DD04A091DE04B091DF042FBF9C
:103D2000841B950BA60BB70B11E084369105A105FA
:103D3000B10570F10E94CD166E5F7F4F8F4F9F4F80
:103D400069837A838B839C838091210190912201E6
:103D500086579C4F4091200150E04530510510F0AE
:103D600044E050E0BE016F5F7F4F0E94F93084E075
:103D700090E00E94722F182F882351F00E94340780
:103D800060938603709387038093880390938903DD
:103D9000812F2496E3E00C9413304F925F927F9230
:103DA0008F929F92AF92BF92CF92DF92EF92FF924B
:103DB0000F931F93CF93DF930F92CDB7DEB7C62E2D
:103DC0004A015901482E880F5508C2010E94722FDE
:103DD000782E882309F480C0C20133E0880F991F30
:103DE0003A95E1F7FC01E050FF4F438150E0411567
:103DF000510511F041E050E080509F4FFC0164817B
:103E0000758166577C4FCE0101960E94F930F4010E
:103E100040815181628173812FB7F8948091DC04D5
:103E20009091DD04A091DE04B091DF042FBF841BCC
:103E3000950BA60BB70B84369105A105B10540F48F
:103E4000B701C8010E94B0079981891709F444C0DD
:103E50000C2C000CDD08C6010E94722F782E8111F7
:103E600013C0712C872D0F90DF91CF911F910F916F
:103E7000FF90EF90DF90CF90BF90AF909F908F908A
:103E80007F905F904F900895C60123E0880F991F9F
:103E90002A95E1F7FC01E050FF4F438150E0E41622
:103EA000F50608F4A70180509F4FFC0164817581DD
:103EB00066577C4FC5010E94F930B701C8010E94C6
:103EC000B00799818913CDCF0E943407F401608334
:103ED000718382839383C6CFA701B801C5010E9475
:103EE000F930C0CFA2E0B0E0E8E7FFE10C94F12F99
:103EF00082E0E82EF12C01E913E09E012F5F3F4F95
:103F000042E853E063E082E00E94CD1EC82E882381
:103F100039F100E080E01DC0D090A703D00E2D2D18
:103F200030E0A90144535C4F7A01E1E0F0E0EC0F8E
:103F3000FD1FE00FF11D1081FA019081191BB12EB8
:103F40001B149CF0912F17FD90E0191B111118C044
:103F50000F5F9091A6030917F8F281110E941113C7
:103F60008C2D2296E9E00C940D30BA94F7018081F3
:103F70008F5F808360E08D2D0E94FF1D8C2DE0CF30
:103F80001F5FF70180818150808361E08D2D0E9449
:103F9000FF1D8C2DDBCFA5E0B0E0E1EDFFE10C943F
:103FA000F22F6B0185E0E82EF12C0BE813E09E0167
:103FB0002F5F3F4F4EE753E061E080E00E94CD1E4F
:103FC000882349F095E0FE013196A9E7B3E001901E
:103FD0000D929A95E1F795E0E9E7F3E0D6010190BB
:103FE0000D929A95E1F72596E8E00C940E30CF9368
:103FF000C82F8091B70382FB992790F99C17F9F09D
:10400000C0FB82F98093B7036091B6037091B70348
:1040100084E090E00E94E63082E00E940C148091DF
:104020002B0580FF0CC01F92CF938AE991E09F93EC
:104030008F930E94BE050F900F900F900F90CF911D
:10404000089567EE7EEF90E080E00E94E63060E049
:1040500082E090E00E94C83060E083E090E00E943F
:10406000C83010926A031092690360E074E184E042
:1040700090E00E94E63060E086E090E00E94C83068
:104080006FEF87E090E00E94C83040E050E0BA0156
:1040900088E090E00E94DA3060E08DE090E00E94DD
:1040A000C83040E050E0BA0188E190E00E94DA3088
:1040B00060E087E190E00E94C83040E050E0BA0143
:1040C0008CE190E00E94DA3070E060E080E290E005
:1040D0000E94E63040E050E0BA0188E190E00E94A2
:1040E000DA3040E050E0BA018FE090E00E94DA3030
:1040F00040E050E0BA0183E190E00E94DA30089598
:10410000A5E0B0E0E6E8F0E20C94EE2F7C01FC01C3
:1041100083819481892B31F08081918189238F3F24
:1041200009F01EC42596ECE00C940A300E944B1353
:10413000182F682F89819A810E94BF1369817A8123
:10414000812F0E94D4118C01FC01E851FC47E7301B
:10415000F10588F5E15DFE4C0C94723026E241EEEB
:1041600061EEC7010E94A21D80915D038770D1F2AC
:10417000F70182818823B1F28091B70382FFD2CF09
:1041800082E00E940C14CECF27E245EE65EEE9CF27
:1041900026E241EE60EEE5CF27E245EE64EEE1CFA8
:1041A00026E241EE62EEDDCF27E245EE66EED9CFA4
:1041B00028E241E0EBCFF7018281882309F4F7C3BD
:1041C00010922905C8019057839708F0DAC384E05C
:1041D00090E00E94B2309093B7038093B603F80149
:1041E000E150F047E232F10520F4EA5CFE4C0C9419
:1041F00072308091B60381608093B60395C0809140
:10420000B70388608093B7038FC08091B603826044
:10421000F3CF8091B6038460EFCF8091B6038860BE
:10422000EBCF8091B7038160EDCF8091B7038260BF
:10423000E9CF8091B6038061DFCF8091B6038062C1
:10424000DBCF8091B6038064D7CF0E941D1A809186
:10425000B6038068D1CF8091B6038C60CDCF8091BA
:10426000B7038360CFCF8091B6038E7FC5CF809197
:10427000B703877FC7CF8091B6038D7FBDCF809175
:10428000B6038B7FB9CF8091B603877FB5CF80917E
:10429000B7038E7FB7CF8091B7038D7FB3CF809167
:1042A000B6038F7EA9CF8091B6038F7DA5CF809175
:1042B000B6038F7BA1CF0E941D1A8091B6038F7722
:1042C0009BCF8091B603837F97CF8091B7038C7F7C
:1042D00099CF8091B60382FB992790F921E092272C
:1042E00090FB82F990FB83F987CF8091B703982FD9
:1042F000909591708E7F892B90FB81F983CF90915F
:10430000B603892F8F7B96FF806476CF0E941D1A9B
:104310009091B603892F97FB87F980586DCF61E0A4
:104320008EE090E00E94C8306091B6037091B703B0
:1043300084E090E00E94E6300E941D1A15CF60E0F4
:10434000EFCF9091B603892F8F7E94FF806154CF79
:104350009091B603892F8E7F90FF81604DCF909111
:10436000B703892F877F93FF88604CCF8091040328
:1043700081110FC089E2EEEFF2E024E033E0919189
:10438000891303C0DF0111971C922E173F07B9F75D
:104390000BC385E3F0CF80912C05982F937021E01B
:1043A00092278C7F892B80932C0510924A01809153
:1043B0002A05816080932A0580912B0580FFD4CE49
:1043C0001F929F9389E591E09F938F9380E491E002
:1043D0009F938F930E94BE050F900F900F900F90A8
:1043E0000F900F90C1CE42EB54E16CEB74E10E9450
:1043F000C607BACE4CEB54E162EB74E1F8CF4BE266
:1044000055E165E375E1F3CF45E355E16BE275E115
:10441000EECF41E155E16EE175E1E9CF4EE155E1C5
:1044200061E175E1E4CF47EF54E164E075E1DFCF8E
:1044300044E055E167EF74E1DACF4DE555E168E618
:1044400075E1D5CF48E655E16DE575E1D0CF81E066
:104450000E947F1489CE85E0FBCF8DE0F9CF82E109
:10446000F7CF90912B05892F8E7F90FF81608093ED
:104470002B0580FF05C089E891E00E94250574CED8
:1044800087E791E0FACF6FEF7FEF90E080E00E9446
:10449000E6300E94EA1C8091B70382FB882780F9EE
:1044A00091E089270E94F71FF70182810081118125
:1044B000882309F449C0C8010E944B13D82E682FE5
:1044C000C8010E94BF13B8018D2D0E94D4110E9413
:1044D000F3118C01882EF701A280958092943FE021
:1044E000932280915D038770F1F0CA2CAA20E1F03D
:1044F000812F807F803451F080E2800F883098F0E7
:10450000911004C0812F807E803269F08091B703C2
:1045100082FF09C082E00E940C1480915D038770C5
:10452000CC24C3948111C12CB12EB2942FE0B222BD
:10453000FBE0FB1508F474C0EB2DF0E0E85AFE4CEC
:104540000C94723080E0AECFC8010E948C13D82E3C
:10455000BACF212F2F70D22E107F19F0D29490EF66
:10456000D922AA20B9F0DD2069F080E2800F8830DE
:1045700010F0811009C080916703D82AD092670398
:104580000E94AB19802F4AC080916603D82AD0922E
:104590006603F6CF802F0E94111DDD2009F440C074
:1045A000005E083010F0811004C08D2D0E941A1397
:1045B00006C0D09480916603D822D09266030E94F0
:1045C000AB192EC0312F3F70D32E107F103219F04F
:1045D000D29480EFD822882089F081E0881609F4EF
:1045E0007CC0AA2009F486C0992009F47CC0F70198
:1045F000858180FFC7CF8F70858375C02091B703F9
:1046000022FD43C0AA20D9F1DD2039F08091670353
:10461000D82AD09267030E94AB1980E00E94461D01
:10462000EB2DE850FF0B349710F40E94BC16CC2001
:10463000A9F080915D0380FD11C0F701128285957C
:10464000859585950E942814C7010E94802080913D
:104650005D038595859585950E94FA1385E0F701A0
:10466000DE01119601900D928A95E1F709811A8178
:10467000C8010E948C13B8010E94D41153CD80E070
:104680000E94111DDD2061F290CFAA20A1F090912F
:1046900068038D2D892B911003C00E94071DC0CF88
:1046A000E1E09E12FACF22FFBBCF981709F4B8CFF2
:1046B00080936803B5CF911006C00E9414138D2D0E
:1046C0000E94001DADCFF1E09F1609F4A9CF8D2DFA
:1046D0000E94001D0E941413A3CFAA2031F025E0F0
:1046E000291508F49DCF8D2DD8CF34E0391508F465
:1046F00097CFE5CF992019F3F9E38F122AC12FEF55
:1047000037EE83E0215030408040E1F700C00000E8
:1047100020C1812F86958695837061F0813009F0E4
:104720007FCFC8019370A11002C080E090E00E948A
:10473000660776CFC8019370A11002C080E090E0B8
:104740000E948B076DCF812F837009F03FC0A110AD
:1047500067CF402F429546954770440F440F802FF6
:104760008F7090E0042E02C0880F991F0A94E2F720
:1047700030E020E004FF09C02FE030E002C0220F4B
:10478000331F4A95E2F720953095169516951370CC
:10479000123099F078F44091690350916A03113016
:1047A00039F0822B932B842395230E94381438CF21
:1047B000842B952B822B932BF8CF822B932B20913C
:1047C000690330916A0382279327EFCF8695AA2049
:1047D00011F0812F8170882309F422CF402F429558
:1047E00046954770440F440F802F8F7090E0042E41
:1047F00002C0880F991F0A94E2F730E020E004FF1E
:1048000009C02FE030E002C0220F331F4A95E2F7C3
:1048100020953095169516951370123099F078F40E
:104820004091B4035091B503113039F0822B932B92
:10483000842395230E94F513F3CE842B952B822B92
:10484000932BF8CF822B932B2091B4033091B50397
:1048500082279327EFCF1F70AA2029F0812F0E9473
:104860002814802F1ACF802F0E94001D812F0E94B4
:10487000FA13D6CE802F92EF891699F1981570F021
:10488000E0EF8E16D1F0F1EF8F1691F0AA2009F427
:104890005BC0911077CE812F8F7127C023EF8216D6
:1048A00039F134EF8312F2CF8091B70382FD2EC02D
:1048B000812F8F71AA20D9F218C0AA2069F084E054
:1048C000891508F4ADCE1F7181E090E002C0880F19
:1048D000991F1A95E2F7B8CF95E0991508F4A0CE84
:1048E000F2CF812F8F71A110C2CF0E94281498CED1
:1048F00090E080E0AA2009F49DCF1F7181E090E054
:1049000002C0880F991F1A95E2F794CFAA2089F068
:104910001F71812F0E9428148091B70382FF07C066
:10492000E8E01E9FC0011124836080935D03812F06
:10493000DCCF81E00E940C14F1E0F91508F070CE94
:1049400082E00E940C146CCE992039F0893309F46E
:10495000D6CE802F0E94111D63CE812F8F7187CFFD
:1049600085E0DE01119601900D928A95E1F7F7013D
:10497000228189819A812111D9CB0E948C13182F11
:10498000DDCB0631FCE71F0729F5809167038A7AA2
:1049900091E009F490E09093040369E2811165E3EA
:1049A0008CEF92E00E944C070E94AB19DDCB0631E0
:1049B0002CE7120709F4DACC809167038272F801C0
:1049C000E052F847E531F10508F06ECDEC59FE4CA8
:1049D0000C94723003303CE7130709F454CD08F00F
:1049E0003AC001309CE7190709F453CD08F039CDDE
:1049F00001151C4709F058CD0E941D1AFFEF24E352
:104A00003CE0F15020403040E1F700C0000081E080
:104A10008093E00080E28093D8001092C9008FE17B
:104A20009EE40197F1F700C0000087E090EBDC0105
:104A30008093320590933305A0933405B0933505E8
:104A400088E19CE00FB6F894A895809360000FBEB3
:104A500090936000FFCF0B352CE7120709F472CD5D
:104A60000C353CE7130709F416CD0A351C4709F04D
:104A70001BCD81E017CD1F93CF93DF9380912A0345
:104A8000807F09F04BC080912703882309F446C03A
:104A900080915C03C0912B03409125035091260324
:104AA0006091280370912903D42FD52316E0C817ED
:104AB000A9F190E061157105A9F1DF3F99F1189F07
:104AC000F001199FF00D1124DF01A45DBC4F119678
:104AD0002C911197251326C02C91241323C01296D4
:104AE0002C91129721111EC013962D913C91261BDB
:104AF000370B283C3105B0F480912A038F70806118
:104B000080932A03EF5CFC4F80818F7080618083EB
:104B100085E293E00E9480200E944113DF91CF91B3
:104B20001F91089501968770C2CFA1E1B0E0EBE933
:104B3000F5E20C94EE2F8C0185E0F801DE011D9664
:104B400001900D928A95E1F7F801E28085E2882EC6
:104B500083E0982E40912803509129034115510577
:104B600009F430C19091250320912603892F8223D7
:104B70008F3F09F427C1D080C180A380B480F0901A
:104B80002703B501641B750BFF2009F4E7C0809172
:104B90002A03382F307F683C710508F0ABC0311113
:104BA00078C0FE2C2C1114C09D1112C0E11010C051
:104BB0008F70806180932A03C4010E9480208091BD
:104BC0002A03F80185838F2D6196ECE00C940A305E
:104BD000A114B104C9F18D2D8C218F3FA9F181E081
:104BE0008E2580FF05C04E2D6C2D8D2D0E9421132A
:104BF000A114B10459F18D2D8C218F3F39F181E041
:104C00008E25F82FF170BF2E80FF39C04E2D6C2DF0
:104C10008D2D0E942113A82E811131C0DD86CE86F4
:104C20008D859E850E947F13292F22952F70243019
:104C300078F49F702230A8F09923B9F0F80195819B
:104C4000907F99F4FA2CBFCF80E0CBCF80E0D9CF12
:104C50002A5F2F70223068F0C8010E948020AB2CA0
:104C6000F1CF992311F0882369F3805E883050F3E7
:104C7000F3CF803F38F3815F833070F7E3CFEE20CE
:104C800009F4A1CF80912A03816080932A03F12C3B
:104C90009ACF2C1105C09D1103C0EE2009F477C0F6
:104CA000C8010E943D14882309F1EE20F9F080919B
:104CB0002A03803270F02091250330912603388733
:104CC0002F831986BB86AA868C87CE0107960E9401
:104CD000802086E0F801A5E2B3E001900D928A956C
:104CE000E1F70E943B25FF24F3946DCFC8010E9499
:104CF0008020F9CF31110AC085E293E00E94802024
:104D000086E0F40111928A95E9F7C1CF2C110EC00B
:104D10009D110CC0E1100AC08583C8010E9480204B
:104D200086E0F40111928A95E9F74DCFC8010E94FF
:104D30003D148823D9F2EE20C9F280912A038032F3
:104D400040F220912503309126033A8329831B8268
:104D5000BD82AC828E83CE010196B9CF683C7105CD
:104D6000F8F6FE2CEE2011F22C111EC09D111CC075
:104D700080912A0380FD0FC0982F907F61F085837A
:104D8000903F31F0982F907F905F8F70892B8583B3
:104D9000C8010E94802086E0F801A5E2B3E00190FE
:104DA0000D928A95E1F70FCFC8010E943D14811141
:104DB00090CF80912A03816080932A03C8010E94CA
:104DC000802001CFEE2009F491CFC8010E943D144C
:104DD000F82E882309F48ACF86E0F801A5E2B3E033
:104DE00001900D928A95E1F7809125039091260319
:104DF0000E947F130E943B25E6CEA7E1B0E0E3E0EE
:104E0000F7E20C94F72F4B8B5C8B6D8B7E8B8F8B2B
:104E10006111109266031A8A198A85E0FE01739661
:104E2000DE011D9601900D928A95E1F786E0FE0164
:104E30003D96DE01179601900D928A95E1F7CE011D
:104E400007960E949525811112C086E0FE013796D3
:104E5000DE01119601900D928A95E1F78A859B8576
:104E6000892B29F088859F8189238F3F81F516E062
:104E700080915C0390912B03891317C06796E3E040
:104E80000C94133096E0929FD001939FB00D1124A3
:104E9000A45DBC4FFE01319601900D929A95E1F709
:104EA00080932B030E944113E2CF819FC001112404
:104EB000845D9C4F0E949525882301F380915C03BB
:104EC00090E001968770992780935C03D1CF209161
:104ED0002B0330E0C90101968770992740915C034C
:104EE0004817190679F60E941D1A10922B0310928A
:104EF0005C0386E0E5E2F3E0DF011D928A95E9F7C5
:104F0000B6CFA5E0B0E0E7E8F7E20C94F62F0E94F8
:104F100040078C0180916B0390916C03801791077F
:104F2000A1F08FEF89838A831B820E9440078160F2
:104F3000782F9D838C8349815A816B818D810E945A
:104F4000FD2610936C0300936B032596E4E00C940C
:104F500012301F920F920FB60F9211242F933F938E
:104F60004F935F936F937F938F939F93AF93BF9371
:104F7000CF93DF93EF93FF93D091E900DF7080919F
:104F8000EC00C82FC17080FDC0E81092E90080914C
:104F9000F000877F8093F00078940E94331A10927B
:104FA000E9008091F00088608093F000CD2BCF70F5
:104FB000C093E900FF91EF91DF91CF91BF91AF9145
:104FC0009F918F917F916F915F914F913F912F9121
:104FD0000F900FBE0F901F9018951F920F920FB653
:104FE0000F9211242F933F934F935F936F937F936F
:104FF0008F939F93AF93BF93EF93FF938091E100C3
:1050000082FF15C08091E20082FF11C08091E10013
:105010008B7F8093E1002091E2042F5F822F62E377
:105020000E941F30992309F4C0C02093E2048091AC
:10503000DA0080FF28C08091D80080FF24C08091D2
:10504000DA008E7F8093DA008091D90080FFE3C080
:1050500080E189BD82E189BD09B400FEFDCF81E018
:105060008093F00483EB98E00E9425058091E3048F
:10507000811109C00E94C7050E9468068091E20064
:1050800084608093E2008091E10080FF1BC08091EA
:10509000E20080FF17C08091E2008E7F8093E200E3
:1050A0008091E20080618093E2008091D80080626C
:1050B0008093D80019BC85E08093F0048BEB98E0D6
:1050C0000E9425058091E10084FF2FC08091E200BD
:1050D00084FF2BC080E189BD82E189BD89B5982F0D
:1050E000917080FFFBCF8091D8008F7D8093D80096
:1050F0008091E1008F7E8093E1008091E2008F7EBD
:105100008093E2008091E20081608093E2008091D0
:10511000F104882309F489C084E08093F0048FEBC4
:1051200098E00E9425058091F0048091E10083FFC2
:105130002BC08091E20083FF27C08091E100877F30
:105140008093E10082E08093F0041092F10480915A
:10515000E1008E7F8093E1008091E2008E7F80935A
:10516000E2008091E20080618093E20042E060E032
:1051700080E00E9436068091F00088608093F00005
:1051800083EC98E00E942505FF91EF91BF91AF91CC
:105190009F918F917F916F915F914F913F912F914F
:1051A0000F900FBE0F901F9018951092E2048091FF
:1051B000E104882309F43BCF8091F0048430C1F4EA
:1051C0009091E9009F702091EC00822F817020FD6A
:1051D00080E8892B93E09093E9009091EB0090FF99
:1051E00004C09091EE0097FD08C08F708093E90095
:1051F0001092E1041CCF1092F1009091E80095FD0F
:10520000FACF9091E80090FFF0CF9091E8009E7760
:105210009093E800EACF19BC1092F00487EB98E075
:105220000E9425051092E3042ECF8091E30087FDB4
:1052300093E09093F00473CF78941F921FB61F925F
:1052400011248F939F93AF93BF938091DC0490912F
:10525000DD04A091DE04B091DF040196A11DB11D13
:105260008093DC049093DD04A093DE04B093DF040C
:10527000BF91AF919F918F911F901FBE1F90189566
:105280001F921FB61F9211248F939F93AF93BF93CA
:105290008091DB04811113C08091DC049091DD04C6
:1052A000A091DE04B091DF044196A11DB11D809351
:1052B000DC049093DD04A093DE04B093DF04BF917F
:1052C000AF919F918F911F901FBE1F901895CDB7E2
:1052D000DEB72F970FB6F894DEBF0FBECDBF85B7F0
:1052E000806885BF85B7806885BF84B7877F84BFA6
:1052F0000FB6F894A8958091600088618093600053
:10530000109260000FBE80E890E00FB6F894809392
:105310006100909361000FBE83E795E19093FB02DB
:105320008093FA020E94C7050E9468068091E200FD
:1053300084608093E20078948091F0048823A1F047
:105340001091E9001F709091EC00892F817090FD01
:1053500080E8182B1092E9008091E80083FD0E94FC
:10536000331A1F701093E90082E084BD93E095BD6D
:105370009AEF97BD80936E001092A2031092A30340
:105380001092A4031092A50355985D988FE891E0C0
:105390000197F1F700C000000E94A10B80933B0130
:1053A0000E94991681110E94862E80913B0192E005
:1053B000811190E09093D40382E0A82FA91BA093C1
:1053C000A70390913B018093D50390913B0180937B
:1053D000A60338EDA32E31E0B32E46ED51E08A014D
:1053E000950161E070E0F90181919F01E82FE2955C
:1053F000EF70F0E0D1A08F707B0101C0EE0C8A95B8
:10540000EAF79E2D90959D2191A382A18E2982A3DA
:10541000D8018D918D01E82FE295EF70F0E0D1A0D9
:105420008F707B0101C0EE0C8A95EAF79E2D909556
:105430009D2191A382A18E2982A3B1E02A3D3B0741
:1054400091F6EFE8F1E03197F1F700C0000010911C
:10545000D50366ED73E0FB018E2F861B811708F4E0
:105460006AC280913B0181112CC085E0EEE4F1E03D
:10547000DE01179601900D928A95E1F78F81809356
:1054800036018885809337018985809338018A8524
:10549000809339018B8580933A0186E0E3E5F1E062
:1054A000DE01119601900D928A95E1F7FE01319689
:1054B000A0E3B1E0CE01079621912D93E817F907FB
:1054C000D9F780913B0195E0811190E09093B3036F
:1054D00085E0891B8093B20306E311E02BE3E22E03
:1054E00021E0F22EF80181918F018F3F11F00E948F
:1054F000D810E016F106B1F700E311E0D8018D9164
:105500008D018F3F11F00E94D810B1E006331B07C8
:10551000A9F78AE0E8EBF3E0DF01282F1D922A9536
:10552000E9F7E8EAF3E0DF011D928A95E9F790E0F8
:1055300080E00E94B230873E9E4F11F00E942120F1
:1055400082E090E00E94AA30182F80932B0584E01F
:1055500090E00E94B2309093B7038093B60383E04B
:1055600090E00E94AA3090E00E9438141092FE044D
:105570008FEF9FEF909318058093170590931A056E
:105580008093190590931C0580931B0590931E052D
:1055900080931D059093200580931F05909322050D
:1055A00080932105909324058093230590932605ED
:1055B000809325051092DB039093F5038093F40309
:1055C0009093F7038093F6039093F9038093F80385
:1055D0009093FB038093FA039093FD038093FC0365
:1055E0009093FF038093FE03909301048093000443
:1055F000909303048093020490E080E00E94B23014
:10560000873E9E4F71F010FF08C089E297E09F939C
:105610008F930E94BE050F900F900E9421200E9440
:10562000B71781E080932A0546E050E06CE170E016
:105630008CE295E00E949A3010922A0580912C0508
:105640008C7F71F480912B0580FF08C084ED96E07B
:105650009F938F930E94BE050F900F900E94B717E3
:1056600080912B0580FF89C08AEB96E09F938F93F2
:105670000E94BE0580912B050F900F9080FF7DC08A
:1056800080912C0583701F928F938BE996E09F93F6
:105690008F930E94BE0580912B050F900F900F9065
:1056A0000F9080FF6AC080912C05869586951F9289
:1056B0008F938EE796E09F938F930E94BE05809113
:1056C0002B050F900F900F900F9080FF56C0809188
:1056D0002D051F928F9380E696E09F938F930E94F3
:1056E000BE0580912B050F900F900F900F9080FFBB
:1056F00044C080912E051F928F9382E496E09F9381
:105700008F930E94BE0580912B050F900F900F90F4
:105710000F9080FF32C080912F051F928F9384E2FB
:1057200096E09F938F930E94BE0580912B050F906A
:105730000F900F900F9080FF20C0809130051F9236
:105740008F9386E096E09F938F930E94BE05809191
:105750002B050F900F900F900F9080FF0EC080913F
:1057600031051F928F9388EE95E09F938F930E944F
:10577000BE050F900F900F900F900E949916811107
:1057800002C00E94892E8CE391E09093D80480930C
:10579000D7048091F0048530A9F48BE597E00E944E
:1057A000250590E4F92EEE24E39400E112E18091C6
:1057B000F004853009F4E8C00E941D1A0E94BC164E
:1057C000109208040E94E31782EC282E83E0382E02
:1057D000A8EBB3E0BD87AC87F10191918D912CECE2
:1057E00033E02E173F0709F416C19817B1F38091E3
:1057F0002B0581FD51C10E9499168F8701EF802EE4
:1058000001E0902EE12CAC85BD85DD90BD87AC8795
:10581000F10161901F016D1409F483C02401C12CB2
:10582000772473946D24862D872109F46FC0F72C9B
:10583000FD20FF85FF2399F0C982EA8281E0F11003
:1058400001C080E08B830E9440078160782F9D8398
:105850008C8349815A816B818D810E94FD26FF20B6
:1058600041F0D2018C91F12C8F3F19F08E87FF24EB
:10587000F3940F2D10E08091DB03800F912F911D89
:1058800009976CF1E8E0AE2EB12CA01AB10AB8016C
:1058900064527C4FA5018CED93E00E94F930B80171
:1058A0006C517C4FA50184EE93E00E94F930A50174
:1058B000440F551FB801660F771F6C507C4F84EF63
:1058C00093E00E94F930B80164517C4FA5018CEE41
:1058D00093E00E94F93088E08F198093DB03809178
:1058E000DB0390E0EE85AE2FB0E09D01220F331F69
:1058F000235D3D4FAA0FBB1FBD01625D7D4F41E09F
:10590000480F9F1508F4FEC08093DB03C394770C07
:10591000EFEF4E1A5E0AF6E0CF1285CFF101319714
:10592000D082E39426E0820E911C3AE0E3126BCF22
:105930000E94340774C0D5012D915D01822F82959C
:105940008F7090E0DC0190968C9190E02F7002C0F7
:10595000959587952A95E2F78170DA019D91AD01C1
:10596000292F22952F7030E0D90190962C9130E0AC
:105970009F7002C0359527959A95E2F790E020FD3B
:1059800092E0892B819368CD8091F004843009F4F2
:1059900030C00E94081780910804811105C00E9440
:1059A000980E80E00E94CC07E09208041092DB047D
:1059B00028E130E00FB6F894A895209360000FBE60
:1059C000F092600083B7817F846083BF83B781607A
:1059D00083BF7894889583B78E7F83BF0FB6F89482
:1059E000A8958091600088618093600010926000AB
:1059F0000FBE8091EF04882309F4D9CE0E94E317EB
:105A0000E8EBF3E08191811113C182EC93E08E17F2
:105A10009F07C1F7CCCE9813EACE0E9481270E943F
:105A200099160E940817D12CC12C8091D503D81645
:105A300008F47EC0C1100E9411130E94BC16182FDA
:105A40008091DA03181709F4A4CE1093DA030E94A8
:105A5000340780912B0582FF9CCE80FF9ACE84E88C
:105A600097E00E94250580912B0580FF92CE1F9222
:105A70001F938FE797E09F938F930E94BE058091BD
:105A80002B050F900F900F900F9080FF82CE8DE727
:105A900097E00E9425057DCE8EE697E00E942505C1
:105AA000B8EBEB2EB3E0FB2EB12CA12C19E6C12EE6
:105AB00017E0D12E01E617E0BF92AF92DF92CF92AE
:105AC0000E94BE0586E697E00E942505D7018D91CC
:105AD0007D010E9467141F928F931F930F930E9462
